:020000040800F2
:1000000028080020C9000008EF0000086707000862
:1000100000000000000000000000000000000000E0
:10002000000000000000000000000000F3000008D5
:100030000000000000000000F5000008690800084A
:10004000F9000008F9000008F9000008F9000008AC
:10005000F9000008F9000008F9000008F90000089C
:1000600000000000F9000008F9000008F90000088D
:10007000F9000008F9000008F9000008F90000087C
:10008000F90000080000000000000000F90000086E
:1000900000000000F9000008F9000008F90000085D
:1000A00000000000F900000800000000F90000084E
:1000B0000448854600F0BCF900F048F800480047C5
:1000C000491F0008280800200C4880F308880C48C5
:1000D0000168090E0B4A914205D10B480B4901609A
:1000E0000B480C4901600C4880470C480047FEE76C
:1000F000FEE7FEE7FEE7FEE7FEE700002808002037
:10010000040000001F000000181002400100000061
:1001100000000140000000006D080008B100000868
:1001200030B50B46014600202022012409E00D468F
:10013000D5409D4205D31D469540491B2546954017
:1001400040191546521E002DF1DC30BD70B5054C2E
:10015000054D03E0206800198047241DAC42F9D109
:1001600070BD0000C42E0008C82E0008F8B5024675
:100170004A40D40F42004B0052085B089A4202D218
:100180000246084611464A0023D0C30D4A00DDB29C
:10019000120EAD1A202D35DA49020126490AF6055C
:1001A0008A19002C00D0524220214F1B1146B94021
:1001B0002A411018C20D9A4221D0002C17D0012DCF
:1001C00008DCDA05801AD20F8019D207DBB200F002
:1001D000F5F8F8BDDA05801A012340001B06C018A7
:1001E00080185A428018CA0F1043490007E0490896
:1001F000C2071143DA05801A80194008801800F000
:10020000D5F8F8BD61000122511A001BF7E7012261
:10021000D2075140AAE70122D2075040A6E7024682
:1002200070B54A40D30FDB0740002DD04A002AD0DA
:10023000010E140E000212020919400A520A841813
:10024000E50104465443000A120A2E045043A4193F
:100250004219200CC543AA18120C0125AD03521CEB
:10026000521912047F39240400D0521C104301D4C7
:100270004000491EC2B20C06C0092018401C4008AC
:10028000802A02D003E0002070BD40084000002911
:1002900000DA0020184370BD70B502464A40D50F01
:1002A00040004A00ED0740085208002814D0002AF8
:1002B00012D0C40DD30D41020120C0055202490ADB
:1002C000520AE41A091812187D34914201D3641CB1
:1002D00000E04900002C01DA002070BD00239142AB
:1002E00001D3891A0343400849000028F7D10029A7
:1002F0000AD0914202D10121C90705E0914201D201
:10030000012101E00121C943E005C018401900F0B6
:100310004DF870BD420005D04200120E52428A4292
:1003200001DB00207047C90508187047C217C10FCC
:10033000504010B54018CA079623002100F03EF83F
:1003400010BD10B500229623114600F037F810BDFD
:10035000C20F410040020123400ADB05D207090E0B
:10036000C0187F2901DA00207047962903DC962304
:10037000591AC84001E096398840002AF4D040421A
:10038000704700000122D207002800DB101A002964
:1003900000DB511A814270470122D207002800DB9E
:1003A000101A002900DB511A88427047002904DA2C
:1003B000401C490001D140084000704770B400243F
:1003C000050C05D11024000402D1002921D01124EC
:1003D000050E01D100020834050F01D10001241DD2
:1003E000850F01D18000A41C002801DB4000641CA3
:1003F000002908D020252E1B0D46F540A14000D035
:1004000001212943084301061B1B000ADB1D02D5FD
:10041000002070BC7047DB05181880180029F8DA36
:10042000401C4900F5D170BC4008400070470000F6
:10043000064C0125064E05E0E36807CC2B430C3C37
:1004400098471034B442F7D3FFF736FEA42E0008C5
:10045000C42E000870B58C180578401C6B075B0F24
:1004600001D10378401C2A1106D10278401C03E018
:1004700006780E70401C491C5B1EF9D12B0705D471
:100480000023521E0DD40B70491CFAE70378401C60
:10049000CB1A921C03E01D780D70491C5B1C521E88
:1004A000F9D5A142D8D3002070BD836A0B43836283
:1004B000426170470029816801D0012200E00222D8
:1004C0001143816070470029C16802D001221143A5
:1004D00001E049084900C1607047C26802239A439D
:1004E000C260C2680A43C26070478268002101236B
:1004F000DB071A4382600F231B038268491CD20F5B
:10050000D207994201D0002AF7D18168002901DB86
:10051000006C70470020704730B5C268084B8C688B
:100520001A400B680D792343CC686D032C43234399
:100530000C69496923430B431343C36030BD00007A
:1005400003D2FFFF816804221143816070470021BC
:10055000016001718160C16001614161704700000B
:100560000122054992050028886801D0104300E067
:10057000904388607047000000270140002901680F
:1005800002D00122114301E0014A1140016070478D
:10059000FEFF000030B503680C4A0C6A13408A68FD
:1005A0004D6922430C692C4322438C692243CC6958
:1005B00022434C6A22438C6A22431A430260CA686F
:1005C00042600A6882604968C16030BD0F80FFFFE9
:1005D000F0B50B2706463F04384600F067F80428BC
:1005E0000FD1084C206902252843206166612069EB
:1005F000402108432061384600F058F82169A9439A
:100600002161F0BD0020024008490420CA68D207D9
:1006100001D001207047CA68D20601D50220704778
:10062000C9684907FBD5032070470000002002403D
:100630000248016980221143016170470020024095
:10064000F8B5064600200B273F0400900D463846BB
:1006500000F02CF8042815D10B4C20690121084327
:1006600020613580384600F021F8042806D1B61CF8
:10067000290C00963180384600F018F821694908A5
:1006800049002161F8BD00000020024004480169D2
:10069000090603D5034941600349416070470000E2
:1006A0000020024023016745AB89EFCD00B503462A
:1006B000FFF7AAFF02E0FFF7A7FF5B1E012803D0A8
:1006C000002B00D1052000BD002BF4D1FAE7F0B5D6
:1006D0000022032501230C6893401C409C422AD130
:1006E0000C79012C01D0022C12D1876854002E46BF
:1006F000A640B74387604E79A6408468264386604B
:1007000084889C43848084888B7993401C438480B4
:10071000066853002C469C40A64306600E79076885
:100720009E403E430660C668A643C660CC799C40A6
:10073000C3681C43C460521C102ACBD3F0BD4B07C6
:10074000DB0E9A40C90810B589000818016A0F2409
:100750009C40A1430162016A1143016210BD018501
:10076000704781617047052000F00AFF70B5FF25D2
:1007700000210446AD05C943FFF7CCFD06460F49ED
:1007800060100C1A21463046FFF749FD2146FFF75D
:1007900046FD2946FFF73FFD2146FFF740FD044691
:1007A00001463046FFF73BFD2146FFF738FD29465D
:1007B000FFF731FD2146FFF732FD70BDDF59375F8E
:1007C000044A0029516901D0014300E0814351618D
:1007D0007047000000100240044A0029D16901D08E
:1007E000014300E08143D1617047000000100240E6
:1007F000044A0029916901D0014300E081439161DD
:1008000070470000001002400CB5002000900190DD
:1008100013491120086013484168416041684160F4
:1008200041687B22D2039143416041680522D20492
:100830001143416001680122120611430160016801
:100840008901FCD54168890889004160416802221C
:100850001143416041680907890F0229FAD10CBD93
:1008600000200240001002407047000010B51448FC
:1008700001680122114301604168124A1140416040
:100880000168114A114001600168012292049143FC
:10089000016041683F22120491434160C16A090925
:1008A0000901C162016BFF22543291430163416B24
:1008B00049084900416300218160FFF7A5FF10BD91
:1008C000001002400CB8FF08FFFFF6FE0029018867
:1008D00002D00122114301E049084900018070471C
:1008E00040300029818803D00122D203114301E066
:1008F0004904490C8180704770B5028C520852003F
:100900000284048C8288038B7025AB439B080D887E
:100910009B001D4302239C438E894B882643104C29
:100920003343A04208D00F4CA04205D00E4CA04249
:1009300002D00E4CA0420DD10824A343CC891C4305
:1009400004239C438B882343094C22400C8A144384
:100950004A8A22438280058389684163038470BD8B
:10096000002C01400040014000440140004801408B
:10097000FFFC000070B5028C10239A430284048CA3
:100980008288038B1A4D2B400D782D062D0C1D43AC
:1009900020239C438B891B051E0C4B8826431B057B
:1009A0001B0C144C3343A04202D0134EB04219D159
:1009B000124E32400E8AB604360C3243A04211D198
:1009C0008024A343CC892405240C1C4340239C434E
:1009D0008B881B051B0C2343094C22404C8AA40422
:1009E000240C22438280058389688163038470BD5F
:1009F000FF8C0000002C014000400140FFFB000084
:100A0000FFF7000030B5028C124B1A400284058CAF
:100A10008288838B104C23400C782406240C1C43C2
:100A20000E4B1D400B7B1B071B0C2B438D782D079A
:100A30002D0C1D430A4B984205D10A4B13400A8ADC
:100A40009205120C1A4382808483896801640584AC
:100A500030BD0000FFEF0000FF8C0000FFDF000052
:100A6000002C0140FFBF000010B50288144B9842D3
:100A700006D00124A407A04202D0124CA04203D108
:100A80007024A2434C8822430F4CA04203D00F4C49
:100A900022400C89224302804A68C2620A88028589
:100AA000984208D00A4A904205D00A4A904202D0A1
:100AB000094A904201D1897A01860121818210BDC3
:100AC000002C01400004004000100040FFFC00002A
:100AD00000400140004401400048014070B50D480D
:100AE0000B4900680546FFF79AFB0B49FFF73EFBF1
:100AF00004460A492846FFF792FB2146FFF7CCFB44
:100B00007F21C905FFF787FB0549086070BD00001C
:100B100000004040400000200AD7233C0000C040B5
:100B200014010020002101607047FFB581B01C4610
:100B300017460E0007D0019D02E02846B047ED1988
:100B40002046641EF9D2019805B0F0BD02E008C845
:100B5000121F08C1002AFAD170477047002001E037
:100B600001C1121F002AFBD17047000010B50323FA
:100B7000042204490448FFF7D8FF0448002101601B
:100B800010BD0000250B000898030020180100206C
:100B900070B5174D064668680024002801D101F0A1
:100BA000FDFD2868002801D101F076FE072201230F
:100BB00001F0CCFD00F01EF8002803D0184690404C
:100BC0002043C4B201F0DEFD521EF1D5002E02D04A
:100BD00001F0E4FD01E001F0F3FD01F0B7FD01F0EB
:100BE000D1FD6868002801D001F0EAFD204670BD03
:100BF000940100200920C006008A012189020840D2
:100C00007047000010B505484068002801D101F088
:100C1000C5FD01F09BFD01F0D3FD10BD9401002046
:100C200070B5104E0546B068012801D101F0AAFD4B
:100C3000072428462041C00702D001F0AFFD01E0A3
:100C400001F0BEFD01F08EFD641EF2D57068002833
:100C500001D101F0A3FD01F079FD01F093FD3846CB
:100C600070BD00009401002010B5074A906800286C
:100C700001D101F06BFD5068012803D1FFF7BAFFE5
:100C800001F09EFD10BD00009401002010B5084C3D
:100C90006068012804D1A068002806D101F090FD09
:100CA000A068002801D101F051FD01F077FD10BDD1
:100CB00094010020F8B5154E452000063746002562
:100CC000183FB06001F032FE0024A00039588019AE
:100CD0000F4A01F0E8F8641C032CF6DB00F066FE16
:100CE000FF20F5306D1C8542ECDB45210906B0681C
:100CF000FFF78DFA074D0024B060A0008019294647
:100D000001F0BEF8641C032CF7DBF8BD640300207F
:100D10001F856B3F0000FA4370B592B02025032079
:100D20006946069508770024CC77092006A9C006F5
:100D3000FFF7CDFC01214802FFF75AFD01210846CB
:100D4000FFF73EFD2A4806902A48079002200990A6
:100D500080200B9040000C90089480000E950D9020
:100D60000A94C000244D0F9006A910942846FFF75E
:100D700011FC1F4E0221403E3046FFF7AEFB012121
:100D80003046FFF7A0FB6846FFF7E1FB012069460C
:100D90000094087104200590029404943046FFF7F3
:100DA000BBFB0121072249043046FFF77EFB0722E7
:100DB00020213046FFF779FB0120FFF7D1FB3046B9
:100DC000FFF793FB01213046FFF774FB3046FFF736
:100DD000B9FB01212846FFF7D1FB08480088FFF73F
:100DE000B0FA0749FFF71BFA0249486012B070BD1C
:100DF000402401408801002008000240BAF7FF1F8C
:100E000062DB963F10B50B49002803D0012808D0BB
:100E1000002010BD0888FFF794FA0749FFF7FFF993
:100E200010BD4888FFF78DFA014602484068FFF779
:100E300033FA10BD880100203FC8B23AF8B58400EB
:100E4000134813491830075909683846FFF7E7F97E
:100E50000F4D064610352846103001593846FFF729
:100E6000D6F9294608390968FFF7D9F90949096807
:100E7000FFF7D5F93146FFF779F9285128461030A8
:100E800007516019044900F0FBFF2859F8BD000024
:100E900020010020540100200000B44370B5184C1C
:100EA000606A002804D00025012809D0656270BD61
:100EB0000120E06001F096FC606A401C606270BD39
:100EC000172001F090FFC00608D58F21002001F007
:100ED000AFFF6562E56001F05DFA70BD00F066FD90
:100EE000616B401A07498842F7D9E12001F05AFFA7
:100EF0008F21002001F09CFF6562E56070BD00005D
:100F0000680000201027000070B5002506462C461A
:100F1000A00030580146FFF782F92946FFF726F96D
:100F2000641CE4B20546032CF2D3FFF71FFC014614
:100F30007F20C005FFF7B0F970BD0000F8B5164F6F
:100F40000C227968134E5143144A8A1839688C0070
:100F50001159002802D0124E491C00E0491E1151BF
:100F6000BD6831462859FFF75AF928513C68002CD2
:100F700004D131466868FFF752F9686078680C213F
:100F8000484306494018A1004058002800DA404272
:100F9000F8BD00002EBA683F48010020A4030020DD
:100FA000CDCC8C3F30B5002207239C1A6418203C1E
:100FB000855CE47FA54201D0002030BD521C072A89
:100FC000F3DB012030BD0000FEB5072001F00BFF70
:100FD0000007400F0025072801D0022000E0284626
:100FE0000126584C002859D0606800281DD000F018
:100FF000DDFC07460F21544801F0DFFE00F048FAFF
:1010000000284BD0E06A401CE062E069002801D073
:10101000FFF744FF6561A561A068A763E7632561E9
:101020006064E068002837D03BE00F21464801F0BB
:10103000C4FE454B1868A42801D0A3282ED1A328AC
:1010400002D14248E66120623E4F187E2837387050
:10105000187F7870188CB870988CF8703C486A4685
:1010600003C80090019101208100595C1154401C7B
:101070000628F9DB0621104601F072FE3020694691
:1010800008700621684601F06BFEA068395C2520D7
:1010900001F0CEFE666001E001F07CF9E068002816
:1010A00001D0FFF7FBFE00F081FC0746A06B391A68
:1010B000206A82007D20C000101881420BD9606830
:1010C000002808D0A763A069002801D1606CA06047
:1010D00001F060F9A661E168A069084319D160696F
:1010E0000090052815D26068002812D0A06B7D21E1
:1010F000381AC90088420CD9216AFFF711F8014655
:101100000098401C814204D301F044F96069401CFE
:101110006061E06B381A0F4FB84205D90E4826615E
:10112000056045608560C56000F040FC216C401A98
:10113000B84205D9E06AE562206300F037FC20641C
:10114000FEBD00006800002010030020881300008E
:10115000842E000840420F00E8020020F0B5B64F90
:101160007F267878F60585B0002801D13F2636061F
:101170000024B248A50040593146FFF750F8B04965
:10118000641C4851032CF4DBAE4C0125206800267A
:10119000002838D000F088FB002834D0AA49012864
:1011A0000FD004281FD0032820D0072800DBA5601B
:1011B00005281ED006281FD0072820D0082865D073
:1011C00021E0A068002809D00D60A66000F0ACFA0C
:1011D00000F068FA00F0EAFB9C4913E000F022FC02
:1011E000FFF768FDF2E73D710D600CE00D603E71A8
:1011F00009E001F0B3F84BE001F0A2F848E000F09C
:10120000B5FD45E0086001F093F98B4800780028AF
:1012100003D08F480068002828D089488D4900688D
:10122000FEF7FDFF8C49FEF7FAFF8C490968FEF7CF
:10123000EEFF834F87490C3F386081484068FEF7D6
:10124000EEFF8549FEF7EBFF84494968FEF7DFFFB3
:1012500078607B487F498068FEF7E1FF7E49FEF7B2
:10126000DEFF7E498968FEF7D2FFB860002001F0FA
:10127000B1F8012001F0AEF8022001F0ABF86F48A0
:101280007749C068884205DA002709E000F068F96C
:101290007449B7E7FEF7BBFF7349FEF7C0FF074687
:1012A00072480068002802D17148874215DA6068E8
:1012B000002807D000F07AFB6168401A6D49884227
:1012C00000D966600027F8B2002101F0BBF97F1C4D
:1012D000032FF8DDE660256068E05A4C00202060AE
:1012E00000F064FB606064480068002801D0634837
:1012F000C768634C384626683146FEF788FF04907D
:1013000065682946FEF783FFA4682146FEF72EFF95
:10131000039031463846FEF729FF06462946FEF778
:1013200076FF2146FEF773FF019029460498FEF7E9
:101330001DFF2146FEF76BFF029030462946FEF75F
:1013400015FF2146FEF712FF00246E460090A5000F
:101350007059214600F0BEFF641C7051032CF6DD6D
:101360000020384F0446F860A500705900F0C2FF15
:101370000146E0B201F066F970590121C9078842BF
:1013800002D90020705104E07F21C905884200DDA8
:1013900071517159F868FEF7E9FE641CF860032C7E
:1013A000E2DD0121C943FEF7B5FFF860224800786D
:1013B00000283FD02648006800283BD10021204863
:1013C00001F01AFC1E4823498068FEF728FF2249D5
:1013D000FEF725FF05462B4C29466068FEF71FFFE8
:1013E000009001212068C90748402946FEF717FFF1
:1013F00001902946A068FEF712FF114F0025174EF5
:101400000C3F02902048AC00015920480151284669
:10141000FFF714FD69460959FEF7A8FE3159FEF79A
:10142000F6FE6D1C3851012DECDDB1680298FEF717
:10143000EEFEB86005B0F0BD1C020020E8020020FE
:10144000CC010020000000202400002044000020E7
:10145000F00000200000344435FA8E3C5803002090
:10146000CDCCCC3D28000020E4388E3F7800002011
:101470006F12833A40420F00F800002088030020DA
:10148000D4030020E40000207C0300203801002069
:10149000F8B52D4C2068A52853D1002108468200BC
:1014A000A258401C51180E28F9DBC8B2A16B884223
:1014B00047D12548103000F07DFF244D2860224898
:1014C000183000F077FF68601F48283000F072FF86
:1014D000A860208C616A8007800D4018FEF726FF07
:1014E0001B49FEF79CFEE860207B1A4D0006C00FEA
:1014F000A871A068C106C90FE9718106C90F2972D8
:101500000107C90F29706168FA2918D00021697094
:101510008107C90FC007A970C00FE87000200E4BEB
:101520000E4C074601261F54225C295C8A4200D0DB
:101530001E542154401C0A28F5DB0120F8BD01216E
:10154000E5E70020F8BD000010030020E8020020BD
:10155000F7FF7F3A1C02002004030020F80200205D
:1015600010B50020FFF7EAFC10BD08B58100401857
:101570000090411E009101D30846FAE708BD000023
:1015800006460024E0B2002101F05CF8641C032C44
:10159000F8DD0B4DAF0000240CE0FF2000F05EFCF6
:1015A0002846FFF7E2FFFF2000F046FC2846FFF741
:1015B000DCFF641CB442F0DB3846FFF7D6FFEAE7F5
:1015C000400D030010B50349FEF7D0FD00F004F80C
:1015D00010BD0000DB0FC93F70B50446134E144D1B
:1015E00003E03146FEF7C2FD0446AC42F9D8114D86
:1015F000AC4204DD3146FEF70AFE0446F8E701205E
:10160000C0070D490D4D8442204605D9FEF707FE5F
:101610002946FEF7ABFD04E0FEF701FE2946FEF782
:10162000FAFD2146FEF7FBFD70BD0000DB0FC9404F
:10163000DB0F49C0DB0F49407B81CF3E83F9A23FDE
:10164000FEB500273D460024681CFEF76FFE0190A2
:101650000E49A8000E58601CFEF768FE0090A1001D
:1016600071580198FEF7DBFD0099FEF7D8FD084997
:10167000FEF7D5FD3946FEF779FD641C0746032CBD
:10168000E9DB6D1C032DDEDBFEBD00007C010020CC
:101690008D976E3F10B5FFF7D3FF0149086010BD6D
:1016A00048000020F8B50020012400F08FF81A4D02
:1016B000A84230D1FF2000F089F8A8422BD1204663
:1016C000022500F08BF8154948600968FEF75AFEBC
:1016D00011D100260024B70028466D1C00F07EF8CA
:1016E0000F49A200C959641C8850032CF4DB761CF6
:1016F000032EEFDB00E00B2528466D1C00F06EF892
:10170000084C206028466D1C00F068F86060284690
:1017100000F064F8A060F8BD0100AA1248000020A3
:101720007C01002064030020F8B500F05BF800F0B5
:101730003BF800200124184901F024FB17492046FA
:101740000225096800F052F800260024B70014486A
:10175000A100C059415828466D1C00F047F8641C90
:10176000032CF4DB761C032EEFDB0E4C28466D1C9D
:10177000216800F03BF86E1C2846616800F036F8DE
:101780003046A16800F032F80349FF2001F0FAFA70
:1017900000F018F8F8BD00000100AA12480000206F
:1017A0007C0100206403002010B50548FEF710FFFF
:1017B000042803D0FEF73CFF012010BD002010BD1F
:1017C000007C000810B5FEF733FF10BD0249800011
:1017D0004018006870470000007C000800B5FFF763
:1017E000F5FF00BD10B5FEF751FF10BD10B501F0BB
:1017F000C9FA10BD30B52A4C217881424ED007215C
:101800006218203AD27F6254491E0129F8DA20700A
:1018100024492348FFF7C6FB7F25002802D06570C6
:10182000032030BD1F491E48C91DFFF7BBFB002820
:1018300002D06570042030BD1A4919480E31FFF7F7
:10184000B1FB002802D06570012030BD1549144855
:101850001531FFF7A7FB002802D06570052030BDC9
:1018600010490F481C31FFF79DFB002802D065701E
:10187000062030BD0B490A482331FFF793FB0028AF
:1018800002D06570072030BD064905482A31FFF7B0
:1018900089FB002802D06570082030BD002030BDD3
:1018A00060000020522E000870B53748374C0068A1
:1018B000002864D0364B37481A68510049088142E5
:1018C0000BDA9D686D006D08854206DA5D686D0073
:1018D0006D08854201DA00202FE02F4DAA4202D880
:1018E0009E68AE4206D95E6876007608864201DAC6
:1018F000012022E0294EB24202DC9A68B24206DDA3
:101900005A6852005208824201DA022015E05A68F1
:10191000AA4208D9814206DA9D686D006D088542A9
:1019200001DA032009E0B24208DD814206DA996853
:1019300049004908814201DA0420206000F036F8AD
:1019400006CC083C914200D0E060E268801A144A5C
:1019500090420FD9002904D1124A904201D90C209B
:1019600005E0114A904204D97F2903D0FF20A060EE
:1019700000E0A1606160A068FFF73CFF70BD7F20C0
:10198000A0606060002070BD0000002050000020BA
:10199000E8020020CDCC4C3E333333BF3333333FEA
:1019A000A086010040420F0020A1070070B50D483D
:1019B000426980690C4C6168884201D2091A01E0D1
:1019C000121A5118606020680D1806212846FEF78B
:1019D000A7FB06214143691A2160A1680818A0608D
:1019E00070BD000000E000E0B40100201CB5232021
:1019F00001214004FEF7E4FE012069460871002041
:101A00008871C8710320487104200924E4060090FD
:101A10002046FEF75CFE0821009169462046FEF74D
:101A200056FE1CBDF0B591B0FFF7C0FF0F90054604
:101A30000B900A9000208100574B0CAA5B58401C69
:101A400053500328F7DB8CE00A980A95281A09906E
:101A500001D10120099006226946432000F0B4F824
:101A6000009801990002401800B2FEF75FFC079051
:101A7000029803990002401800B2FEF757FC069046
:101A8000049805990002401800B2FEF74FFC434E3F
:101A90000890307800F07CF920464149FEF740FB81
:101AA0004048814201D9012100E000213068C2078D
:101AB000D20F914201D0401C3060384801780907AC
:101AC000090F00260160B4000CAF06A8395900596F
:101AD000FEF762FC04D238593349FEF747FB385110
:101AE00006A839590059FEF74DFC04D238592E4941
:101AF000FEF78DFB3851E0192C4900F0C1F9385937
:101B00002B4940004008FEF731FB014606AF38592B
:101B100040004008FEF740FC06D2FFF747FF0B905D
:101B20001E48012101600BE00998FEF70AFC2149DB
:101B300000F0CFF9024618483959201800F0B3F9DF
:101B4000761C032EBFDB7D24E400FFF72FFF401B34
:101B5000A04203D20A20FFF708FDF6E7FFF726FFB1
:101B600005460B982C1A1448844205D20F98134945
:101B7000281A884200D267E70B98291A0E4881423A
:101B800007D20020044A01468300401CD15003289C
:101B9000FADB11B0F0BD000070030020CC00002083
:101BA00024F40000127A0000CDCCCC3D0000484463
:101BB0000000C8420024F44880841E00C0E1E40014
:101BC00010B500F025FF10BD13460A4610B50146BA
:101BD000682000F060FF012010BD10B501466820AC
:101BE00000F040FF10BD0A4610B50146682000F025
:101BF00079FF10BDF0B5444C444D87B0216828688A
:101C0000FEF705FB286061686868FEF700FB0024AA
:101C10000A27FF436860A600A8593946FEF77AFBF9
:101C2000641CA851032CF6DB39480024006804AF7B
:101C300000903848A60080590099FEF7F0FA641C1D
:101C4000B851032CF5DB344E049834682146FEF776
:101C5000E6FAB168FEF7DFFA019001990498FEF701
:101C6000DEFA2146FEF782FA074601990598FEF74B
:101C7000D6FA7168FEF77AFA044621460598FEF70F
:101C8000CEFA0199FEF7C7FAB06021460698FEF732
:101C9000C6FA3946FEF7BFFA3060069A014610468A
:101CA000FEF7BDFA2146FEF761FA70601748FFF7AC
:101CB0002BF91A491A4A4118914222D27F22D205A1
:101CC000014600241046FEF7E7FA0090A700E95904
:101CD000FEF7A5FA641CE851032C01DA0098F5E739
:101CE0000B483F210906006800F005F9074600246B
:101CF000A000295880193A4600F0D5F8641C032C3E
:101D0000F6DB07B0F0BD0000640300204C030020A8
:101D10004000002058030020E4000020CCCCCCC0C0
:101D200032337300F8B500250D4F00F0FFFD00249D
:101D3000A6000A21B859C943FEF7ECFA0146094842
:101D4000094A301800F0AFF8641C032CF0DB7D204A
:101D5000C000FFF70AFC6D1C642DE6DBF8BD000037
:101D60004C030020E40000209A99593F10B501204F
:101D7000FFF7E4F810BD0EB500226B461A805A80BA
:101D800001911A819A726946FEF76EFE0EBD00003F
:101D900070B50646FFF70AFE194C21692061451A05
:101DA0003046FEF7CEFA1749FEF739FA064601210A
:101DB000204689070C3000F063F82846FEF7C1FA88
:101DC000054630466168FEF722FA2946FEF727FAF3
:101DD0000D49FEF724FAE168FEF7C8F90B49E06007
:101DE000884205DDFF2000F039F87F20C00503E0C0
:101DF000FF2000F021F800206060002070BD00008E
:101E0000B80000208988883D6F12833A48E1FA3E85
:101E100070B50D460446FFF7C9FD2146FEF780F96F
:101E20006C432009814203D90F2000F017F870BDE0
:101E30000F2000F001F870BD70B50446064DC007D4
:101E400003D004212846FEF78CFCA00703D5082107
:101E50002846FEF786FC70BD0000004870B50446B9
:101E6000064DC00703D004212846FEF778FCA007E2
:101E700003D508212846FEF772FC70BD000000481B
:101E800070B504460120C0070D4645400E46206847
:101E9000FEF782FA00D2266028462168FEF77CFA17
:101EA00000D2256070BD70B505460C467F201646F1
:101EB0001146C005FEF7ABF92146FEF7B0F904461E
:101EC00031462868FEF7ABF92146FEF74FF9286046
:101ED00070BD10B5FEF7E0F97F24E4052146FEF75A
:101EE0009AF9A04201DD204610BD0121C9078842B0
:101EF000FAD9002010BD10B5FEF791F97F24E40552
:101F00002146FEF788F9A04201DD204610BD0121DF
:101F1000C9078842FAD9002010BD000070B50C0036
:101F2000054601D1FEF7DAFD0549A0004418054831
:101F3000294602682046FFF7B6FF206870BD000002
:101F400098030020140100201CB57D20C000FFF77D
:101F50000CFBFFF74BFD00F0E5FD00F0EBFEC34886
:101F6000FFF703FBFFF72CFE00F0F2FA0021084612
:101F700000F068FB0021012000F064FB0021032039
:101F800000F060FB0021022000F05CFB00F0A2FCEE
:101F900000F090FC00282DD0FEF7BEFEB4490120D1
:101FA0008872087100F080FBB24D00240020FEF71B
:101FB00029FF2968FEF7DAF828607D20C000FFF7C6
:101FC000D4FA641C402CF1DB0521C9432868FEF7D4
:101FD000A1F92860FFF726FD00F064FBFFF7A2FEE1
:101FE000FFF758FBFFF75EFBA3480068002803D00B
:101FF000072021E004201FE0FFF7D8FC6863FFF70B
:10200000D5FC9C4C0546606B281AFEF79AF92063B4
:10201000002802DC7F20C00520639849FEF7FFF806
:1020200097492063884201DD062005E092486563F8
:102030000068142802DD0820FFF7A2FA00F076FC01
:10204000FFF78CF8FFF7D6FD0020FEF7DBFE894C8A
:10205000A168FEF7E4F806460120FEF7D3FE01462C
:10206000884F20463A460830FFF71DFF86483A461B
:10207000016820460C30FFF716FF2046834A2030C7
:102080002168FFF710FF3A4631462046FFF70BFF65
:102090000121C943206AFEF73DF906467C492068C4
:1020A000FEF7BDF83146FEF7B2F80090E4687948D3
:1020B000844255DD6F4F786A0646FEF737F9754959
:1020C000FEF7ADF82146FEF7AAF80099FEF74EF8A4
:1020D0006749B4006C3108510646F86A002808D0F8
:1020E000002030398200401C8E500C28FADB002082
:1020F000F8625F4868490C300059FEF790F801908B
:102100005B483C3001593046FEF781F80199FEF7F3
:102110002DF857493C310E51303908510146FEF730
:102120007EF8534E01469C36A0195C4AFFF7BBFE71
:10213000786A401C78620C2812DB002078623068D4
:1021400000240190A700F0590199FEF71BF904D271
:10215000F05901904748611C8162641C0C2CF1DB32
:10216000444C2069002800D04A484D49FDF7FEFF45
:102170000746A06AFEF7DAF8464E3146FEF74FF8FA
:10218000E168FEF74CF80099FDF7F0FF3946FEF7DD
:10219000F9F803D343492068884201DA012000E0BE
:1021A00000202061A06AFEF7C1F83146FEF737F83B
:1021B000E168FEF734F80099FDF7D8FF6060206908
:1021C000002801D0082108E037480068002806D020
:1021D00036480068002804D00F2135482DE00C2136
:1021E00013E06069002812D0E069002802D1FFF7EF
:1021F000DDFBE061FFF7DAFBE169411A2C4881421F
:1022000002D900206061E0610821184815E0A0694A
:10221000002815D0E069002802D1FFF7C7FBE06174
:10222000FFF7C4FBE169411A2148814204D9A16941
:10223000491EA1610021E1610321FFF7E9FD0AE0E8
:102240000B48807A002803D0FF20FFF707FE02E04A
:10225000FF20FFF7F1FDFEF7B7FE7D24E400FFF756
:10226000A5FB401BA042FAD3C9E60000A0860100EE
:102270001C0200201000002090010020BD37863590
:102280000AD7A33C492E7F3F0C00002029EA7F3F5C
:102290000000A03FCDCCCC3D42F27C3F67B17F3FF8
:1022A00000006040CDCC2C406C0000207800002065
:1022B00020A1070010B506490868002807D00020B3
:1022C0000860091D08710920C006FEF700FA10BD5C
:1022D000A801002070B503468C00044D044A601923
:1022E0001946FFF7E0FD285970BD0000DC01002011
:1022F0003333333F70B504467F20C005844201DD8F
:10230000044604E00120C007844200D900240949A2
:102310002046FDF784FF054621460846FDF77FFF6E
:102320000549FDF77CFF2946FDF720FF0349FDF72E
:102330001DFF70BD7593583F7593183E0AD7A33B98
:1023400005490868022804D001DA02200860401C10
:1023500070470020FAE70000480100200C49486857
:10236000002804D0012807D002280AD10BE0084831
:102370001C308860012003E0054828308860022076
:102380004860401C70470248103088600020F7E722
:102390004801002010B50649087A401C8007800FCC
:1023A00088602831095C252000F042FD10BD000046
:1023B0006800002010B5416800788007800DFF3864
:1023C000FF3802380818FDF7B1FF0821C943FDF7AF
:1023D000A1FF10BDF1B54D4886B0016806984C4F7D
:1023E0004C4E8400002904D038594B49FDF717FFA3
:1023F00038514A480025015945480C300059FDF72D
:10240000C1FF03D13059002800DD012543480121D7
:102410000059C90748403E490C310959FDF7B2FF40
:1024200004D131590120C007814227D8002D25D180
:1024300037480221183000590090FDF76BFF3449EE
:102440003C310959FDF792FE35592946FDF78EFEBC
:102450003349FDF7E4FE33490959FDF7E0FE3249FF
:102460000968FDF7DCFE3959FDF780FE284938512F
:102470003C310098085108462438055127480C3053
:102480000159E019FFF7FCFC26480C380159305976
:10249000FDF7C5FE1E4E39590C36FDF767FE30516B
:1024A000049020480C3000590390002826DD06983F
:1024B0003746C5001837E819019000214068C94324
:1024C000FDF728FF0290194800210059C9430090E8
:1024D000FDF720FF0299FDF79AFE0399FDF79FFE95
:1024E00010491C39C968FDF79AFE0499FDF793FE5F
:1024F0003051019879594160009878510748015945
:10250000A019FFF7BDFC305907B0F0BD0000002056
:10251000C8030020C001002048E17A3F8C2E00084B
:102520007EAA2A3E640100204000002058030020BB
:1025300010B5044801680448FDF7AEFE0349C860C1
:1025400010BD00004000002017B7513B480100209B
:10255000FEB5022569460D710320487100248C7177
:10256000CC7101212846FEF737F9314F3148394601
:10257000FFF701FC01210E023046FEF72DF9394626
:102580002D4F3846FFF7F7FB2C48602101800121D1
:10259000418084810682846010200924E406009032
:1025A00069462046FEF793F8042211462046FEF7BE
:1025B000C6F822493846FEF79FF940200090694648
:1025C0002046FEF784F8012206212046FEF7B7F8E0
:1025D0001A491848FEF790F9802000906946204675
:1025E000FEF775F8012207212046FEF7A8F81349E7
:1025F0001048FEF7BFF9124C694620460095FEF7D9
:1026000066F8012211462046FEF799F80B49094861
:10261000FEF7F8F901210748FEF758F901210548AE
:10262000FEF75EF901213846FEF750F9FEBD0000C5
:10263000CF070000000400400020004010040020EC
:102640000004004810B50A46044612491046FDF73A
:10265000E6FDFDF77DFE002801DA002003E00E49CB
:10266000884200DD0846002C09D0012C0CD00B4913
:10267000022C0CD0032C01D180B2886310BD074915
:1026800080B24031086010BD80B2054900E080B2E0
:10269000486310BD00E0F944CF070000000400408B
:1026A000002000407047000010B5264801218172CB
:1026B0000022C27201710221234800F051FB642004
:1026C000FEF753FF20480621483000F049FB002167
:1026D000012000F0ADFB0121022000F0A9FB39210F
:1026E000062000F0A5FB0F21112000F0A1FB002126
:1026F000042000F09DFB0321084600F099FBE22036
:1027000000F050FB0021052000F092FB38211D2035
:1027100000F08EFB00F000FAFD2000F041FA0020EE
:1027200000F03EFA00F0F2F98F21002000F080FB6B
:102730000F2000F058FBC62802D00320FEF720FF30
:1027400010BD00001C020020680000200120400293
:102750000921C9068861024901208860704700008C
:1027600094010020012040020921C9068861034923
:10277000088103490020886070470000200000485D
:1027800094010020012003494002088102490020F1
:1027900088607047200000489401002010B5074C65
:1027A0002068002801D100F077F80120800209217B
:1027B000C90688610120606010BD000094010020FE
:1027C00010B5064C2068002801D100F065F8012002
:1027D0000349800208810020606010BD9401002040
:1027E0002000004870B590B000206C468100605019
:1027F000401C0F28FADB852000902248224D0668F5
:102800002248019629460068FDF709FDFDF7A0FD65
:102810000104C0B2090E049003911D4829460068C6
:10282000FDF7FDFCFDF794FD0104090EC0B2194D42
:1028300005910690286BC10F08184010FF2800DD95
:10284000FF200790002E03D003980821084303902F
:10285000002108468200A258401C51180E28F9DBBE
:10286000E1200E9100F09EFA8221002000F0E0FAB3
:102870000F21684600F0C8FAFFF798F8686310B0B7
:1028800070BD0000200000200000C84210000020A1
:10289000140000206800002010B5054901200860E0
:1028A0000C3108710920C006FDF711FF10BD0000B2
:1028B0009401002010B57520FFF78FF9682807D024
:1028C000982805D07D2803D0722801D0002010BDA3
:1028D000012010BD10B580216B20FFF784F912484C
:1028E000FEF743FE01216B20FFF77DF97520FFF70E
:1028F00074F9682801D0012400E000246420FEF768
:1029000034FE18211C20FFF76EF9002C03D005219E
:102910001D20FFF768F918211B20FFF764F9032138
:102920001A20FFF760F910BD409C0000F0B593B08D
:102930000E2269463B20FFF747F9029803990002EF
:10294000401800B2FDF7F2FC2E4C2060009801996F
:102950000002401800B24042FDF7E8FC60600498B5
:1029600005990002401800B2FDF7E0FCA06008984D
:1029700009990002401800B2FDF7D8FC11900A989E
:102980000B990002401800B2FDF7D0FC10900C9893
:102990000D990002401800B2FDF7C8FC12902434D3
:1029A00021681098FDF733FC109061681198FDF7CD
:1029B0002EFC1190A1681298FDF729FC12900120BD
:1029C000109AC0071199424010911146414011914F
:1029D00012990C4F4140002410AE0C371291A50003
:1029E00070590949FDF71BFC0849FDF718FC7051A7
:1029F0002146FFF793FA641C7851032CEFDB13B0E8
:102A0000F0BD00004C03002000007A3D35FA8E3CFA
:102A1000FEB50120400200900124684604718471D3
:102A2000C471032509274571FF0669463846FDF73D
:102A30004EFEA602694638460096FDF748FE084855
:102A40000021066001718471C47145710C384160C8
:102A500004608160FFF7A2FEFFF778FEFEBD000074
:102A6000A001002070B50D460446FEF7FDF8600099
:102A70000446FEF7D5F82846FEF7D2F8FEF7C2F86E
:102A8000601CFEF7CDF80120FEF782F8C4B2FEF715
:102A9000FDF8204670BDFFB581B01D4616460746BD
:102AA0000024FEF7E1F878000746FEF7B9F802982F
:102AB000FEF7B6F8FEF7A6F8781CFEF7B1F86D1E23
:102AC00005E00020FEF764F8A1007050641CAC42E1
:102AD000F7DB0120FEF75CF8A1007050FEF7D6F896
:102AE00005B0F0BD70B515460E460446FEF7BCF8BD
:102AF0006000FEF795F83046FEF792F82846FEF79C
:102B00008FF8C4B2FEF7C2F8204670BD014901201B
:102B1000886170470014004801490120088170470E
:102B200020140048FEB50124684604710025857113
:102B3000C4710326467102200B4F00906946384647
:102B4000FDF7C5FD694638460094FDF7C0FD07480E
:102B5000046005718571C471467101460920C00683
:102B6000FDF7B5FDBC61FEBD00140048AC010020BE
:102B700070B4002007210223074C0925074EED06FB
:102B8000A3614200288A3381C007C00F1043491E49
:102B9000F6D570BC704700000014004820140048AF
:102BA000F8B504460F4809260168F60601250029F4
:102BB00006D105600C48057101463046FDF787FDDA
:102BC00007210A4B0A4F022022460A41D20701D0B0
:102BD000B56100E01D81B861064A1081491EF3D538
:102BE000F8BD0000A8010020AC0100202000004832
:102BF0000014004820140048F8B5474D0446016809
:102C00002868FDF7BFFB04D161686868FDF7BAFB6F
:102C100055D0206828606068404E68603146606822
:102C2000FDF7FDFA3E4F3946FDF7F9FA0546314604
:102C30002068FDF7F4FA3946FDF7F1FA0646FEF78B
:102C4000CBFC354C083420602846FEF7C5FC60609C
:102C50002846FEF7B7FC05463046FEF7B3FC29468A
:102C6000FDF7DDFA0646A06060680146FDF7D7FA79
:102C7000054620680146FDF7D2FA2946FDF776FAA7
:102C80002849054688420FDD31460846FDF7C7FA58
:102C90007F21C905FDF7BFFA01462846FDF7FCFA7A
:102CA000FDF764FD054600E01F4D20682946FDF74D
:102CB000B6FA206029466068FDF7B1FA6060164CEC
:102CC0001A4E0834A068009070680099FDF7A7FAC2
:102CD000B768054661683846FDF7A1FA2946FDF751
:102CE00096FA134D686030680099FDF798FA064629
:102CF00038462168FDF793FA3146FDF788FA7F24BC
:102D0000E405286021462846FFF7BAF82146281D29
:102D1000FFF7B6F8F8BD0000D000002000008C429C
:102D200035FA8E3C6F12833AF4FD343FE400002004
:102D30007C03002010B50848064941610749CA696B
:102D400003231202120A44042243CA610021816152
:102D5000036110BD7F8D5B0000E000E004ED00E04A
:102D600070B50D460646FFF7D7FE002404E0305D3F
:102D7000FFF716FF641CE4B2AC42F8D3FFF7C6FEBF
:102D800070BD0000064A10B580008018FDF758FCA1
:102D9000042804D0FDF74CFC0520FEF7F1FB10BD24
:102DA000007C000810B50446FFF7B6FE2046FFF78A
:102DB000F7FEFFF7ABFE002010BD70B50D460646CE
:102DC0000024FFF7A9FE6120FFF7EAFEFFF772FA81
:102DD00004E0FFF7CDFEA1007050641CAC42F8DBAC
:102DE000FFF794FE70BD10B5C406E40EFFF794FE25
:102DF0002046FFF7D5FEFFF75DFAFFF7B9FE044660
:102E0000FFF784FE204610BD70B50D46064600242F
:102E1000FFF782FEA020FFF7C3FE04E0A0003058B9
:102E2000FFF7BEFE641CAC42F8DBFFF76FFE70BD1F
:102E300070B58406A40E20200D460443FFF76CFEF7
:102E40002046FFF7ADFE2846FFF7AAFEFFF75EFE1D
:102E500070BD0C0100010003000C02000200030021
:102E60000C0300030003000C0400030004000C0426
:102E700000030003000C0400030002000C04000324
:102E8000000100002A00000000000000CDCC4C3FF3
:102E9000CDCC4C3F0000003FCDCC4C3FCDCC4C3F87
:102EA0000000003FC82E000800000020C001000004
:102EB000540400082C2F0008C00100206806000000
:102EC0005C0B0008A9DCFFFF32012904C1256666FE
:102ED000864043803F09141C61C91C031C20C1EAC1
:102EE0003949F10326B80B021F2AA0097B1452416D
:102EF00085EB414149C809100C011D99287AE0F081
:102F000001241358013A20D02C1E053E0438089A9B
:102F100099193F0AD7A30428099A99993ECDCC0C58
:0C2F20003F04692C1A64045A7034013418
:04000005080000C926
:00000001FF
