:020000040800F2
:1000000030080020C9000008EF000008670700085A
:1000100000000000000000000000000000000000E0
:10002000000000000000000000000000F3000008D5
:100030000000000000000000F5000008690800084A
:10004000F9000008F9000008F9000008F9000008AC
:10005000F9000008F9000008F9000008F90000089C
:1000600000000000F9000008F9000008F90000088D
:10007000F9000008F9000008F9000008F90000087C
:10008000F90000080000000000000000F90000086E
:1000900000000000F9000008F9000008F90000085D
:1000A00000000000F900000800000000F90000084E
:1000B0000448854600F0BCF900F048F800480047C5
:1000C000E91E0008300800200C4880F308880C481E
:1000D0000168090E0B4A914205D10B480B4901609A
:1000E0000B480C4901600C4880470C480047FEE76C
:1000F000FEE7FEE7FEE7FEE7FEE70000300800202F
:10010000040000001F000000181002400100000061
:1001100000000140000000006D080008B100000868
:1001200030B50B46014600202022012409E00D468F
:10013000D5409D4205D31D469540491B2546954017
:1001400040191546521E002DF1DC30BD70B5054C2E
:10015000054D03E0206800198047241DAC42F9D109
:1001600070BD0000F82E0008FC2E0008F8B502460D
:100170004A40D40F42004B0052085B089A4202D218
:100180000246084611464A0023D0C30D4A00DDB29C
:10019000120EAD1A202D35DA49020126490AF6055C
:1001A0008A19002C00D0524220214F1B1146B94021
:1001B0002A411018C20D9A4221D0002C17D0012DCF
:1001C00008DCDA05801AD20F8019D207DBB200F002
:1001D000F5F8F8BDDA05801A012340001B06C018A7
:1001E00080185A428018CA0F1043490007E0490896
:1001F000C2071143DA05801A80194008801800F000
:10020000D5F8F8BD61000122511A001BF7E7012261
:10021000D2075140AAE70122D2075040A6E7024682
:1002200070B54A40D30FDB0740002DD04A002AD0DA
:10023000010E140E000212020919400A520A841813
:10024000E50104465443000A120A2E045043A4193F
:100250004219200CC543AA18120C0125AD03521CEB
:10026000521912047F39240400D0521C104301D4C7
:100270004000491EC2B20C06C0092018401C4008AC
:10028000802A02D003E0002070BD40084000002911
:1002900000DA0020184370BD70B502464A40D50F01
:1002A00040004A00ED0740085208002814D0002AF8
:1002B00012D0C40DD30D41020120C0055202490ADB
:1002C000520AE41A091812187D34914201D3641CB1
:1002D00000E04900002C01DA002070BD00239142AB
:1002E00001D3891A0343400849000028F7D10029A7
:1002F0000AD0914202D10121C90705E0914201D201
:10030000012101E00121C943E005C018401900F0B6
:100310004DF870BD420005D04200120E52428A4292
:1003200001DB00207047C90508187047C217C10FCC
:10033000504010B54018CA079623002100F03EF83F
:1003400010BD10B500229623114600F037F810BDFD
:10035000C20F410040020123400ADB05D207090E0B
:10036000C0187F2901DA00207047962903DC962304
:10037000591AC84001E096398840002AF4D040421A
:10038000704700000122D207002800DB101A002964
:1003900000DB511A814270470122D207002800DB9E
:1003A000101A002900DB511A88427047002904DA2C
:1003B000401C490001D140084000704770B400243F
:1003C000050C05D11024000402D1002921D01124EC
:1003D000050E01D100020834050F01D10001241DD2
:1003E000850F01D18000A41C002801DB4000641CA3
:1003F000002908D020252E1B0D46F540A14000D035
:1004000001212943084301061B1B000ADB1D02D5FD
:10041000002070BC7047DB05181880180029F8DA36
:10042000401C4900F5D170BC4008400070470000F6
:10043000064C0125064E05E0E36807CC2B430C3C37
:1004400098471034B442F7D3FFF736FED82E000891
:10045000F82E000870B58C180578401C6B075B0FF0
:1004600001D10378401C2A1106D10278401C03E018
:1004700006780E70401C491C5B1EF9D12B0705D471
:100480000023521E0DD40B70491CFAE70378401C60
:10049000CB1A921C03E01D780D70491C5B1C521E88
:1004A000F9D5A142D8D3002070BD836A0B43836283
:1004B000426170470029816801D0012200E00222D8
:1004C0001143816070470029C16802D001221143A5
:1004D00001E049084900C1607047C26802239A439D
:1004E000C260C2680A43C26070478268002101236B
:1004F000DB071A4382600F231B038268491CD20F5B
:10050000D207994201D0002AF7D18168002901DB86
:10051000006C70470020704730B5C268084B8C688B
:100520001A400B680D792343CC686D032C43234399
:100530000C69496923430B431343C36030BD00007A
:1005400003D2FFFF816804221143816070470021BC
:10055000016001718160C16001614161704700000B
:100560000122054992050028886801D0104300E067
:10057000904388607047000000270140002901680F
:1005800002D00122114301E0014A1140016070478D
:10059000FEFF000030B503680C4A0C6A13408A68FD
:1005A0004D6922430C692C4322438C692243CC6958
:1005B00022434C6A22438C6A22431A430260CA686F
:1005C00042600A6882604968C16030BD0F80FFFFE9
:1005D000F0B50B2706463F04384600F067F80428BC
:1005E0000FD1084C206902252843206166612069EB
:1005F000402108432061384600F058F82169A9439A
:100600002161F0BD0020024008490420CA68D207D9
:1006100001D001207047CA68D20601D50220704778
:10062000C9684907FBD5032070470000002002403D
:100630000248016980221143016170470020024095
:10064000F8B5064600200B273F0400900D463846BB
:1006500000F02CF8042815D10B4C20690121084327
:1006600020613580384600F021F8042806D1B61CF8
:10067000290C00963180384600F018F821694908A5
:1006800049002161F8BD00000020024004480169D2
:10069000090603D5034941600349416070470000E2
:1006A0000020024023016745AB89EFCD00B503462A
:1006B000FFF7AAFF02E0FFF7A7FF5B1E012803D0A8
:1006C000002B00D1052000BD002BF4D1FAE7F0B5D6
:1006D0000022032501230C6893401C409C422AD130
:1006E0000C79012C01D0022C12D1876854002E46BF
:1006F000A640B74387604E79A6408468264386604B
:1007000084889C43848084888B7993401C438480B4
:10071000066853002C469C40A64306600E79076885
:100720009E403E430660C668A643C660CC799C40A6
:10073000C3681C43C460521C102ACBD3F0BD4B07C6
:10074000DB0E9A40C90810B589000818016A0F2409
:100750009C40A1430162016A1143016210BD018501
:10076000704781617047052000F0EAFE70B5FF25F3
:1007700000210446AD05C943FFF7CCFD06460F49ED
:1007800060100C1A21463046FFF749FD2146FFF75D
:1007900046FD2946FFF73FFD2146FFF740FD044691
:1007A00001463046FFF73BFD2146FFF738FD29465D
:1007B000FFF731FD2146FFF732FD70BDDF59375F8E
:1007C000044A0029516901D0014300E0814351618D
:1007D0007047000000100240044A0029D16901D08E
:1007E000014300E08143D1617047000000100240E6
:1007F000044A0029916901D0014300E081439161DD
:1008000070470000001002400CB5002000900190DD
:1008100013491120086013484168416041684160F4
:1008200041687B22D2039143416041680522D20492
:100830001143416001680122120611430160016801
:100840008901FCD54168890889004160416802221C
:100850001143416041680907890F0229FAD10CBD93
:1008600000200240001002407047000010B51448FC
:1008700001680122114301604168124A1140416040
:100880000168114A114001600168012292049143FC
:10089000016041683F22120491434160C16A090925
:1008A0000901C162016BFF22543291430163416B24
:1008B00049084900416300218160FFF7A5FF10BD91
:1008C000001002400CB8FF08FFFFF6FE0029018867
:1008D00002D00122114301E049084900018070471C
:1008E00040300029818803D00122D203114301E066
:1008F0004904490C8180704770B5028C520852003F
:100900000284048C8288038B7025AB439B080D887E
:100910009B001D4302239C438E894B882643104C29
:100920003343A04208D00F4CA04205D00E4CA04249
:1009300002D00E4CA0420DD10824A343CC891C4305
:1009400004239C438B882343094C22400C8A144384
:100950004A8A22438280058389684163038470BD8B
:10096000002C01400040014000440140004801408B
:10097000FFFC000070B5028C10239A430284048CA3
:100980008288038B1A4D2B400D782D062D0C1D43AC
:1009900020239C438B891B051E0C4B8826431B057B
:1009A0001B0C144C3343A04202D0134EB04219D159
:1009B000124E32400E8AB604360C3243A04211D198
:1009C0008024A343CC892405240C1C4340239C434E
:1009D0008B881B051B0C2343094C22404C8AA40422
:1009E000240C22438280058389688163038470BD5F
:1009F000FF8C0000002C014000400140FFFB000084
:100A0000FFF7000030B5028C124B1A400284058CAF
:100A10008288838B104C23400C782406240C1C43C2
:100A20000E4B1D400B7B1B071B0C2B438D782D079A
:100A30002D0C1D430A4B984205D10A4B13400A8ADC
:100A40009205120C1A4382808483896801640584AC
:100A500030BD0000FFEF0000FF8C0000FFDF000052
:100A6000002C0140FFBF000010B50288144B9842D3
:100A700006D00124A407A04202D0124CA04203D108
:100A80007024A2434C8822430F4CA04203D00F4C49
:100A900022400C89224302804A68C2620A88028589
:100AA000984208D00A4A904205D00A4A904202D0A1
:100AB000094A904201D1897A01860121818210BDC3
:100AC000002C01400004004000100040FFFC00002A
:100AD0000040014000440140004801400021016005
:100AE00041607047FFB581B01C4617460E0007D025
:100AF000019D02E02846B047ED192046641EF9D258
:100B0000019805B0F0BD02E008C8121F08C1002A14
:100B1000FAD170477047002001E001C1121F002A7E
:100B2000FBD1704710B503230C2204490448FFF79A
:100B3000D9FF04480021016010BD0000DD0A000853
:100B4000800300201401002070B5174D0646686828
:100B50000024002801D101F023FE2868002801D1DB
:100B600001F09CFE0722012301F0F2FD00F01EF8C7
:100B7000002803D0184690402043C4B201F004FE80
:100B8000521EF1D5002E02D001F00AFE01E001F064
:100B900019FE01F0DDFD01F0F7FD6868002801D0C5
:100BA00001F010FE204670BD900100200920C00613
:100BB000008A0121890208407047000010B50548ED
:100BC0004068002801D101F0EBFD01F0C1FD01F00A
:100BD000F9FD10BD9001002070B5104E0546B068BB
:100BE000012801D101F0D0FD072428462041C0078B
:100BF00002D001F0D5FD01E001F0E4FD01F0B4FD0B
:100C0000641EF2D57068002801D101F0C9FD01F021
:100C10009FFD01F0B9FD384670BD00009001002035
:100C200010B5074A9068002801D101F091FD506885
:100C3000012803D1FFF7BAFF01F0C4FD10BD000089
:100C40009001002010B5084C6068012804D1A0680C
:100C5000002806D101F0B6FDA068002801D101F0FE
:100C600077FD01F09DFD10BD90010020F8B5154EF7
:100C70004520000637460025183FB06001F058FEB9
:100C80000024A000395880190F4A01F0D0F8641CE4
:100C9000032CF6DB00F06AFEFF20F5306D1C854268
:100CA000ECDB45210906B068FFF7B1FA074D0024D7
:100CB000B060A0008019294601F0A6F8641C032C3E
:100CC000F7DBF8BD4C0300201F856B3F0000FA43A3
:100CD00070B592B020250320694606950877002458
:100CE000CC77092006A9C006FFF7F1FC01214802D4
:100CF000FFF77EFD01210846FFF762FD2A480690B6
:100D00002A4807900220099080200B9040000C9008
:100D1000089480000E950D900A94C000244D0F9009
:100D200006A910942846FFF735FC1F4E0221403ECD
:100D30003046FFF7D2FB01213046FFF7C4FB68467F
:100D4000FFF705FC01206946009408710420059016
:100D5000029404943046FFF7DFFB01210722490487
:100D60003046FFF7A2FB072220213046FFF79DFB0C
:100D70000120FFF7F5FB3046FFF7B7FB01213046B6
:100D8000FFF798FB3046FFF7DDFB01212846FFF710
:100D9000F5FB08480088FFF7D4FA0749FFF73FFA48
:100DA0000249486012B070BD402401408401002017
:100DB00008000240BAF7FF1F62DB963F10B50B49EF
:100DC000002803D0012808D0002010BD0888FFF7B4
:100DD000B8FA0749FFF723FA10BD4888FFF7B1FAC0
:100DE000014602484068FFF757FA10BD8401002011
:100DF0003FC8B23AF8B58400134813491830075970
:100E000009683846FFF70BFA0F4D0646103528469D
:100E1000103001593846FFF7FAF9294608390968B0
:100E2000FFF7FDF909490968FFF7F9F93146FFF7BE
:100E3000F2F928512846103007516019044900F092
:100E4000E3FF2859F8BD00001C01002050010020DC
:100E50000000B44370B5184C606A002804D0002527
:100E6000012809D0656270BD0120E06001F0BCFC82
:100E7000606A401C606270BD172001F0CEFFC006A2
:100E800008D58F21002001F0EDFF6562E56001F0DB
:100E90006FFA70BD00F06AFD616B401A0749884225
:100EA000F7D9E12001F098FF8F21002001F0DAFF4F
:100EB0006562E56070BD000068000020102700003A
:100EC00070B5002506462C46A00030580146FFF7B5
:100ED000A6F92946FFF74AF9641CE4B20546032C3B
:100EE000F2D3FFF743FC01467F20C005FFF7D4F99A
:100EF00070BD0000F8B5164F0C227968134E5143AF
:100F0000144A8A1839688C001159002802D0124EF0
:100F1000491C00E0491E1151BD6831462859FFF7B0
:100F20007EF928513C68002C04D131466868FFF7EF
:100F300076F9686078680C21484306494018A1009A
:100F40004058002800DA4042F8BD00002EBA683F41
:100F500044010020B0030020CDCC8C3F30B50022EE
:100F600007239C1A6418203C855CE47FA54201D0CD
:100F7000002030BD521C072AF3DB012030BD0000E9
:100F8000FEB5072001F049FF0007400F00250728A4
:100F900001D0022000E028460126584C002859D0F4
:100FA000606800281DD000F0E1FC07460F2154487E
:100FB00001F01DFF00F04CFA00284BD0E06A401C05
:100FC000E062E069002801D0FFF744FF6561A56198
:100FD000A068A763E76325616064E068002837D0F4
:100FE0003BE00F21464801F002FF454B1868A4285A
:100FF00001D0A3282ED1A32802D14248E661206265
:101000003E4F187E28373870187F7870188CB8706B
:10101000988CF8703C486A4603C800900191012002
:101020008100595C1154401C0628F9DB062110464A
:1010300001F0B0FE3020694608700621684601F0D4
:10104000A9FEA068395C252001F00CFF666001E074
:1010500001F08EF9E068002801D0FFF7FBFE00F0F8
:1010600085FC0746A06B391A206A82007D20C000EB
:10107000101881420BD96068002808D0A763A069C6
:10108000002801D1606CA06001F072F9A661E168EE
:10109000A069084319D160690090052815D26068DD
:1010A000002812D0A06B7D21381AC90088420CD9C3
:1010B000216AFFF735F801460098401C814204D3AD
:1010C00001F056F96069401C6061E06B381A0F4FFF
:1010D000B84205D90E482661056045608560C56047
:1010E00000F044FC216C401AB84205D9E06AE56280
:1010F000206300F03BFC2064FEBD0000680000207F
:10110000F802002088130000B82E000840420F00AB
:10111000D0020020F0B5B7487F264078F60585B0AC
:10112000002801D13F2636060024B348A5004059C7
:101130003146FFF774F8B149641C4851032CF4DBC5
:10114000AF4D01272868002600283DD000F08CFB19
:10115000040039D0012C11D0AA49042C1FD0032C33
:1011600021D0072C00DBAF600020052C1FD0062CFF
:1011700020D0072C21D0082C22D023E000F016FC30
:10118000A868002802D1FFF771FDAE6000F0ACFA4C
:1011900000F068FA00F0EAFB9B490860E4E7954834
:1011A00007710F60E0E793480F600671DCE701F01C
:1011B000C3F807E001F0B2F804E000F09BFD01E0A5
:1011C00000F0AEF99149086001F0B4F9894800795E
:1011D000002803D08E48006800282AD087488D490F
:1011E0000068FFF71CF88C49FFF719F88B4C216851
:1011F000FFF70DF881490C3908608048854940683F
:10120000FFF70DF88449FFF70AF86168FEF7FFFF62
:101210007A490C39486079487E498068FEF7FFFFBB
:101220007D49FEF7FCFFA168FEF7F1FF73490C3919
:101230008860002001F0BCF8012001F0B9F802201C
:1012400001F0B6F86C487649C068884201DA00249B
:1012500005E0FEF7DCFF7349FEF7E1FF0446724844
:101260000068002802D17148844219DA68680028B1
:1012700007D000F07BFB6968401A6D49884200D9AD
:101280006E600024E0B2002101F0DEF9214600206A
:1012900000F0F8FF641C032CF4DD2F60EE6062E0C8
:1012A000574D0020286000F061FB686061480068CD
:1012B000002801D06048C468604D20462F68394638
:1012C000FEF7A5FF04906E683146FEF7A0FFAD68FB
:1012D0002946FEF74BFF039039462046FEF746FFAE
:1012E00004463146FEF793FF2946FEF790FF019032
:1012F00031460498FEF73AFF2946FEF788FF029030
:1013000020463146FEF732FF2946FEF72FFF0090B8
:1013100000203B4F04466E46F860A50070592146F8
:1013200000F0B0FF705100F0D3FF0146E0B201F0D1
:101330008BF970590121C907884202D900207051E8
:1013400004E07F21C905884200DD71517159F868B8
:10135000FEF70CFF641CF860032CDEDD0121C9439D
:10136000FEF7D8FFF86023480079002840D02848CD
:10137000006800283CD101F041FC204825498068E4
:10138000FEF74DFF2449FEF74AFF05462C4C29463F
:101390006068FEF744FF009001212068C9074840BB
:1013A0002946FEF73CFF01902946A068FEF737FF6B
:1013B000124F0025194E0C3F02902248AC000159F3
:1013C0002148224A201800F032FD2846FFF712FD7E
:1013D00069460959FEF7CAFE3159FEF718FF6D1C20
:1013E0003851012DE9DDB1680298FEF710FFB860B1
:1013F00005B0F0BD04020020D0020020C40100208E
:1014000000000020240000204400002028000020CC
:10141000F00000200000B44335FA8E3C4003002069
:10142000CDCCCC3DE4388E3F780000206F12833A5B
:1014300040420F00F800002070030020E00300206D
:10144000E400002064030020340100203333733FA4
:10145000F8B52D4C2068A52853D1002108468200FC
:10146000A258401C51180E28F9DBC8B2A16B884263
:1014700047D12548103000F08BFF244D28602248CA
:10148000183000F085FF68601F48283000F080FFAA
:10149000A860208C616A8007800D4018FEF746FF27
:1014A0001B49FEF7BCFEE860207B1A4D0006C00F0A
:1014B000A871A068C106C90FE9718106C90F297218
:1014C0000107C90F29706168FA2918D000216970D5
:1014D0008107C90FC007A970C00FE87000200E4B2C
:1014E0000E4C074601261F54225C295C8A4200D01C
:1014F0001E542154401C0A28F5DB0120F8BD0121AF
:10150000E5E70020F8BD0000F8020020D00200202E
:10151000F7FF7F3A04020020EC020020E0020020E6
:1015200010B50020FFF7E6FC10BD08B5810040189B
:101530000090411E009101D30846FAE708BD000063
:1015400006460024E0B2002101F07EF8641C032C62
:10155000F8DD0B4DAF0000240CE0FF2000F042FC52
:101560002846FFF7E2FFFF2000F02AFC2846FFF79D
:10157000DCFF641CB442F0DB3846FFF7D6FFEAE735
:10158000400D030010B50349FEF7F0FD00F004F82C
:1015900010BD0000DB0FC93F70B50446134E144D5B
:1015A00003E03146FEF7E2FD0446AC42F9D8114DA6
:1015B000AC4204DD3146FEF72AFE0446F8E701207E
:1015C000C0070D490D4D8442204605D9FEF727FE80
:1015D0002946FEF7CBFD04E0FEF721FE2946FEF783
:1015E0001AFE2146FEF71BFE70BD0000DB0FC9404E
:1015F000DB0F49C0DB0F49407B81CF3E83F9A23F1F
:10160000FEB500273D460024681CFEF78FFE0190C2
:101610000E49A8000E58601CFEF788FE0090A1003D
:1016200071580198FEF7FBFD0099FEF7F8FD084997
:10163000FEF7F5FD3946FEF799FD641C0746032CBD
:10164000E9DB6D1C032DDEDBFEBD00007801002010
:101650008D976E3F10B5FFF7D3FF0149086010BDAD
:1016600048000020F8B50020012400F08FF81A4D42
:10167000A84230D1FF2000F089F8A8422BD12046A3
:10168000022500F08BF8154948600968FEF77AFEDC
:1016900011D100260024B70028466D1C00F07EF80A
:1016A0000F49A200C959641C8850032CF4DB761C36
:1016B000032EEFDB00E00B2528466D1C00F06EF8D2
:1016C000084C206028466D1C00F068F860602846D1
:1016D00000F064F8A060F8BD0100AA1248000020E4
:1016E000780100204C030020F8B500F05BF800F012
:1016F0003BF800200124184901F05EFB1749204601
:101700000225096800F052F800260024B7001448AA
:10171000A100C059415828466D1C00F047F8641CD0
:10172000032CF4DB761C032EEFDB0E4C28466D1CDD
:10173000216800F03BF86E1C2846616800F036F81E
:101740003046A16800F032F80349FF2001F034FB75
:1017500000F018F8F8BD00000100AA1248000020AF
:10176000780100204C03002010B50548FEF730FF3B
:10177000042803D0FEF75CFF012010BD002010BD3F
:10178000003C000810B5FEF753FF10BD0249800071
:101790004018006870470000003C000800B5FFF7E3
:1017A000F5FF00BD10B5FEF771FF10BD10B501F0DB
:1017B00003FB10BD30B52A4C217881424ED0072161
:1017C0006218203AD27F6254491E0129F8DA20704B
:1017D00024492348FFF7C2FB7F25002802D065700B
:1017E000032030BD1F491E48C91DFFF7B7FB002865
:1017F00002D06570042030BD1A4919480E31FFF738
:10180000ADFB002802D06570012030BD1549144899
:101810001531FFF7A3FB002802D06570052030BD0D
:1018200010490F481C31FFF799FB002802D0657062
:10183000062030BD0B490A482331FFF78FFB0028F3
:1018400002D06570072030BD064905482A31FFF7F0
:1018500085FB002802D06570082030BD002030BD17
:1018600060000020862E000870B53748374C0068AD
:10187000002864D0364B37481A6851004908814225
:101880000BDA9D686D006D08854206DA5D686D00B3
:101890006D08854201DA00202FE02F4DAA4202D8C0
:1018A0009E68AE4206D95E6876007608864201DA06
:1018B000012022E0294EB24202DC9A68B24206DDE3
:1018C0005A6852005208824201DA022015E05A6832
:1018D000AA4208D9814206DA9D686D006D088542EA
:1018E00001DA032009E0B24208DD814206DA996894
:1018F00049004908814201DA0420206000F036F8EE
:1019000006CC083C914200D0E060E268801A144A9C
:1019100090420FD9002904D1124A904201D90C20DB
:1019200005E0114A904204D97F2903D0FF20A0602E
:1019300000E0A1606160A068FFF73CFF70BD7F2000
:10194000A0606060002070BD0000002050000020FA
:10195000D0020020CDCC4C3E333333BF3333333F42
:10196000A086010040420F0020A1070010B501F041
:10197000F9F910BD1CB5232001214004FEF720FF1A
:1019800001206946087100208871C87103204871E0
:1019900004200924E40600902046FEF798FE082162
:1019A000009169462046FEF792FE1CBDF0B591B04D
:1019B000FFF7DCFF0F9005460B900A900020810096
:1019C000574B0CAA5B58401C53500328F7DB8CE0A4
:1019D0000A980A95281A099001D101200990062237
:1019E0006946432000F0B4F80098019900024018BD
:1019F00000B2FEF79BFC0790029803990002401882
:101A000000B2FEF793FC0690049805990002401876
:101A100000B2FEF78BFC434E0890307800F07CF962
:101A200020464149FEF77CFB4048814201D9012113
:101A300000E000213068C207D20F914201D0401C63
:101A40003060384801780907090F00260160B400AA
:101A50000CAF06A839590059FEF79EFC04D238593C
:101A60003349FEF783FB385106A839590059FEF770
:101A700089FC04D238592E49FEF7C9FB3851E019C8
:101A80002C4900F0C1F938592B4940004008FEF7B5
:101A90006DFB014606AF385940004008FEF77CFC5C
:101AA00006D2FFF763FF0B901E48012101600BE097
:101AB0000998FEF746FC214900F0CFF90246184884
:101AC0003959201800F0B3F9761C032EBFDB7D24B2
:101AD000E400FFF74BFF401BA04203D20A20FFF7B0
:101AE00024FDF6E7FFF742FF05460B982C1A144831
:101AF000844205D20F981349281A884200D267E71A
:101B00000B98291A0E48814207D20020044A014648
:101B10008300401CD1500328FADB11B0F0BD000057
:101B200058030020CC00002024F40000127A0000AA
:101B3000CDCCCC3D000048440000C8420024F4480D
:101B400080841E00C0E1E40010B500F063FF10BD0A
:101B500013460A4610B50146682000F09EFF01209A
:101B600010BD10B50146682000F07EFF10BD0A468A
:101B700010B50146682000F0B7FF10BDF0B5444C29
:101B8000444D87B021682868FEF741FB28606168F2
:101B90006868FEF73CFB00240A27FF436860A60044
:101BA000A8593946FEF7B6FB641CA851032CF6DB96
:101BB00039480024006804AF00903848A6008059D6
:101BC0000099FEF72CFB641CB851032CF5DB344E56
:101BD000049834682146FEF722FBB168FEF71BFB30
:101BE000019001990498FEF71AFB2146FEF7BEFA10
:101BF000074601990598FEF712FB7168FEF7B6FAE1
:101C0000044621460598FEF70AFB0199FEF703FBFF
:101C1000B06021460698FEF702FB3946FEF7FBFA54
:101C20003060069A01461046FEF7F9FA2146FEF7A3
:101C30009DFA70601748FFF743F91A491A4A41188C
:101C4000914222D27F22D205014600241046FEF79F
:101C500023FB0090A700E959FEF7E1FA641CE85164
:101C6000032C01DA0098F5E70B4801218907006889
:101C700000F0F3F807460024A000295880193A46DE
:101C800000F0D5F8641C032CF6DB07B0F0BD0000B3
:101C90004C030020340300204000002040030020BB
:101CA000E4000020CCCCCCC032337300F8B5002562
:101CB0000D4F00F03DFE0024A6000A21B859C9438B
:101CC000FEF728FB01460948094A301800F0AFF832
:101CD000641C032CF0DB7D20C000FFF726FC6D1C8C
:101CE000642DE6DBF8BD000034030020E400002092
:101CF0009A99593F10B50120FFF7FCF810BD0EB5B9
:101D000000226B461A805A8001911A819A726946A4
:101D1000FEF7AAFE0EBD000070B50646FFF726FED0
:101D2000194C21692061451A3046FEF70AFB174914
:101D3000FEF775FA06460121204689070C3000F0AF
:101D400063F82846FEF7FDFA054630466168FEF75F
:101D50005EFA2946FEF763FA0D49FEF760FAE1687C
:101D6000FEF704FA0B49E060884205DDFF2000F031
:101D700039F87F20C00503E0FF2000F021F80020A3
:101D80006060002070BD0000B80000208988883D98
:101D90006F12833A48E1FA3E70B50D460446FFF7EC
:101DA000E5FD2146FEF7BCF96C432009814203D9C9
:101DB0000F2000F017F870BD0F2000F001F870BD83
:101DC00070B50446064DC00703D004212846FEF72F
:101DD000C8FCA00703D508212846FEF7C2FC70BD49
:101DE0000000004870B50446064DC00703D004212A
:101DF0002846FEF7B4FCA00703D508212846FEF7C5
:101E0000AEFC70BD0000004870B504460120C0075C
:101E10000D4645400E462068FEF7BEFA00D2266009
:101E200028462168FEF7B8FA00D2256070BD70B56B
:101E300005460C467F2016461146C005FEF7E7F919
:101E40002146FEF7ECF9044631462868FEF7E7F92B
:101E50002146FEF78BF9286070BD10B5FEF71CFA1D
:101E60007F24E4052146FEF7D6F9A04201DD204695
:101E700010BD0121C9078842FAD9002010BD000019
:101E8000F8B50C225143144A05468C18606820604E
:101E9000A06812496060FEF7C2F906461049206842
:101EA000FEF7BDF907460F492846FEF7B8F939464F
:101EB000FEF75CF93146FEF759F90546A0600121AD
:101EC0006068FEF727FA064629462068FEF74EF9B5
:101ED0003146FEF74BF9F8BD80030020D0AF7D3FBF
:101EE0002D5793BE8EF7973D0EB57D20C000FFF7AE
:101EF0001CFBFFF73FFD00F017FE00F01DFFC74879
:101F0000FFF713FBFFF720FE00F024FB002108463B
:101F100000F09AFB0021012000F096FB0021032035
:101F200000F092FB0021022000F08EFB00F0D4FCB8
:101F300000F0C2FC00282DD0FEF7CAFEB8490120EF
:101F40008872087100F0B2FBB64D00240020FEF745
:101F500035FF2968FEF70AF928607D20C000FFF7E9
:101F6000E4FA641C402CF1DB0521C9432868FEF724
:101F7000D1F92860FFF71AFD00F096FBFFF796FEF7
:101F8000FFF768FBFFF76EFBA7480068002803D047
:101F9000072021E004201FE0FFF7E8FC6863FFF75B
:101FA000E5FCA04C0546606B281AFEF7CAF92063D1
:101FB000002802DC7F20C00520639C49FEF72FF932
:101FC0009B492063884201DD062005E09648656351
:101FD0000068142802DD0820FFF7B2FA00F0A8FC20
:101FE000FFF798F8FFF7CAFD0020FEF7E7FE8D4CDB
:101FF000E168FEF714F906460120FEF7DFFE014610
:102000008C4F20463A460C30FFF711FF8A48666035
:1020100001683A466846FFF70AFF2046874A2030A3
:102020002168FFF704FF3A4631462046FFF7FFFEDE
:102030000121C943206AFEF76DF9064680492068F0
:10204000FEF7EDF83146FEF7E2F801907D48009C7E
:10205000844258DD734F786A0646FEF767F979497E
:10206000FEF7DDF82146FEF7DAF80199FEF77EF873
:102070006B49B4006C3108510646F86A002808D054
:10208000002030398200401C8E500C28FADB0020E2
:10209000F86263486C490C300059FEF7C0F80290B2
:1020A0005F483C3001593046FEF7B1F80299FEF71F
:1020B0005DF85B493C310E51303908510146FEF75D
:1020C000AEF8574E01469C36A019604AFFF7AFFEA6
:1020D000786A401C78620C2801DB00207862306846
:1020E0000290786A0B280ED10024A700F0590299BB
:1020F000FEF748F904D2F05902904A48611C816207
:10210000641C0C2CF1DB474C2069002800D04D48A2
:102110004F49FEF72BF80746A06AFEF707F9494E2C
:102120003146FEF77CF80099FEF779F80199FEF741
:102130001DF83946FEF726F903D346492068884240
:1021400001DA012000E000202061A06AFEF7EEF82D
:102150003146FEF764F80099FEF761F80199FEF741
:1021600005F8A0602069002801D0082108E03A485D
:102170000068002806D039480068002804D00F21E4
:1021800037482DE00C2113E06069002812D0E06987
:10219000002802D1FFF7EAFBE061FFF7E7FBE16906
:1021A000411A2F48814202D900206061E061082174
:1021B0001A4815E0A069002815D0E069002802D16E
:1021C000FFF7D4FBE061FFF7D1FBE169411A244836
:1021D000814204D9A169491EA1610021E161012167
:1021E000FFF7DAFD0AE00E48807A002803D0FF20CE
:1021F000FFF7F8FD02E0FF20FFF7E2FDFEF7C0FE6B
:102200007D24E40002E00A20FFF78FF9FFF7AEFB20
:10221000401BA04200D3C2E6F5E70000A086010003
:1022200004020020100000208C010020BD378635FC
:102230000AD7A33C492E7F3F0C00002028EA7F3FAD
:102240000000A03FCDCCCC3D91ED7C3F5BB17F3F0A
:1022500000006040CDCC2C406C00002078000020B5
:1022600020A1070010B506490868002807D0002003
:102270000860091D08710920C006FEF728FA10BD84
:10228000A4010020F3B58C00104E012183B0305919
:10229000C943FEF73FF83746103F01903D590021F2
:1022A000C9432846FEF736F801210090C943039838
:1022B000FEF730F80099FDF759FF0199FDF756FF39
:1022C00035510399395105B0F0BD0000E4010020FB
:1022D00070B504467F20C005844201DD044604E059
:1022E0000120C007844200D9002409492046FDF797
:1022F00096FF054621460846FDF791FF0549FDF783
:102300008EFF2946FDF732FF0349FDF72FFF70BD11
:102310007593583F7593183E0AD7A33B0549086843
:10232000022804D001DA02200860401C7047002017
:10233000FAE70000440100200C494868002804D056
:10234000012807D002280AD10BE008481C30886019
:10235000012003E005482830886002204860401CC6
:1023600070470248103088600020F7E744010020E1
:1023700010B50649087A401C8007800F8860283114
:10238000095C252000F06EFD10BD000068000020F3
:1023900010B5416800788007800DFF38FF3802389B
:1023A0000818FDF7C3FF0821C943FDF7B3FF10BDAF
:1023B000F1B5574884B001680498564F564E8400D2
:1023C000002904D038595549FDF729FF38515448A0
:1023D000002501594F480C300059FDF7D3FF03D1B8
:1023E0003059002800DD01254D4801210059C90759
:1023F000484048490C310959FDF7C4FF04D131590F
:102400000120C007814226D8002D24D14148022155
:10241000183005592846FDF77DFF3E493C310959E2
:10242000FDF7A4FE31590091FDF7A0FE3D49FDF7EF
:10243000F6FE3D490959FDF7F2FE3C490968FDF7F2
:10244000EEFE3959FDF792FE385132483C300551C5
:1024500024380099015132480C3001592D48201878
:10246000FFF7D2FC2B48303805597F202946C0059C
:10247000FDF7CDFE3159FDF7D2FE2B490C390F592E
:102480003946FDF7CCFE0190224E0120C0070C36E4
:1024900068403946FDF7C3FE254909590091FDF70B
:1024A000BEFE0199FDF762FE1A490959FDF75EFE6D
:1024B000039004983746C5001837E81901900021A9
:1024C0004068C943FDF726FF00210290C9430098E8
:1024D000FDF720FF0299FDF79AFE13490C310959C7
:1024E000FDF79DFE10491C39C968FDF798FE039958
:1024F000FDF791FE305101987959416000990848E3
:1025000079510159A019FFF77FFC305905B0F0BD92
:1025100000000020D4030020B801002048E17A3FE9
:10252000C02E00087EAA2A3E600100204000002044
:102530004003002010B5044801680448FDF7ACFED4
:102540000349C86010BD00004000002017B7513B90
:1025500044010020FEB5022569460D710320487133
:1025600000248C71CC7101212846FEF735F9314FDA
:1025700031483946FFF7C3FB01210E023046FEF712
:102580002BF939462D4F3846FFF7B9FB2C4860210F
:102590000180012141808481068284601020092409
:1025A000E406009069462046FEF791F804221146A1
:1025B0002046FEF7C4F822493846FEF79DF9402030
:1025C000009069462046FEF782F801220621204647
:1025D000FEF7B5F81A491848FEF78EF980200090EA
:1025E00069462046FEF773F8012207212046FEF7D0
:1025F000A6F813491048FEF7BDF9124C694620466B
:102600000095FEF764F8012211462046FEF797F880
:102610000B490948FEF7F6F901210748FEF756F97C
:1026200001210548FEF75CF901213846FEF74EF915
:10263000FEBD0000CF070000000400400020004065
:102640001C0400200004004810B50A460446124944
:102650001046FDF7E4FDFDF77BFE002801DA0020BF
:1026600003E00E49884200DD0846002C09D0012C09
:102670000CD00B49022C0CD0032C01D180B2886302
:1026800010BD074980B24031086010BD80B20549D5
:1026900000E080B2486310BD00E0F944CF070000BD
:1026A00000040040002000407047000010B526489C
:1026B000012181720022C27201710221234800F0BF
:1026C00069FB6420FEF731FF20480621483000F006
:1026D00061FB0021012000F0C5FB0121022000F078
:1026E000C1FB3921062000F0BDFB0F21112000F0B5
:1026F000B9FB0021042000F0B5FB0321084600F0DF
:10270000B1FBE22000F068FB0021052000F0AAFBED
:1027100038211D2000F0A6FB00F000FAFD2000F09B
:1027200041FA002000F03EFA00F0F2F98F2100207B
:1027300000F098FB0F2000F070FBC62802D00320A9
:10274000FEF7FEFE10BD000004020020680000201D
:10275000012040020921C9068861024901208860E0
:102760007047000090010020012040020921C906A5
:102770008861034908810349002088607047000090
:1027800020000048900100200120034940020881F8
:102790000249002088607047200000489001002016
:1027A00010B5074C2068002801D100F077F801200F
:1027B00080020921C90688610120606010BD000007
:1027C0009001002010B5064C2068002801D100F0CF
:1027D00065F801200349800208810020606010BD77
:1027E000900100202000004870B590B000206C4699
:1027F00081006050401C0F28FADB852000902248A1
:10280000224D06682248019629460068FDF707FD1B
:10281000FDF79EFD0104C0B2090E049003911D480E
:1028200029460068FDF7FBFCFDF792FD0104090E47
:10283000C0B2194D05910690286BC10F08184010C1
:10284000FF2800DDFF200790002E03D00398082109
:1028500008430390002108468200A258401C5118EA
:102860000E28F9DBE1200E9100F0B6FA822100205B
:1028700000F0F8FA0F21684600F0E0FAFFF776F86A
:10288000686310B070BD0000200000200000C84246
:1028900010000020180000206800002010B5054935
:1028A000012008600C3108710920C006FDF70FFFF8
:1028B00010BD00009001002010B57520FFF751F900
:1028C000682807D0982805D07D2803D0722801D029
:1028D000002010BD012010BD10B580216B20FFF736
:1028E00046F91248FEF721FE01216B20FFF73FF960
:1028F0007520FFF736F9682801D0012400E0002494
:102900006420FEF712FE18211C20FFF730F9002C7E
:1029100003D005211D20FFF72AF918211B20FFF7FE
:1029200026F903211A20FFF722F910BD409C000070
:10293000F0B593B00E2269463B20FFF709F90298E3
:1029400003990002401800B2FDF7F0FC2E4C206005
:10295000009801990002401800B24042FDF7E6FCE1
:102960006060049805990002401800B2FDF7DEFC93
:10297000A060089809990002401800B2FDF7D6FC43
:1029800011900A980B990002401800B2FDF7CEFC96
:1029900010900C980D990002401800B2FDF7C6FC8B
:1029A0001290243421681098FDF731FC1090616872
:1029B0001198FDF72CFC1190A1681298FDF727FCE7
:1029C00012900120109AC0071199424010911146AF
:1029D0004140119112990C4F4140002410AE0C3728
:1029E0001291A50070590949FDF719FC0849FDF736
:1029F00016FC70512146FFF743FA641C7851032CF2
:102A0000EFDB13B0F0BD00003403002000007A3D7E
:102A100035FA8E3CFEB50120400200900124684644
:102A200004718471C471032509274571FF06694645
:102A30003846FDF74CFEA602694638460096FDF77B
:102A400046FE08480021066001718471C471457119
:102A50000C38416004608160FFF7A2FEFFF778FE4A
:102A6000FEBD00009C01002070B50D460446FEF737
:102A7000D7F860000446FEF7AFF82846FEF7ACF83A
:102A8000FEF79CF8601CFEF7A7F80120FEF75CF843
:102A9000C4B2FEF7D7F8204670BDFFB581B01D4621
:102AA000164607460024FEF7BBF878000746FEF7F7
:102AB00093F80298FEF790F8FEF780F8781CFEF77E
:102AC0008BF86D1E05E00020FEF73EF8A100705067
:102AD000641CAC42F7DB0120FEF736F8A100705011
:102AE000FEF7B0F805B0F0BD70B515460E460446C9
:102AF000FEF796F86000FEF76FF83046FEF76CF8C8
:102B00002846FEF769F8C4B2FEF79CF8204670BD6F
:102B100001490120886170470014004801490120E3
:102B20000881704720140048FEB5012468460471EE
:102B300000258571C4710326467102200B4F009059
:102B400069463846FDF7C3FD694638460094FDF7EF
:102B5000BEFD0748046005718571C4714671014668
:102B60000920C006FDF7B3FDBC61FEBD001400489E
:102B7000A801002070B4002007210223074C09257A
:102B8000074EED06A3614200288A3381C007C00FBB
:102B90001043491EF6D570BC704700000014004871
:102BA00020140048F8B504460F4809260168F606C7
:102BB0000125002906D105600C4805710146304603
:102BC000FDF785FD07210A4B0A4F022022460A41E4
:102BD000D20701D0B56100E01D81B861064A1081BD
:102BE000491EF3D5F8BD0000A4010020A801002073
:102BF000200000480014004820140048F8B5464E54
:102C0000464D31682868FDF7BDFB04D171686868DE
:102C1000FDF7B8FB54D034682C607068404E686093
:102C20003146FDF7FCFA3F4F3946FDF7F8FA054605
:102C300031462046FDF7F3FA3946FDF7F0FA06462D
:102C4000FEF7AAFC354C083420602846FEF7A4FCA9
:102C500060602846FEF796FC05463046FEF792FC7B
:102C60002946FDF7DCFA0646A06060680146FDF7DC
:102C7000D6FA054620680146FDF7D1FA2946FDF748
:102C800075FA2949054688420FDD31460846FDF7A9
:102C9000C6FA7F21C905FDF7BEFA01462846FDF7B1
:102CA000FBFAFDF763FD054600E0204D206829464C
:102CB000FDF7B5FA206029466068FDF7B0FA60605C
:102CC000164C1B4E0834A068009070680099FDF700
:102CD000A6FAB768054661683846FDF7A0FA2946A6
:102CE000FDF795FA134D686030680099FDF797FA83
:102CF000064638462168FDF792FA3146FDF787FA15
:102D00007F24E405286021462846FFF77DF8214608
:102D1000281DFFF779F8F8BDC4010020D00000207D
:102D200000008C4235FA8E3C6F12833AF4FD343F3A
:102D3000E40000206403002010B508480649416102
:102D40000749CA6903231202120A44042243CA61D2
:102D500000218161036110BD7F8D5B0000E000E018
:102D600004ED00E010B5094842698169084C20680B
:102D7000814201D2401A01E0521A10182160062146
:102D8000FDF7CEF961684018606010BD00E000E01A
:102D9000B001002070B50D460646FFF7BFFE0024C7
:102DA00004E0305DFFF7FEFE641CE4B2AC42F8D3F1
:102DB000FFF7AEFE70BD0000064A10B58000801817
:102DC000FDF73EFC042804D0FDF732FC0520FEF799
:102DD000B7FB10BD003C000810B50446FFF79EFE8F
:102DE0002046FFF7DFFEFFF793FE002010BD70B511
:102DF0000D4606460024FFF791FE6120FFF7D2FE44
:102E0000FFF730FA04E0FFF7B5FEA1007050641C34
:102E1000AC42F8DBFFF77CFE70BD10B5C406E40ED3
:102E2000FFF77CFE2046FFF7BDFEFFF71BFAFFF71A
:102E3000A1FE0446FFF76CFE204610BD70B50D469E
:102E400006460024FFF76AFEA020FFF7ABFE04E071
:102E5000A0003058FFF7A6FE641CAC42F8DBFFF779
:102E600057FE70BD70B58406A40E20200D460443A5
:102E7000FFF754FE2046FFF795FE2846FFF792FE27
:102E8000FFF746FE70BD0C0100010003000C0200BC
:102E9000020003000C0300030003000C0400030005
:102EA00004000C0400030003000C040003000200F3
:102EB0000C040003000100002A00000000000000D4
:102EC000CDCC4C3FCDCC4C3F0000003FCDCC4C3F57
:102ED000CDCC4C3F0000003FFC2E0008000000203D
:102EE000B801000054040008642F0008B801002055
:102EF00078060000160B00082DDCFFFF32012904C4
:102F0000C12D6666864004210B12803F1C81C91CBE
:102F1000031C20C1EA3949F10326B80B021F2AA07D
:102F2000097B14524185EB41410B14803F0C012475
:102F30005AE0EC7A60F4011C1354013A20CC2C1EA8
:102F4000053E0438089A99193FAE47610428099A4A
:102F500099993ECDCC0C3F04692C1A60045A6C340C
:042F6000013000003C
:04000005080000C926
:00000001FF
