:020000040800F2
:1000000020070020C9000008EF000008D3070008FF
:1000100000000000000000000000000000000000E0
:10002000000000000000000000000000F3000008D5
:100030000000000000000000F5000008D5080008DE
:10004000F9000008F9000008F9000008F9000008AC
:10005000F9000008F9000008F9000008F90000089C
:1000600000000000F9000008F9000008F90000088D
:10007000F9000008F9000008F9000008F90000087C
:10008000F90000080000000000000000F90000086E
:1000900000000000F9000008F9000008F90000085D
:1000A00000000000F900000800000000F90000084E
:1000B0000448854600F0BCF900F048F800480047C5
:1000C0005D1E0008200700200C4880F308880C48BB
:1000D0000168090E0B4A914205D10B480B4901609A
:1000E0000B480C4901600C4880470C480047FEE76C
:1000F000FEE7FEE7FEE7FEE7FEE700002007002040
:10010000040000001F000000181002400100000061
:100110000000014000000000D9080008B1000008FC
:1001200030B50B46014600202022012409E00D468F
:10013000D5409D4205D31D469540491B2546954017
:1001400040191546521E002DF1DC30BD70B5054C2E
:10015000054D03E0206800198047241DAC42F9D109
:1001600070BD0000B82C0008BC2C0008F8B5024691
:100170004A40D40F42004B0052085B089A4202D218
:100180000246084611464A0023D0C30D4A00DDB29C
:10019000120EAD1A202D35DA49020126490AF6055C
:1001A0008A19002C00D0524220214F1B1146B94021
:1001B0002A411018C20D9A4221D0002C17D0012DCF
:1001C00008DCDA05801AD20F8019D207DBB200F002
:1001D000F5F8F8BDDA05801A012340001B06C018A7
:1001E00080185A428018CA0F1043490007E0490896
:1001F000C2071143DA05801A80194008801800F000
:10020000D5F8F8BD61000122511A001BF7E7012261
:10021000D2075140AAE70122D2075040A6E7024682
:1002200070B54A40D30FDB0740002DD04A002AD0DA
:10023000010E140E000212020919400A520A841813
:10024000E50104465443000A120A2E045043A4193F
:100250004219200CC543AA18120C0125AD03521CEB
:10026000521912047F39240400D0521C104301D4C7
:100270004000491EC2B20C06C0092018401C4008AC
:10028000802A02D003E0002070BD40084000002911
:1002900000DA0020184370BD70B502464A40D50F01
:1002A00040004A00ED0740085208002814D0002AF8
:1002B00012D0C40DD30D41020120C0055202490ADB
:1002C000520AE41A091812187D34914201D3641CB1
:1002D00000E04900002C01DA002070BD00239142AB
:1002E00001D3891A0343400849000028F7D10029A7
:1002F0000AD0914202D10121C90705E0914201D201
:10030000012101E00121C943E005C018401900F0B6
:100310004DF870BD420005D04200120E52428A4292
:1003200001DB00207047C90508187047C217C10FCC
:10033000504010B54018CA079623002100F03EF83F
:1003400010BD10B500229623114600F037F810BDFD
:10035000C20F410040020123400ADB05D207090E0B
:10036000C0187F2901DA00207047962903DC962304
:10037000591AC84001E096398840002AF4D040421A
:10038000704700000122D207002800DB101A002964
:1003900000DB511A814270470122D207002800DB9E
:1003A000101A002900DB511A88427047002904DA2C
:1003B000401C490001D140084000704770B400243F
:1003C000050C05D11024000402D1002921D01124EC
:1003D000050E01D100020834050F01D10001241DD2
:1003E000850F01D18000A41C002801DB4000641CA3
:1003F000002908D020252E1B0D46F540A14000D035
:1004000001212943084301061B1B000ADB1D02D5FD
:10041000002070BC7047DB05181880180029F8DA36
:10042000401C4900F5D170BC4008400070470000F6
:10043000064C0125064E05E0E36807CC2B430C3C37
:1004400098471034B442F7D3FFF736FE982C0008D3
:10045000B82C000870B58C180578401C6B075B0F32
:1004600001D10378401C2A1106D10278401C03E018
:1004700006780E70401C491C5B1EF9D12B0705D471
:100480000023521E0DD40B70491CFAE70378401C60
:10049000CB1A921C03E01D780D70491C5B1C521E88
:1004A000F9D5A142D8D3002070BD836A0B43836283
:1004B000426170470029816801D0012200E00222D8
:1004C0001143816070470029C16802D001221143A5
:1004D00001E049084900C1607047C26802239A439D
:1004E000C260C2680A43C26070478268002101236B
:1004F000DB071A4382600F231B038268491CD20F5B
:10050000D207994201D0002AF7D18168002901DB86
:10051000006C70470020704730B5C268084B8C688B
:100520001A400B680D792343CC686D032C43234399
:100530000C69496923430B431343C36030BD00007A
:1005400003D2FFFF816804221143816070470021BC
:10055000016001718160C16001614161704700000B
:100560000122054992050028886801D0104300E067
:10057000904388607047000000270140002901680F
:1005800002D00122114301E0014A1140016070478D
:10059000FEFF000030B503680C4A0C6A13408A68FD
:1005A0004D6922430C692C4322438C692243CC6958
:1005B00022434C6A22438C6A22431A430260CA686F
:1005C00042600A6882604968C16030BD0F80FFFFE9
:1005D00008490420CA68D20701D001207047CA68C0
:1005E000D20601D502207047C9684907FBD5032010
:1005F0007047000000200240024801698022114338
:100600000161704700200240F0B5AA2400F036F8DE
:10061000002800D000240B273F04384600F07CF867
:10062000042813D1134D28692026304328612869F6
:10063000402108432861384600F06EF81021042854
:1006400005D0052802D02A698A432A61F0BD2869AD
:10065000B043286128690E4630432861064804806B
:10066000384600F059F80528F0D02969B1432961CE
:10067000F0BD00000020024000F8FF1F03490020E9
:10068000C9694907890F00D0012070470020024046
:100690000248016942159143016170470020024000
:1006A000F0B507460B200E46000400F035F804288C
:1006B0000ED1084C20691025284320613E800B2074
:1006C000000400F029F8052802D02169A94321611E
:1006D000F0BD00000020024004480169890503D4F0
:1006E0000349816003498160704700000020024097
:1006F00023016745AB89EFCD04480169090603D59D
:1007000003494160034941607047000000200240F6
:1007100023016745AB89EFCD00B50346FFF758FFCE
:1007200002E0FFF755FF5B1E012803D0002B00D12C
:10073000052000BD002BF4D1FAE7F0B50022032517
:1007400001230C6893401C409C422AD10C79012C57
:1007500001D0022C12D1876854002E46A640B74320
:1007600087604E79A64084682643866084889C43CF
:10077000848084888B7993401C438480066853006E
:100780002C469C40A64306600E7907689E403E4377
:100790000660C668A643C660CC799C40C3681C430B
:1007A000C460521C102ACBD3F0BD4B07DB0E9A401D
:1007B000C90810B589000818016A0F249C40A1439C
:1007C0000162016A1143016210BD018570478161B8
:1007D0007047052000F03AFF70B5FF250021044660
:1007E000AD05C943FFF796FD06460F4960100C1A88
:1007F00021463046FFF713FD2146FFF710FD29463D
:10080000FFF709FD2146FFF70AFD04460146304681
:10081000FFF705FD2146FFF702FD2946FFF7FBFC28
:100820002146FFF7FCFC70BDDF59375F044A002901
:10083000516901D0014300E08143516170470000DC
:1008400000100240044A0029D16901D0014300E0B0
:100850008143D1617047000000100240044A002922
:10086000916901D0014300E081439161704700002C
:10087000001002400CB50020009001901349112097
:1008800008601348416841604168416041687B22CB
:10089000D2039143416041680522D2041143416073
:1008A0000168012212061143016001688901FCD52B
:1008B0004168890889004160416802221143416012
:1008C00041680907890F0229FAD10CBD00200240B6
:1008D000001002407047000010B514480168012262
:1008E000114301604168124A114041600168114A98
:1008F0001140016001680122920491430160416846
:100900003F22120491434160C16A09090901C16291
:10091000016BFF22543291430163416B4908490046
:10092000416300218160FFF7A5FF10BD0010024068
:100930000CB8FF08FFFFF6FE0029018802D0012253
:10094000114301E049084900018070474030002907
:10095000818803D00122D203114301E04904490CEC
:100960008180704770B5028C520852000284048C5A
:100970008288038B7025AB439B080D889B001D4329
:1009800002239C438E894B882643104C3343A0425C
:1009900008D00F4CA04205D00E4CA04202D00E4C05
:1009A000A0420DD10824A343CC891C4304239C43BB
:1009B0008B882343094C22400C8A14434A8A2243E1
:1009C0008280058389684163038470BD002C0140E7
:1009D000004001400044014000480140FFFC00008D
:1009E00070B5028C10239A430284048C8288038B96
:1009F0001A4D2B400D782D062D0C1D4320239C43B2
:100A00008B891B051E0C4B8826431B051B0C144CA5
:100A10003343A04202D0134EB04219D1124E32409D
:100A20000E8AB604360C3243A04211D18024A3436F
:100A3000CC892405240C1C4340239C438B881B0534
:100A40001B0C2343094C22404C8AA404240C22434F
:100A50008280058389688163038470BDFF8C0000F8
:100A6000002C014000400140FFFB0000FFF70000A8
:100A700030B5028C124B1A400284058C8288838B1D
:100A8000104C23400C782406240C1C430E4B1D40B4
:100A90000B7B1B071B0C2B438D782D072D0C1D4347
:100AA0000A4B984205D10A4B13400A8A9205120C50
:100AB0001A438280848389680164058430BD000004
:100AC000FFEF0000FF8C0000FFDF0000002C014062
:100AD000FFBF000010B50288144B984206D00124D5
:100AE000A407A04202D0124CA04203D17024A2431A
:100AF0004C8822430F4CA04203D00F4C22400C895B
:100B0000224302804A68C2620A880285984208D05D
:100B10000A4A904205D00A4A904202D0094A9042BD
:100B200001D1897A01860121818210BD002C01400A
:100B30000004004000100040FFFC000000400140A5
:100B400000440140004801400021016041607047BD
:100B5000FFB581B01C4617460E0007D0019D02E08C
:100B60002846B047ED192046641EF9D2019805B019
:100B7000F0BD02E008C8121F08C1002AFAD1704770
:100B80007047002001E001C1121F002AFBD170470D
:100B900010B503230C2204490448FFF7D9FF044889
:100BA0000021016010BD0000490B000888020020F0
:100BB000EC00002070B5174D064668680024002838
:100BC00001D101F0E7FC2868002801D101F060FDA7
:100BD0000722012301F0B6FC00F01EF8002803D024
:100BE000184690402043C4B201F0C8FC521EF1D513
:100BF000002E02D001F0CEFC01E001F0DDFC01F09E
:100C0000A1FC01F0BBFC6868002801D001F0D4FC15
:100C1000204670BD580100200920C006008A01212D
:100C2000890208407047000010B505484068002858
:100C300001D101F0AFFC01F085FC01F0BDFC10BD5D
:100C40005801002070B5104E0546B068012801D14A
:100C500001F094FC072428462041C00702D001F08F
:100C600099FC01E001F0A8FC01F078FC641EF2D5CB
:100C70007068002801D101F08DFC01F063FC01F0E7
:100C80007DFC384670BD00005801002010B5074AB1
:100C90009068002801D101F055FC5068012803D16B
:100CA000FFF7BAFF01F088FC10BD000058010020DA
:100CB00010B5084C6068012804D1A068002806D14E
:100CC00001F07AFCA068002801D101F03BFC01F0A2
:100CD00061FC10BD58010020F8B5154E45200006F6
:100CE00037460025183FB06001F01AFD0024A0002F
:100CF000395880190F4A01F054F8641C032CF6DBB4
:100D000000F0D2FDFF20F5306D1C8542ECDB452163
:100D10000906B068FFF77BFA074D0024B060A00019
:100D20008019294601F02AF8641C032CF7DBF8BD72
:100D3000540200201F856B3F0000FE4270B592B048
:100D4000202503206946069508770024CC770920E2
:100D500006A9C006FFF7F1FC01214802FFF77EFD5E
:100D600001210846FFF762FD2A4806902A480790AD
:100D70000220099080200B9040000C900894800085
:100D80000E950D900A94C000244D0F9006A9109462
:100D90002846FFF7FFFB1F4E0221403E3046FFF77B
:100DA0009CFB01213046FFF78EFB6846FFF7CFFB27
:100DB000012069460094087104200590029404946F
:100DC0003046FFF7A9FB0121072249043046FFF70F
:100DD0006CFB072220213046FFF767FB0120FFF75D
:100DE000BFFB3046FFF781FB01213046FFF762FB76
:100DF0003046FFF7A7FB01212846FFF7BFFB084855
:100E00000088FFF79EFA0749FFF709FA0249486090
:100E100012B070BD402401404C0100200800024087
:100E2000BAF7FF1F62DB963F10B50B49002803D0CD
:100E3000012808D0002010BD0888FFF782FA074972
:100E4000FFF7EDF910BD4888FFF77BFA014602482D
:100E50004068FFF721FA10BD4C0100203FC8B23AAC
:100E6000F8B52E492E4D09688400002904D0285970
:100E70002C49FFF7D4F92851294B2B4F0833195926
:100E800000202A4AB94203D11659002E00DD012064
:100E9000274B284E994203D11159DA0791420FD8B6
:100EA00000280DD11E48103801593059FFF7B7F905
:100EB00021490968FFF7B3F92959FFF757F9285174
:100EC0006019194900F05AFF154837591838015967
:100ED0003846FFF7A4F9124E29590836FFF746F9AC
:100EE00005463046083001593846FFF790F931463B
:100EF00010390959FFF793F910490968FFF78FF97D
:100F00002946FFF788F93051304608300751A019BB
:100F1000054900F033FF3059F8BD00000000002003
:100F20000C010020CDCC4C3FDB0FC9404802002013
:100F3000DB0FC9C0AC0200202C00002024010020DF
:100F400070B5184C606A002804D00025012809D02B
:100F5000656270BD0120E06001F040FB606A401CEA
:100F6000606270BD172001F048FEC00608D58F21D1
:100F7000002001F065FE6562E56001F0E9F870BDF2
:100F800000F092FC616B401A07498842F7D9E120D2
:100F900001F014FE8F21002001F052FE6562E56031
:100FA00070BD00004C0000201027000070B5002527
:100FB00006462C46A00030580146FFF730F9294676
:100FC000FFF7D4F8641CE4B20546032CF2D3FFF714
:100FD00003FC01467F20C005FFF75EF970BD30B508
:100FE000002207239C1A6418203C855CE47FA542FC
:100FF00001D0002030BD521C072AF3DB012030BD98
:10100000FEB5072001F0F9FD0007400F0025072875
:1010100001D0022000E028460126584C002859D073
:10102000606800281DD000F03FFC07460F2154489F
:1010300001F0CFFD00F098FA00284BD0E06A401C88
:10104000E062E069002801D0FFF77AFF6561A561E1
:10105000A068A763E76325616064E068002837D073
:101060003BE00F21464801F0B4FD454B1868A42829
:1010700001D0A3282ED1A32802D14248E6612062E4
:101080003E4F187E28373870187F7870188CB870EB
:10109000988CF8703C486A4603C800900191012082
:1010A0008100595C1154401C0628F9DB06211046CA
:1010B00001F073FD3020694608700621684601F092
:1010C0006CFDA068395C252001F0BAFD666001E086
:1010D00001F03EF8E068002801D0FFF731FF00F092
:1010E000E3FB0746A06B391A206A82007D20C0000E
:1010F000101881420BD96068002808D0A763A06946
:10110000002801D1606CA06001F022F8A661E168BE
:10111000A069084319D160690090052815D260685C
:10112000002812D0A06B7D21381AC90088420CD942
:10113000216AFEF7F5FF01460098401C814204D366
:1011400001F006F86069401C6061E06B381A0F4FCF
:10115000B84205D90E482661056045608560C560C6
:1011600000F0A2FB216C401AB84205D9E06AE562A2
:10117000206300F099FB2064FEBD00004C000020BD
:101180000002002088130000782C000840420F0065
:10119000D8010020F0B5D44F7F267878F60587B0C7
:1011A000002801D13F2636060024D048A50040592A
:1011B0003146FFF734F8CE49641C4851032CF4DB68
:1011C000CC480026006800282AD000F0EBFA00285E
:1011D00026D0032807D00121C74A022811601CD05D
:1011E00001281CD01CE000F07FFBFFF775FDC34D0C
:1011F000C3496868FEF7BAFFFFF7AAF80446C0497A
:101200002868FEF7B3FFFFF7A3F8214600F07EFA47
:1012100000F04AFBBB49086002E0397100E03E7112
:1012200001F078F8B0480079002803D0B64800688B
:1012300000282FD0AE4CB5492068FEF7F0FFB44926
:10124000FEF7EDFFB34D2968FEF7E1FF27460C3F9F
:101250003860AE496068FEF7E2FFAD49FEF7DFFF98
:101260006968FEF7D4FF7860A849A068FEF7D7FF49
:10127000A749FEF7D4FFA968FEF7C9FFB860A64FDB
:101280000024A5007859A549FEF7C9FF641C7851D0
:10129000012CF6DD002000F07BFF012000F078FF3C
:1012A000022000F075FF91489D49C068884201DA2C
:1012B000002505E0FEF7ABFF9A49FEF7B0FF0546B3
:1012C00099480068002802D1984885421BDA894D68
:1012D0006868002807D000F0E7FA6968401A944966
:1012E000884200D96E600024E0B2002101F09CF831
:1012F0002146002000F0E0FE641C032CF4DD0120F8
:10130000EE602860A2E07B4E0020306000F0CCFA56
:10131000706088480068002801D08748C568874801
:10132000002401688648874F814205DAFEF76FFF87
:101330003946FEF774FF04468348016883488142BA
:1013400005DAFEF764FF3946FEF769FF04467F279A
:10135000FF05BC4201DD3C4601E0002C07DD7C4975
:101360002046FEF75CFFB168FEF700FF03E06F491F
:10137000B068FEF74CFFB060B84201DDB76005E031
:101380000121C907884201D90020B060594881680D
:101390002046FEF7EBFE2946FEF73DFF6D4C064664
:1013A00025682946FEF733FF059061680491FEF732
:1013B0002EFFA4682146FEF7D9FE03902946304649
:1013C000FEF7D4FE05460499FEF721FF2146FEF7FD
:1013D0001EFF019004990598FEF7C8FE2146FEF70E
:1013E00016FF029028460499FEF7C0FE2146FEF73C
:1013F000BDFE009000213F480C466E46C160A5002E
:101400007059214600F058FE705100F07BFE0146F5
:10141000E0B201F009F870590121C907884202D9E8
:101420000020705102E0B84200DD77517159314D12
:10143000E868FEF79BFE641CE860032CDFDD0121F9
:101440002C46C943E068FEF765FFE0602648007956
:10145000002846D02C480068002842D101F0DAFA72
:1014600023482A498068FEF7DAFE2949FEF7D7FEAD
:101470000546394C29466068FEF7D1FE00900121EF
:101480002068C90748402946FEF7C9FE0190294651
:10149000A068FEF7C4FE314C314D02902946206809
:1014A000FEF7BDFE2F4E294630606068FEF7B7FE9E
:1014B00070600F4F0024174E0C3F2046FFF7D0FC02
:1014C000A50069464959FEF751FE7159FEF79FFE86
:1014D000641C7851022CF0DBB1680298FEF797FE8D
:1014E000B86007B0F0BD0000CC010020D80100209A
:1014F0008C01002000000020240000205402002065
:101500000000FE4230000020C80000200000B4436C
:1015100035FA8E3C480200200C010020CDCC4C3F17
:10152000CDCCCC3DE4388E3F5C0000206F12833A76
:1015300040420F00D0000020780200201000002060
:101540003333334000004040180000209A9959403E
:1015500017B7D138D0020020BC0000206C02002058
:10156000E12E6542AC020020F8B52D4C2068A5287C
:1015700053D1002108468200A258401C51180E2861
:10158000F9DBC8B2A16B884247D12548103000F082
:10159000EFFD244D28602248183000F0E9FD686016
:1015A0001F48283000F0E4FDA860208C616A8007A5
:1015B000800D4018FEF7BAFE1B49FEF730FEE860CA
:1015C000207B1A4D0006C00FA871A068C106C90F84
:1015D000E9718106C90F29720107C90F2970616875
:1015E000FA2918D0002169708107C90FC007A970B6
:1015F000C00FE87000200E4B0E4C074601261F540A
:10160000225C295C8A4200D01E542154401C0A28C6
:10161000F5DB0120F8BD0121E5E70020F8BD000061
:1016200000020020D8010020F7FF7F3ACC01002003
:10163000F4010020E801002008B581004018009066
:10164000411E009101D30846FAE708BD0646002472
:10165000E0B2002100F0E8FE641C032CF8DD0B4D25
:10166000AF0000240CE0FF2000F076FB2846FFF7D7
:10167000E3FFFF2000F05EFB2846FFF7DDFF641C60
:10168000B442F0DB3846FFF7D7FFEAE7400D03002E
:1016900010B50349FEF76AFD00F004F810BD000024
:1016A000DB0FC93F70B50446134E144D03E03146BD
:1016B000FEF75CFD0446AC42F9D8114DAC4204DDA6
:1016C0003146FEF7A4FD0446F8E70120C0070D49A6
:1016D0000D4D8442204605D9FEF7A1FD2946FEF7AF
:1016E00045FD04E0FEF79BFD2946FEF794FD2146EB
:1016F000FEF795FD70BD0000DB0FC940DB0F49C050
:10170000DB0F49407B81CF3E83F9A23F70B50D4688
:101710000446FEF7F1FFFEF7DFFFFEF775FFE1B2CB
:101720000648FEF7BDFF0548E9B2801CFEF7B8FF8A
:10173000FEF762FFFEF7ACFF002070BD04F8FF1F4C
:1017400030B5164C2178814226D007216218203A04
:10175000D27F6254491E0129F8DA207010490F48DF
:10176000FFF73DFC7F25002802D06570012030BDC9
:101770000B490A48C91DFFF732FC002802D06570EA
:10178000022030BD064905480E31FFF728FC00282D
:1017900002D06570032030BD002030BD4400002021
:1017A000622C000870B53748374C0068002864D0B8
:1017B000364B37481A685100490881420BDA9D6858
:1017C0006D006D08854206DA5D686D006D08854222
:1017D00001DA00202FE02F4DAA4202D89E68AE42C7
:1017E00006D95E6876007608864201DA012022E09A
:1017F000294EB24202DC9A68B24206DD5A685200B3
:101800005208824201DA022015E05A68AA4208D939
:10181000814206DA9D686D006D08854201DA032079
:1018200009E0B24208DD814206DA996849004908B8
:10183000814201DA0420206000F036F806CC083C32
:10184000914200D0E060E268801A144A90420FD9B9
:10185000002904D1124A904201D90C2005E0114A16
:10186000904204D97F2903D0FF20A06000E0A1604E
:101870006160A068FFF764FF70BD7F20A0606060BA
:10188000002070BD0000002034000020D80100209E
:10189000CDCC4C3E333333BF3333333FA0860100CE
:1018A00040420F0020A1070010B501F055F910BD0E
:1018B0001CB5232001214004FEF7B8FF0120694632
:1018C000087100208871C871032048710420092420
:1018D000E40600902046FEF730FF0821009169469B
:1018E0002046FEF72AFF1CBDF0B591B0FFF7DCFFE4
:1018F0000F9005460B900A9000208100574B0CAAD0
:101900005B58401C53500328F7DB8CE00A980A957B
:10191000281A099001D10120099006226946432026
:1019200000F0B4F8009801990002401800B2FEF7E8
:10193000FDFC0790029803990002401800B2FEF7E0
:10194000F5FC0690049805990002401800B2FEF7D5
:10195000EDFC434E0890307800F098F9204641495C
:10196000FEF7DEFB4048814201D9012100E0002161
:101970003068C207D20F914201D0401C3060384815
:1019800001780907090F00260160B4000CAF06A812
:1019900039590059FEF700FD04D238593349FEF792
:1019A000E5FB385106A839590059FEF7EBFC04D283
:1019B00038592E49FEF72BFC3851E0192C4900F01C
:1019C000DDF938592B4940004008FEF7CFFB0146AE
:1019D00006AF385940004008FEF7DEFC06D2FFF79C
:1019E00063FF0B901E48012101600BE00998FEF790
:1019F000A8FC214900F0EBF9024618483959201893
:101A000000F0CFF9761C032EBFDB7D24E400FFF746
:101A10004BFF401BA04203D20A20FFF70DFEF6E762
:101A2000FFF742FF05460B982C1A1448844205D252
:101A30000F981349281A884200D267E70B98291A91
:101A40000E48814207D20020044A01468300401C10
:101A5000D1500328FADB11B0F0BD00006002002075
:101A6000B000002024F40000127A0000CDCCCC3D60
:101A7000000048440000C8420024F44880841E004E
:101A8000C0E1E40010B500F0C1FE10BD13460A46E7
:101A900010B50146682000F0FCFE012010BD10B515
:101AA0000146682000F0DCFE10BD0A4610B5014674
:101AB000682000F015FF10BDF0B58FB053490CA899
:101AC00001F062F8FFF7F0FE504D0446083D6868EB
:101AD000201AFEF736FC7F26F6056C60B04201DA6C
:101AE000304603E04A49884200DD08464949FEF78E
:101AF00096FB494C0090494D21682868FEF787FB0A
:101B0000286061686868FEF782FB00246860A700AF
:101B10000A21E859C943FEF7FDFB641CE851032C78
:101B2000F5DB00243E48A700C0590099FEF777FB7B
:101B300009A9641CC851032CF4DB0C990998FEF721
:101B40006EFB0E99FEF767FB01460E900998FEF7B3
:101B500066FB0C99FEF70AFB0C900E990A98FEF7AB
:101B60005EFB0D99FEF702FB01460D900A98FEF709
:101B700056FB0E99FEF74FFB0E900D990B98FEF752
:101B80004EFB0C99FEF747FB01460C900B98FEF7B5
:101B900046FB0D99FEF7EAFA0D902048FFF706FA8A
:101BA0002049214A4118914225D20146002430465D
:101BB000FEF772FB0746A6003846A959FEF72FFB31
:101BC000641CA851032CF6DB01218907009800F062
:101BD000FEF8074600240CAEA000295880193A46AA
:101BE00000F0DFF8641C032CF6DB084908390868AC
:101BF000401C086003E005480021083801600CA97A
:101C0000024800F0C1FF0FB0F0BD0000BC00002092
:101C100000409C46BD378635540200203C0200201F
:101C200048020020CCCCCCC032337300F8B500257C
:101C30000D4F00F075FD0024A6000A21B859C943D4
:101C4000FEF768FB01460948094A301800F0A9F878
:101C5000641C032CF0DB7D20C000FFF7EDFC6D1C45
:101C6000642DE6DBF8BD00003C020020BC00002033
:101C70009A99593F0EB500226B461A805A800191FD
:101C80001A819A726946FEF725FF0EBD70B50646A9
:101C9000FFF70AFE194C21692061451A3046FEF70C
:101CA00050FB1749FEF7BBFA06460121204689077B
:101CB0000C3000F063F82846FEF743FB054630463B
:101CC0006168FEF7A4FA2946FEF7A9FA0D49FEF766
:101CD000A6FAE168FEF74AFA0B49E060884205DDA2
:101CE000FF2000F039F87F20C00503E0FF2000F05E
:101CF00021F800206060002070BD00009C000020E2
:101D00008988883D6F12833A48E1FA3E70B50D46E6
:101D10000446FFF7C9FD2146FEF702FA6C4320098D
:101D2000814203D90F2000F017F870BD0F2000F09A
:101D300001F870BD70B50446064DC00703D00421FC
:101D40002846FEF744FDA00703D508212846FEF7E4
:101D50003EFD70BD0000004870B50446064DC0074A
:101D600003D004212846FEF730FDA00703D5082143
:101D70002846FEF72AFD70BD0000004870B50446F5
:101D80000120C0070D4645400E462068FEF704FBC3
:101D900000D2266028462168FEF7FEFA00D22560B0
:101DA00070BD70B505460C467F2016461146C0052D
:101DB000FEF72DFA2146FEF732FA0446314628682E
:101DC000FEF72DFA2146FEF7D1F9286070BD10B557
:101DD000FEF762FA7F24E4052146FEF71CFAA042D2
:101DE00001DD204610BD0121C9078842FAD9002033
:101DF00010BD0000F8B50C225143144A05468C185A
:101E000060682060A06812496060FEF708FA064624
:101E100010492068FEF703FA07460F492846FEF7E7
:101E2000FEF93946FEF7A2F93146FEF79FF905465D
:101E3000A06001216068FEF76DFA06462946206819
:101E4000FEF794F93146FEF791F9F8BD88020020BB
:101E5000D0AF7D3F2D5793BE8EF7973D7D2708B5B8
:101E6000FF003846FFF7E8FBFFF722FD00F058FDC2
:101E700000F05CFE7F48FFF7DFFBFFF703FE00F09A
:101E800059FA0021084600F0CFFA0021012000F0A5
:101E9000CBFA0021032000F0C7FA0021022000F055
:101EA000C3FA00F013FC00F001FC002838D0FEF764
:101EB00045FF714901208872087100F0F1FA6F4EF8
:101EC00000240020FEF7B0FF3168FEF74FF93060C4
:101ED0003846FFF7B1FB641C402CF2DB0521C943F7
:101EE0003068FEF717FA3060FFF7FEFC00F0D7FA13
:101EF000FFF79CFE624DA88800F0C6FA7F38FEF717
:101F000015FA604C2060E88800F0BEFA7F38FEF7D2
:101F10000DFA60605C480068002803D0072020E0CC
:101F200004201EE0FFF7C0FC3062FFF7BDFC044652
:101F3000306A201AFEF705FAF061002802DC7F20E3
:101F4000C005F0615149FEF76AF95149F0618842D4
:101F500001DD062005E04C4834620068142802D9EF
:101F60000820FFF773FB00F0DBFBFFF713F9FFF727
:101F7000A3FD0020FEF758FFF168FEF750F9054673
:101F80000120FEF751FF01463C48424A0C30FFF762
:101F900008FF4148756001683E4A6846FFF701FF47
:101FA0003C4A29463548FFF7FCFE3069002800D03E
:101FB0003A483B49FEF7DAF805463A490098FEF7F9
:101FC0002EF93168FEF7D2F82946FEF7DBF903D384
:101FD00035493068884201DA012000E00020306194
:101FE00030490098FEF71BF93168FEF7BFF8B06082
:101FF0003069002801D0082108E02C48006800283A
:1020000006D02B480068002804D00F21294816E08C
:102010000C2113E07069002814D0B069002802D1A7
:10202000FFF742FCB061FFF73FFCB169411A21485C
:10203000814202D900207061B06108210D48FFF78C
:1020400065FE0AE00C48807A002803D0FF20FFF7E5
:1020500083FE02E0FF20FFF76DFEFEF7D1FF02E0F6
:102060000A20FFF7E9FAFFF71FFC001BB84200D374
:102070005BE7F5E7A0860100CC01002010000020FE
:1020800000F8FF1F5402002054010020BD378635A0
:102090000AD7A33C492E7F3F0C000020CDCCCC3D7D
:1020A000000060403333333FCDCC2C405000002043
:1020B0005C00002020A10700F3B58C00104E012128
:1020C00083B03059C943FEF725F93746103F0190D8
:1020D0003D590021C9432846FEF71CF90121009013
:1020E000C9430398FEF716F90099FEF73FF80199E6
:1020F000FEF73CF835510399395105B0F0BD0000A9
:10210000AC01002070B504467F20C005844201DD8B
:10211000044604E00120C007844200D90024094994
:102120002046FEF77CF8054621460846FEF777F87C
:102130000549FEF774F82946FEF718F80349FEF73B
:1021400015F870BDAE47E13E5C8F023FCDCC4C3DF3
:1021500010B50649087A401C8007800F8860283136
:10216000095C252000F06CFD10BD00004C00002033
:1021700010B5416800788007800DFF38FF380238BD
:102180000818FEF7D3F80821C943FEF7C3F810BDBD
:10219000F1B5574884B001680498564F564E8400F4
:1021A000002904D038595549FEF739F838515448B8
:1021B000002501594F480C300059FEF7E3F803D1D0
:1021C0003059002800DD01254D4801210059C9077B
:1021D000484048490C310959FEF7D4F804D1315927
:1021E0000120C007814226D8002D24D14148022178
:1021F000183005592846FEF78DF83E493C310959FB
:10220000FDF7B4FF31590091FDF7B0FF3D49FEF7EE
:1022100006F83D490959FEF702F83C490968FDF7FF
:10222000FEFF3959FDF7A2FF385132483C300551C5
:1022300024380099015132480C3001592D4820189A
:10224000FFF79CFD2B480C3805597F202946C00517
:10225000FDF7DDFF3159FDF7E2FF2B490C390F592E
:102260003946FDF7DCFF0190224E0120C0070C36F5
:1022700068403946FDF7D3FF254909590091FDF71C
:10228000CEFF0199FDF772FF1A490959FDF76EFF5C
:10229000039004983746C5001837E81901900021CB
:1022A0004068C943FEF736F800210290C943009800
:1022B000FEF730F80299FDF7AAFF13490C310959CE
:1022C000FDF7ADFF104910390968FDF7A8FF039924
:1022D000FDF7A1FF305101987959416000990848F4
:1022E00079510159A019FFF749FD305905B0F0BDEA
:1022F00000000020C402002080010020CDCC4C3F13
:10230000802C00087EAA2A3E340100202C000020E8
:102310004802002010B5044801680448FDF7BCFFDE
:102320000349086010BD00002C00002017B7513B86
:1023300024010020FEB5022569460D710320487175
:1023400000248C71CC7101212846FEF77BFA314FB5
:1023500031483946FFF78EFC01210E023046FEF768
:1023600071FA39462D4F3846FFF784FC2C4860211E
:10237000018001214180848106828460102009242B
:10238000E406009069462046FEF7D7F9042211467C
:102390002046FEF70AFA22493846FEF7E3FA4020C3
:1023A000009069462046FEF7C8F901220621204622
:1023B000FEF7FBF91A491848FEF7D4FA802000907E
:1023C00069462046FEF7B9F9012207212046FEF7AB
:1023D000ECF913491048FEF703FB124C69462046FE
:1023E0000095FEF7AAF9012211462046FEF7DDF915
:1023F0000B490948FEF73CFB01210748FEF79CFA10
:1024000001210548FEF7A2FA01213846FEF794FAA9
:10241000FEBD0000B70B000000040040002000409B
:102420000C0300200004004810B50A460446124977
:102430001046FDF7F4FEFDF78BFF002801DA0020BF
:1024400003E00E49884200DD0846002C09D0012C2B
:102450000CD00B49022C0CD0032C01D180B2886324
:1024600010BD074980B24031086010BD80B20549F7
:1024700000E080B2486310BD00703B45B70B000020
:1024800000040040002000400104FF22090ED24356
:102490001143C0B2C943884200D07F2070477047C3
:1024A00010B52648012181720022C27201710221F9
:1024B000234800F072FB6420FFF7BEF82048062195
:1024C000483000F06AFB0021012000F0B9FB012137
:1024D000022000F0B5FB0721062000F0B1FB0F2120
:1024E000112000F0ADFB0021042000F0A9FB032126
:1024F000084600F0A5FBE22000F060FB002105206B
:1025000000F09EFB38211D2000F09AFB00F002FA3B
:10251000FD2000F053FA002000F050FA00F0F4F92A
:102520008F21002000F08CFB0F2000F066FBC628F6
:1025300002D00320FFF78AF810BD0000CC01002074
:102540004C000020012040020921C906886102498F
:1025500001208860704700005801002001204002DF
:102560000921C90688610349088103490020886060
:102570007047000020000048580100200120034956
:10258000400208810249002088607047200000480E
:102590005801002010B5074C2068002801D100F038
:1025A00077F8012080020921C90688610120606056
:1025B00010BD00005801002010B5064C206800280E
:1025C00001D100F065F80120034980020881002054
:1025D000606010BD580100202000004870B590B028
:1025E00000206C4681006050401C0F28FADB8520DB
:1025F00000902248224D066822480196294600682C
:10260000FDF70DFEFDF7A4FE0104C0B2090E049013
:1026100003911D4829460068FDF701FEFDF798FE6D
:102620000104090EC0B2194D05910690286BC10F27
:1026300008184010FF2800DDFF200790002E03D06F
:102640000398082108430390002108468200A258FD
:10265000401C51180E28F9DBE1200E9100F0AEFA73
:102660008221002000F0ECFA0F21684600F0D4FA35
:10267000FFF71AF9686310B070BD00002000002059
:102680000000C84210000020180000204C0000206C
:1026900010B50549012008600C3108710920C006F9
:1026A000FEF74BF810BD00005801002010B5752052
:1026B000FFF7F5F9682807D0982805D07D2803D0C2
:1026C000722801D0002010BD012010BD10B580215E
:1026D0006B20FFF7EAF91148FEF7AEFF01216B20EE
:1026E000FFF7E3F97520FFF7DAF9682801D0012434
:1026F00000E0002418211C20FFF7D7F9002C03D09C
:1027000005211D20FFF7D1F918211B20FFF7CDF976
:1027100003211A20FFF7C9F910BD0000409C0000FA
:10272000F0B593B00E2269463B20FFF7AFF9009851
:1027300001990002401800B24042FDF7F7FD04463F
:10274000029803990002401800B22D4D4042FDF757
:10275000EDFD0646049805990002401800B2FDF709
:10276000E5FD6C600124E407A86066402E600898CF
:1027700009990002401800B2FDF7D8FD11900A989F
:102780000B990002401800B2FDF7D0FD10900C9894
:102790000D990002401800B2FDF7C8FD12902435D3
:1027A00029681098FDF733FD109069681198FDF7BE
:1027B0002EFD1190A9681298FDF729FD129010992D
:1027C00011986140109008466040119012982F4671
:1027D0006040002410AE183F1290A50070590949BE
:1027E000FDF71DFD0849FDF71AFD70512146FFF761
:1027F00001FB641C7851032CEFDB13B0F0BD00002B
:102800003C02002000007A3D35FA8E3CFEB50120E6
:10281000400200900124684604718471C47103254C
:1028200009274571FF0669463846FDF786FFA6026F
:10283000694638460096FDF780FF0848002106608B
:1028400001718471C47145710C384160046081600C
:10285000FFF7A0FEFFF776FEFEBD0000640100203A
:1028600070B50D460446FEF711FA60000446FEF707
:10287000E9F92846FEF7E6F9FEF7D6F9601CFEF7FF
:10288000E1F90120FEF796F9C4B2FEF711FA2046ED
:1028900070BDFFB581B01D46164607460024FEF701
:1028A000F5F978000746FEF7CDF90298FEF7CAF968
:1028B000FEF7BAF9781CFEF7C5F96D1E05E0002099
:1028C000FEF778F9A1007050641CAC42F7DB0120E0
:1028D000FEF770F9A1007050FEF7EAF905B0F0BDFF
:1028E00070B515460E460446FEF7D0F96000FEF7B7
:1028F000A9F93046FEF7A6F92846FEF7A3F9C4B2B7
:10290000FEF7D6F9204670BD014901208861704765
:102910000014004801490120088170472014004834
:10292000FEB501246846047100258571C471032633
:10293000467102200B4F009069463846FDF7FDFEB8
:10294000694638460094FDF7F8FE074804600571B3
:102950008571C471467101460920C006FDF7EDFE80
:10296000BC61FEBD0014004870010020F8B50F499D
:10297000092508680024ED06002806D0002008601C
:102980000B4908712846FDF7D8FE0720094B0126A0
:10299000094F022264009A61298AC90700D0344392
:1029A0003A81401EF6D52046F8BD00006C0100209B
:1029B000700100200014004820140048F8B50446B7
:1029C0000F4809260168F6060125002906D1056091
:1029D0000C48057101463046FDF7AFFE07210A4B52
:1029E0000A4F022022460A41D20701D0B56100E019
:1029F0001D81B861064A1081491EF3D5F8BD00005B
:102A00006C010020700100202000004800140048E4
:102A100020140048F8B53E4E3E4C70682146FDF744
:102A2000FEFB3D4D2946FDF7FAFB0746214630687F
:102A3000FDF7F5FB2946FDF7F2FB0446FEF732FEF3
:102A400005463846FEF72EFE06463846FEF720FEBF
:102A500007462046FEF71CFE3946FDF7E0FB04461C
:102A600031463046FDF7DBFB074629462846FDF791
:102A7000D6FB3946FDF77AFB2849074688420FDD29
:102A800021462046FDF7CBFB7F21C905FDF7C3FB9F
:102A900001463846FDF700FCFDF79EFE074600E0C4
:102AA0001F4F28463946FDF7BAFB0090304639469D
:102AB000FDF7B5FB1B4E0146B7683846FDF7AFFB87
:102AC000054621467068FDF7AAFB2946FDF79FFBE6
:102AD000154D214628603068FDF7A1FB04463846B5
:102AE0000099FDF79CFB2146FDF791FB7F24E4054F
:102AF000686021462846FFF741F92146281DFFF767
:102B00003DF903CD083D2960210248406860F8BDC9
:102B10008C01002000008C4235FA8E3C6F12833A03
:102B2000F4FD343FBC0000206C02002010B50848C2
:102B3000064941610749CA6903231202120A440483
:102B40002243CA6100218161036110BD7F8D5B005A
:102B500000E000E004ED00E010B509484269816939
:102B6000084C2068814201D2401A01E0521A101824
:102B700021600621FDF7D4FA61684018606010BD3D
:102B800000E000E07801002010B500229300CC584E
:102B9000521CC450032AF9DB10BD70B50D46064621
:102BA000FFF7B8FE002404E0305DFFF707FF641C68
:102BB000E4B2AC42F8D3FFF7A7FE70BD10B50446EF
:102BC000FFF7A8FE2046FFF7F9FEFFF79DFE002065
:102BD00010BD70B50D4606460024FFF79BFE612030
:102BE000FFF7ECFE04E0FFF7C1FEA1007050641C8B
:102BF000AC42F8DBFFF788FE70BD10B5C406E40EEA
:102C0000FFF788FE2046FFF7D9FEFFF7AFFE044628
:102C1000FFF77AFE204610BD70B50D46064600242B
:102C2000FFF778FEA020FFF7C9FE04E0A0003058AF
:102C3000FFF7C4FE641CAC42F8DBFFF765FE70BD15
:102C400070B58406A40E20200D460443FFF762FEF3
:102C50002046FFF7B3FE2846FFF7B0FEFFF754FE0D
:102C600070BD0C0100010003000C02000200030013
:102C70000C030003000300002A0000000000000015
:102C8000CDCC4C3FCDCC4C3F0000003FCDCC4C3F99
:102C9000CDCC4C3F0000003FBC2C000800000020C1
:102CA00080010000540400080C2D00088001002061
:102CB000A0050000820B0008D9DEFFFF32012904C5
:102CC000C12D666686400421EB803F1C011C0A1D55
:102CD000392D0326B80B02312A032C803F2D295CA5
:102CE0008F3D04812DCDCC4C3D04011C2D8FC2F5B0
:102CF0003D0438089A99193F666666042D9A999999
:0C2D00003E10290431092B8481000000E2
:04000005080000C926
:00000001FF
