:020000040800F2
:10000000E8070020C9000008EF000008D307000837
:1000100000000000000000000000000000000000E0
:10002000000000000000000000000000F3000008D5
:100030000000000000000000F5000008D5080008DE
:10004000F9000008F9000008F9000008F9000008AC
:10005000F9000008F9000008F9000008F90000089C
:1000600000000000F9000008F9000008F90000088D
:10007000F9000008F9000008F9000008F90000087C
:10008000F90000080000000000000000F90000086E
:1000900000000000F9000008F9000008F90000085D
:1000A00000000000F900000800000000F90000084E
:1000B0000448854600F0BCF900F048F800480047C5
:1000C000611E0008E80700200C4880F308880C48EF
:1000D0000168090E0B4A914205D10B480B4901609A
:1000E0000B480C4901600C4880470C480047FEE76C
:1000F000FEE7FEE7FEE7FEE7FEE70000E807002078
:10010000040000001F000000181002400100000061
:100110000000014000000000D9080008B1000008FC
:1001200030B50B46014600202022012409E00D468F
:10013000D5409D4205D31D469540491B2546954017
:1001400040191546521E002DF1DC30BD70B5054C2E
:10015000054D03E0206800198047241DAC42F9D109
:1001600070BD00008C2D0008902D0008F8B50246E7
:100170004A40D40F42004B0052085B089A4202D218
:100180000246084611464A0023D0C30D4A00DDB29C
:10019000120EAD1A202D35DA49020126490AF6055C
:1001A0008A19002C00D0524220214F1B1146B94021
:1001B0002A411018C20D9A4221D0002C17D0012DCF
:1001C00008DCDA05801AD20F8019D207DBB200F002
:1001D000F5F8F8BDDA05801A012340001B06C018A7
:1001E00080185A428018CA0F1043490007E0490896
:1001F000C2071143DA05801A80194008801800F000
:10020000D5F8F8BD61000122511A001BF7E7012261
:10021000D2075140AAE70122D2075040A6E7024682
:1002200070B54A40D30FDB0740002DD04A002AD0DA
:10023000010E140E000212020919400A520A841813
:10024000E50104465443000A120A2E045043A4193F
:100250004219200CC543AA18120C0125AD03521CEB
:10026000521912047F39240400D0521C104301D4C7
:100270004000491EC2B20C06C0092018401C4008AC
:10028000802A02D003E0002070BD40084000002911
:1002900000DA0020184370BD70B502464A40D50F01
:1002A00040004A00ED0740085208002814D0002AF8
:1002B00012D0C40DD30D41020120C0055202490ADB
:1002C000520AE41A091812187D34914201D3641CB1
:1002D00000E04900002C01DA002070BD00239142AB
:1002E00001D3891A0343400849000028F7D10029A7
:1002F0000AD0914202D10121C90705E0914201D201
:10030000012101E00121C943E005C018401900F0B6
:100310004DF870BD420005D04200120E52428A4292
:1003200001DB00207047C90508187047C217C10FCC
:10033000504010B54018CA079623002100F03EF83F
:1003400010BD10B500229623114600F037F810BDFD
:10035000C20F410040020123400ADB05D207090E0B
:10036000C0187F2901DA00207047962903DC962304
:10037000591AC84001E096398840002AF4D040421A
:10038000704700000122D207002800DB101A002964
:1003900000DB511A814270470122D207002800DB9E
:1003A000101A002900DB511A88427047002904DA2C
:1003B000401C490001D140084000704770B400243F
:1003C000050C05D11024000402D1002921D01124EC
:1003D000050E01D100020834050F01D10001241DD2
:1003E000850F01D18000A41C002801DB4000641CA3
:1003F000002908D020252E1B0D46F540A14000D035
:1004000001212943084301061B1B000ADB1D02D5FD
:10041000002070BC7047DB05181880180029F8DA36
:10042000401C4900F5D170BC4008400070470000F6
:10043000064C0125064E05E0E36807CC2B430C3C37
:1004400098471034B442F7D3FFF736FE6C2D0008FE
:100450008C2D000870B58C180578401C6B075B0F5D
:1004600001D10378401C2A1106D10278401C03E018
:1004700006780E70401C491C5B1EF9D12B0705D471
:100480000023521E0DD40B70491CFAE70378401C60
:10049000CB1A921C03E01D780D70491C5B1C521E88
:1004A000F9D5A142D8D3002070BD836A0B43836283
:1004B000426170470029816801D0012200E00222D8
:1004C0001143816070470029C16802D001221143A5
:1004D00001E049084900C1607047C26802239A439D
:1004E000C260C2680A43C26070478268002101236B
:1004F000DB071A4382600F231B038268491CD20F5B
:10050000D207994201D0002AF7D18168002901DB86
:10051000006C70470020704730B5C268084B8C688B
:100520001A400B680D792343CC686D032C43234399
:100530000C69496923430B431343C36030BD00007A
:1005400003D2FFFF816804221143816070470021BC
:10055000016001718160C16001614161704700000B
:100560000122054992050028886801D0104300E067
:10057000904388607047000000270140002901680F
:1005800002D00122114301E0014A1140016070478D
:10059000FEFF000030B503680C4A0C6A13408A68FD
:1005A0004D6922430C692C4322438C692243CC6958
:1005B00022434C6A22438C6A22431A430260CA686F
:1005C00042600A6882604968C16030BD0F80FFFFE9
:1005D00008490420CA68D20701D001207047CA68C0
:1005E000D20601D502207047C9684907FBD5032010
:1005F0007047000000200240024801698022114338
:100600000161704700200240F0B5AA2400F036F8DE
:10061000002800D000240B273F04384600F07CF867
:10062000042813D1134D28692026304328612869F6
:10063000402108432861384600F06EF81021042854
:1006400005D0052802D02A698A432A61F0BD2869AD
:10065000B043286128690E4630432861064804806B
:10066000384600F059F80528F0D02969B1432961CE
:10067000F0BD00000020024000F8FF1F03490020E9
:10068000C9694907890F00D0012070470020024046
:100690000248016942159143016170470020024000
:1006A000F0B507460B200E46000400F035F804288C
:1006B0000ED1084C20691025284320613E800B2074
:1006C000000400F029F8052802D02169A94321611E
:1006D000F0BD00000020024004480169890503D4F0
:1006E0000349816003498160704700000020024097
:1006F00023016745AB89EFCD04480169090603D59D
:1007000003494160034941607047000000200240F6
:1007100023016745AB89EFCD00B50346FFF758FFCE
:1007200002E0FFF755FF5B1E012803D0002B00D12C
:10073000052000BD002BF4D1FAE7F0B50022032517
:1007400001230C6893401C409C422AD10C79012C57
:1007500001D0022C12D1876854002E46A640B74320
:1007600087604E79A64084682643866084889C43CF
:10077000848084888B7993401C438480066853006E
:100780002C469C40A64306600E7907689E403E4377
:100790000660C668A643C660CC799C40C3681C430B
:1007A000C460521C102ACBD3F0BD4B07DB0E9A401D
:1007B000C90810B589000818016A0F249C40A1439C
:1007C0000162016A1143016210BD018570478161B8
:1007D0007047052000F03CFF70B5FF25002104465E
:1007E000AD05C943FFF796FD06460F4960100C1A88
:1007F00021463046FFF713FD2146FFF710FD29463D
:10080000FFF709FD2146FFF70AFD04460146304681
:10081000FFF705FD2146FFF702FD2946FFF7FBFC28
:100820002146FFF7FCFC70BDDF59375F044A002901
:10083000516901D0014300E08143516170470000DC
:1008400000100240044A0029D16901D0014300E0B0
:100850008143D1617047000000100240044A002922
:10086000916901D0014300E081439161704700002C
:10087000001002400CB50020009001901349112097
:1008800008601348416841604168416041687B22CB
:10089000D2039143416041680522D2041143416073
:1008A0000168012212061143016001688901FCD52B
:1008B0004168890889004160416802221143416012
:1008C00041680907890F0229FAD10CBD00200240B6
:1008D000001002407047000010B514480168012262
:1008E000114301604168124A114041600168114A98
:1008F0001140016001680122920491430160416846
:100900003F22120491434160C16A09090901C16291
:10091000016BFF22543291430163416B4908490046
:10092000416300218160FFF7A5FF10BD0010024068
:100930000CB8FF08FFFFF6FE0029018802D0012253
:10094000114301E049084900018070474030002907
:10095000818803D00122D203114301E04904490CEC
:100960008180704770B5028C520852000284048C5A
:100970008288038B7025AB439B080D889B001D4329
:1009800002239C438E894B882643104C3343A0425C
:1009900008D00F4CA04205D00E4CA04202D00E4C05
:1009A000A0420DD10824A343CC891C4304239C43BB
:1009B0008B882343094C22400C8A14434A8A2243E1
:1009C0008280058389684163038470BD002C0140E7
:1009D000004001400044014000480140FFFC00008D
:1009E00070B5028C10239A430284048C8288038B96
:1009F0001A4D2B400D782D062D0C1D4320239C43B2
:100A00008B891B051E0C4B8826431B051B0C144CA5
:100A10003343A04202D0134EB04219D1124E32409D
:100A20000E8AB604360C3243A04211D18024A3436F
:100A3000CC892405240C1C4340239C438B881B0534
:100A40001B0C2343094C22404C8AA404240C22434F
:100A50008280058389688163038470BDFF8C0000F8
:100A6000002C014000400140FFFB0000FFF70000A8
:100A700030B5028C124B1A400284058C8288838B1D
:100A8000104C23400C782406240C1C430E4B1D40B4
:100A90000B7B1B071B0C2B438D782D072D0C1D4347
:100AA0000A4B984205D10A4B13400A8A9205120C50
:100AB0001A438280848389680164058430BD000004
:100AC000FFEF0000FF8C0000FFDF0000002C014062
:100AD000FFBF000010B50288144B984206D00124D5
:100AE000A407A04202D0124CA04203D17024A2431A
:100AF0004C8822430F4CA04203D00F4C22400C895B
:100B0000224302804A68C2620A880285984208D05D
:100B10000A4A904205D00A4A904202D0094A9042BD
:100B200001D1897A01860121818210BD002C01400A
:100B30000004004000100040FFFC000000400140A5
:100B400000440140004801400021016041607047BD
:100B5000FFB581B01C4617460E0007D0019D02E08C
:100B60002846B047ED192046641EF9D2019805B019
:100B7000F0BD02E008C8121F08C1002AFAD1704770
:100B80007047002001E001C1121F002AFBD170470D
:100B900010B503230C2204490448FFF7D9FF044889
:100BA0000021016010BD0000490B00084C0300202B
:100BB000F000002070B5174D064668680024002834
:100BC00001D101F051FD2868002801D101F0CAFDD2
:100BD0000722012301F020FD00F01EF8002803D0B9
:100BE000184690402043C4B201F032FD521EF1D5A8
:100BF000002E02D001F038FD01E001F047FD01F0C8
:100C00000BFD01F025FD6868002801D001F03EFDD4
:100C1000204670BD5C0100200920C006008A012129
:100C2000890208407047000010B505484068002858
:100C300001D101F019FD01F0EFFC01F027FD10BD1D
:100C40005C01002070B5104E0546B068012801D146
:100C500001F0FEFC072428462041C00702D001F025
:100C600003FD01E001F012FD01F0E2FC641EF2D58B
:100C70007068002801D101F0F7FC01F0CDFC01F013
:100C8000E7FC384670BD00005C01002010B5074A43
:100C90009068002801D101F0BFFC5068012803D101
:100CA000FFF7BAFF01F0F2FC10BD00005C0100206C
:100CB00010B5084C6068012804D1A068002806D14E
:100CC00001F0E4FCA068002801D101F0A5FC01F0CE
:100CD000CBFC10BD5C010020F8B5154E4520000688
:100CE00037460025183FB06001F084FD0024A000C5
:100CF000395880190F4A01F056F8641C032CF6DBB2
:100D000000F0D4FDFF20F5306D1C8542ECDB452161
:100D10000906B068FFF77BFA074D0024B060A00019
:100D20008019294601F02CF8641C032CF7DBF8BD70
:100D3000180300201F856B3F0000FE4270B592B083
:100D4000202503206946069508770024CC770920E2
:100D500006A9C006FFF7F1FC01214802FFF77EFD5E
:100D600001210846FFF762FD2A4806902A480790AD
:100D70000220099080200B9040000C900894800085
:100D80000E950D900A94C000244D0F9006A9109462
:100D90002846FFF7FFFB1F4E0221403E3046FFF77B
:100DA0009CFB01213046FFF78EFB6846FFF7CFFB27
:100DB000012069460094087104200590029404946F
:100DC0003046FFF7A9FB0121072249043046FFF70F
:100DD0006CFB072220213046FFF767FB0120FFF75D
:100DE000BFFB3046FFF781FB01213046FFF762FB76
:100DF0003046FFF7A7FB01212846FFF7BFFB084855
:100E00000088FFF79EFA0749FFF709FA0249486090
:100E100012B070BD40240140500100200800024083
:100E2000BAF7FF1F62DB963F10B50B49002803D0CD
:100E3000012808D0002010BD0888FFF782FA074972
:100E4000FFF7EDF910BD4888FFF77BFA014602482D
:100E50004068FFF721FA10BD500100203FC8B23AA8
:100E6000F8B52E492E4D09688400002904D0285970
:100E70002C49FFF7D4F92851294B2B4F0833195926
:100E800000202A4AB94203D11659002E00DD012064
:100E9000274B284E994203D11159DA0791420FD8B6
:100EA00000280DD11E48103801593059FFF7B7F905
:100EB00021490968FFF7B3F92959FFF757F9285174
:100EC0006019194900F05CFF154837591838015965
:100ED0003846FFF7A4F9124E29590836FFF746F9AC
:100EE00005463046083001593846FFF790F931463B
:100EF00010390959FFF793F910490968FFF78FF97D
:100F00002946FFF788F93051304608300751A019BB
:100F1000054900F035FF3059F8BD00000000002001
:100F200010010020CDCC4C3FDB0FC9400C0300204A
:100F3000DB0FC9C070030020300000202801002012
:100F400070B5184C606A002804D00025012809D02B
:100F5000656270BD0120E06001F0AAFB606A401C80
:100F6000606270BD172001F0B2FEC00608D58F2167
:100F7000002001F0CFFE6562E56001F053F970BD1D
:100F800000F094FC616B401A07498842F7D9E120D0
:100F900001F07EFE8F21002001F0BCFE6562E5605D
:100FA00070BD0000500000201027000070B5002523
:100FB00006462C46A00030580146FFF730F9294676
:100FC000FFF7D4F8641CE4B20546032CF2D3FFF714
:100FD00003FC01467F20C005FFF75EF970BD30B508
:100FE000002207239C1A6418203C855CE47FA542FC
:100FF00001D0002030BD521C072AF3DB012030BD98
:10100000FEB5072001F063FE0007400F002507280A
:1010100001D0022000E028460126584C002859D073
:10102000606800281DD000F041FC07460F2154489D
:1010300001F039FE00F09AFA00284BD0E06A401C1B
:10104000E062E069002801D0FFF77AFF6561A561E1
:10105000A068A763E76325616064E068002837D073
:101060003BE00F21464801F01EFE454B1868A428BE
:1010700001D0A3282ED1A32802D14248E6612062E4
:101080003E4F187E28373870187F7870188CB870EB
:10109000988CF8703C486A4603C800900191012082
:1010A0008100595C1154401C0628F9DB06211046CA
:1010B00001F0DDFD3020694608700621684601F028
:1010C000D6FDA068395C252001F024FE666001E0B1
:1010D00001F0A8F8E068002801D0FFF731FF00F028
:1010E000E5FB0746A06B391A206A82007D20C0000C
:1010F000101881420BD96068002808D0A763A06946
:10110000002801D1606CA06001F08CF8A661E16854
:10111000A069084319D160690090052815D260685C
:10112000002812D0A06B7D21381AC90088420CD942
:10113000216AFEF7F5FF01460098401C814204D366
:1011400001F070F86069401C6061E06B381A0F4F65
:10115000B84205D90E482661056045608560C560C6
:1011600000F0A4FB216C401AB84205D9E06AE562A0
:10117000206300F09BFB2064FEBD000050000020B7
:10118000C4020020881300004C2D000840420F00CC
:101190009C020020F0B5D54F7F267878F60587B001
:1011A000002801D13F2636060024D148A500405929
:1011B0003146FFF734F8CF49641C4851032CF4DB67
:1011C000CD480026006800282AD000F0EDFA00285B
:1011D00026D0032807D00121C84A022811601CD05C
:1011E00001281CD01CE000F081FBFFF775FDC44D09
:1011F000C4496868FEF7BAFFFFF7AAF80446C14978
:101200002868FEF7B3FFFFF7A3F8214600F080FA45
:1012100000F04CFBBC49086002E0397100E03E710F
:1012200001F0E2F8B1480078002803D0B748006820
:1012300000282FD0AF4CB6492068FEF7F0FFB54923
:10124000FEF7EDFFB44D2968FEF7E1FF27460C3F9E
:101250003860AF496068FEF7E2FFAE49FEF7DFFF96
:101260006968FEF7D4FF7860A949A068FEF7D7FF48
:10127000A849FEF7D4FFA968FEF7C9FFB860A74FD9
:101280000024A5007859A649FEF7C9FF641C7851CF
:10129000012CF6DD002000F0E5FF012000F0E2FF68
:1012A000022000F0DFFF92489E49C068884201DAC0
:1012B000002505E0FEF7ABFF9B49FEF7B0FF0546B2
:1012C0009A480068002802D1994885421BDA8A4D65
:1012D0006868002807D000F0E9FA6968401A954963
:1012E000884200D96E600024E0B2002101F006F9C6
:1012F0002146002000F04AFF641C032CF4DD01208D
:10130000EE602860A4E07C4E0020306000F0CEFA51
:10131000706089480068002801D08848C5688848FE
:10132000002401688748884F814205DAFEF76FFF85
:101330003946FEF774FF04468448016884488142B8
:1013400005DAFEF764FF3946FEF769FF04467F279A
:10135000FF05BC4201DD3C4601E0002C07DD7D4974
:101360002046FEF75CFFB168FEF700FF03E070491E
:10137000B068FEF74CFF3F210906B060884201DDEE
:10138000B16005E00121C907884201D90020B060A1
:10139000594881682046FEF7E9FE2946FEF73BFFE3
:1013A0006D4C064625682946FEF731FF05906168B9
:1013B0000491FEF72CFFA4682146FEF7D7FE0390A8
:1013C00029463046FEF7D2FE05460499FEF71FFF78
:1013D0002146FEF71CFF019004990598FEF7C6FE12
:1013E0002146FEF714FF029028460499FEF7BEFE40
:1013F0002146FEF7BBFE009000203F4904466E46A2
:10140000C860A5007059214600F0C0FE705100F080
:10141000E3FE0146E0B201F071F870590121C907FD
:10142000884202D90020705102E0B84200DD7751B5
:101430007159314DE868FEF799FE641CE860032C91
:10144000DFDD01212C46C943E068FEF763FFE06061
:1014500026480078002846D02C480068002842D151
:1014600001F042FB23482A498068FEF7D8FE29494B
:10147000FEF7D5FE0546394C29466068FEF7CFFEDB
:10148000009001212068C90748402946FEF7C7FEA1
:1014900001902946A068FEF7C2FE314C314D029002
:1014A00029462068FEF7BBFE2F4E29463060606853
:1014B000FEF7B5FE70600F4F0024174E0C3F20461C
:1014C000FFF7CEFCA50069464959FEF74FFE71595A
:1014D000FEF79DFE641C7851022CF0DBB168029887
:1014E000FEF795FEB86007B0F0BD0000D001002007
:1014F0009C02002090010020000000202400002019
:10150000180300200000FE4234000020CC00002020
:101510000000344435FA8E3C0C03002010010020FA
:10152000CDCC4C3FCDCCCC3DE4388E3F600000208C
:101530006F12833A40420F00D40000203C03002089
:1015400010000020CDCC2C400000404018000020AE
:101550003333534017B7D13894030020C000002024
:1015600030030020E12E654270030020F8B52D4CB9
:101570002068A52853D1002108468200A258401CAB
:1015800051180E28F9DBC8B2A16B884247D1254813
:10159000103000F057FE244D28602248183000F02B
:1015A00051FE68601F48283000F04CFEA860208C77
:1015B000616A8007800D4018FEF7B8FE1B49FEF7F0
:1015C0002EFEE860207B1A4D0006C00FA871A068AF
:1015D000C106C90FE9718106C90F29720107C90F38
:1015E00029706168FA2918D0002169708107C90F34
:1015F000C007A970C00FE87000200E4B0E4C0746C4
:1016000001261F54225C295C8A4200D01E542154BA
:10161000401C0A28F5DB0120F8BD0121E5E7002088
:10162000F8BD0000C40200209C020020F7FF7F3AB2
:10163000D0010020B8020020AC02002008B58100D3
:1016400040180090411E009101D30846FAE708BDFA
:1016500006460024E0B2002100F050FF641C032C79
:10166000F8DD0B4DAF0000240CE0FF2000F076FB0E
:101670002846FFF7E3FFFF2000F05EFB2846FFF758
:10168000DDFF641CB442F0DB3846FFF7D7FFEAE722
:10169000400D030010B50349FEF768FD00F004F8A3
:1016A00010BD0000DB0FC93F70B50446134E144D4A
:1016B00003E03146FEF75AFD0446AC42F9D8114D1D
:1016C000AC4204DD3146FEF7A2FD0446F8E70120F6
:1016D000C0070D490D4D8442204605D9FEF79FFDF8
:1016E0002946FEF743FD04E0FEF799FD2946FEF783
:1016F00092FD2146FEF793FD70BD0000DB0FC9404F
:10170000DB0F49C0DB0F49407B81CF3E83F9A23F0D
:1017100070B50D460446FEF7EFFFFEF7DDFFFEF75E
:1017200073FFE1B20648FEF7BBFF0548E9B2801C33
:10173000FEF7B6FFFEF760FFFEF7AAFF002070BDC0
:1017400004F8FF1F30B5164C2178814226D00721BE
:101750006218203AD27F6254491E0129F8DA2070BB
:1017600010490F48FFF73BFC7F25002802D0657029
:10177000012030BD0B490A48C91DFFF730FC002885
:1017800002D06570022030BD064905480E31FFF7D2
:1017900026FC002802D06570032030BD002030BD3B
:1017A00048000020362D000870B53748374C0068D7
:1017B000002864D0364B37481A68510049088142E6
:1017C0000BDA9D686D006D08854206DA5D686D0074
:1017D0006D08854201DA00202FE02F4DAA4202D881
:1017E0009E68AE4206D95E6876007608864201DAC7
:1017F000012022E0294EB24202DC9A68B24206DDA4
:101800005A6852005208824201DA022015E05A68F2
:10181000AA4208D9814206DA9D686D006D088542AA
:1018200001DA032009E0B24208DD814206DA996854
:1018300049004908814201DA0420206000F036F8AE
:1018400006CC083C914200D0E060E268801A144A5D
:1018500090420FD9002904D1124A904201D90C209C
:1018600005E0114A904204D97F2903D0FF20A060EF
:1018700000E0A1606160A068FFF764FF70BD7F2099
:10188000A0606060002070BD0000002038000020D3
:101890009C020020CDCC4C3E333333BF3333333F37
:1018A000A086010040420F0020A1070010B501F002
:1018B000BDF910BD1CB5232001214004FEF7B6FF81
:1018C00001206946087100208871C87103204871A1
:1018D00004200924E40600902046FEF72EFF08218C
:1018E000009169462046FEF728FF1CBDF0B591B077
:1018F000FFF7DCFF0F9005460B900A900020810057
:10190000574B0CAA5B58401C53500328F7DB8CE064
:101910000A980A95281A099001D1012009900622F7
:101920006946432000F0B4F800980199000240187D
:1019300000B2FEF7FBFC07900298039900024018E2
:1019400000B2FEF7F3FC06900498059900024018D7
:1019500000B2FEF7EBFC434E0890307800F098F9A7
:1019600020464149FEF7DCFB4048814201D9012174
:1019700000E000213068C207D20F914201D0401C24
:101980003060384801780907090F00260160B4006B
:101990000CAF06A839590059FEF7FEFC04D238599D
:1019A0003349FEF7E3FB385106A839590059FEF7D1
:1019B000E9FC04D238592E49FEF729FC3851E019C8
:1019C0002C4900F0DDF938592B4940004008FEF75A
:1019D000CDFB014606AF385940004008FEF7DCFC5D
:1019E00006D2FFF763FF0B901E48012101600BE058
:1019F0000998FEF7A6FC214900F0EBF902461848C9
:101A00003959201800F0CFF9761C032EBFDB7D2456
:101A1000E400FFF74BFF401BA04203D20A20FFF770
:101A20000DFEF6E7FFF742FF05460B982C1A144807
:101A3000844205D20F981349281A884200D267E7DA
:101A40000B98291A0E48814207D20020044A014609
:101A50008300401CD1500328FADB11B0F0BD000018
:101A600024030020B400002024F40000127A0000B7
:101A7000CDCCCC3D000048440000C8420024F448CE
:101A800080841E00C0E1E40010B500F029FF10BD05
:101A900013460A4610B50146682000F064FF012095
:101AA00010BD10B50146682000F044FF10BD0A4685
:101AB00010B50146682000F07DFF10BDF0B58FB075
:101AC00053490CA801F0CAF8FFF7F0FE504D044648
:101AD000083D6868201AFEF734FC7F26F6056C6026
:101AE000B04201DA304603E04A49884200DD084648
:101AF0004949FEF794FB494C0090494D21682868FC
:101B0000FEF785FB286061686868FEF780FB0024AB
:101B10006860A7000A21E859C943FEF7FBFB641C73
:101B2000E851032CF5DB00243E48A700C05900997A
:101B3000FEF775FB09A9641CC851032CF4DB0C9952
:101B40000998FEF76CFB0E99FEF765FB01460E90B7
:101B50000998FEF764FB0C99FEF708FB0C900E99B0
:101B60000A98FEF75CFB0D99FEF700FB01460D900D
:101B70000A98FEF754FB0E99FEF74DFB0E900D9957
:101B80000B98FEF74CFB0C99FEF745FB01460C90B9
:101B90000B98FEF744FB0D99FEF7E8FA0D902048EC
:101BA000FFF704FA2049214A4118914225D2014603
:101BB00000243046FEF770FB0746A6003846A959B8
:101BC000FEF72DFB641CA851032CF6DB01218907CD
:101BD000009800F0FEF8074600240CAEA00029583B
:101BE00080193A4600F0DFF8641C032CF6DB084944
:101BF00008390868401C086003E0054800210838DF
:101C000001600CA9024801F029F80FB0F0BD0000F6
:101C1000C000002000409C46BD37863518030020D8
:101C2000000300200C030020CCCCCCC03233730066
:101C3000F8B500250D4F00F0DDFD0024A6000A21B7
:101C4000B859C943FEF766FB01460948094A3018EE
:101C500000F0A9F8641C032CF0DB7D20C000FFF726
:101C6000EDFC6D1C642DE6DBF8BD000000030020D8
:101C7000C00000209A99593F0EB500226B461A8089
:101C80005A8001911A819A726946FEF723FF0EBDB0
:101C900070B50646FFF70AFE194C21692061451A06
:101CA0003046FEF74EFB1749FEF7B9FA064601210A
:101CB000204689070C3000F063F82846FEF741FB08
:101CC000054630466168FEF7A2FA2946FEF7A7FAF4
:101CD0000D49FEF7A4FAE168FEF748FA0B49E06007
:101CE000884205DDFF2000F039F87F20C00503E0C1
:101CF000FF2000F021F800206060002070BD00008F
:101D0000A00000208988883D6F12833A48E1FA3E9E
:101D100070B50D460446FFF7C9FD2146FEF700FAEF
:101D20006C432009814203D90F2000F017F870BDE1
:101D30000F2000F001F870BD70B50446064DC007D5
:101D400003D004212846FEF742FDA00703D5082151
:101D50002846FEF73CFD70BD0000004870B5044603
:101D6000064DC00703D004212846FEF72EFDA0072C
:101D700003D508212846FEF728FD70BD0000004865
:101D800070B504460120C0070D4645400E46206848
:101D9000FEF702FB00D2266028462168FEF7FCFA17
:101DA00000D2256070BD70B505460C467F201646F2
:101DB0001146C005FEF72BFA2146FEF730FA04461D
:101DC00031462868FEF72BFA2146FEF7CFF9286046
:101DD00070BD10B5FEF760FA7F24E4052146FEF7DA
:101DE0001AFAA04201DD204610BD0121C907884230
:101DF000FAD9002010BD0000F8B50C225143144A56
:101E000005468C1860682060A06812496060FEF783
:101E100006FA064610492068FEF701FA07460F4900
:101E20002846FEF7FCF93946FEF7A0F93146FEF7E1
:101E30009DF90546A06001216068FEF76BFA064631
:101E400029462068FEF792F93146FEF78FF9F8BD72
:101E50004C030020D0AF7D3F2D5793BE8EF7973DAA
:101E60001FB57D20C000FFF7E9FBFFF723FD00F061
:101E7000C1FD00F0C5FEB348FFF7E0FBFFF704FE2D
:101E800000F0C2FA0021084600F038FB00210120D2
:101E900000F034FB0021032000F030FB0021022081
:101EA00000F02CFB00F07CFC00F06AFC002839D02C
:101EB000FEF744FFA44901208872087100F05AFB24
:101EC000A24D00240020FEF7AFFF2968FEF74EF96F
:101ED00028607D20C000FFF7B1FB641C402CF1DBC3
:101EE0000521C9432868FEF715FA2860FFF7FEFCB4
:101EF00000F03FFBFFF79CFE954CA08800F02EFB06
:101F00007F38FEF713FA934E3060E08800F026FB2E
:101F10007F38FEF70BFA70608F480068002803D006
:101F2000072021E004201FE0FFF7C0FC6862FFF7F4
:101F3000BDFC864C0646606A301AFEF702FA206243
:101F4000002802DC7F20C00520628449FEF767F983
:101F500083492062884201DD062005E07E486662F2
:101F60000068142802D90820FFF772FB00F042FC39
:101F7000FFF710F9FFF7A2FD0020FEF755FF734FA2
:101F8000F968FEF74CF904460120FEF74DFF0146C3
:101F9000744D38462A460C30FFF705FF72487C60C6
:101FA00001682A466846FFF7FEFE2A462146384663
:101FB000FFF7F9FE644800259C3000680190FC6939
:101FC0002046FEF7B3F96949FEF729F90099FEF7B3
:101FD00026F93968FEF7CAF85B49A4006C3108514C
:101FE000074603900846303801596048814202DABA
:101FF00055483C30075154485D490C300059FEF7B4
:102000000EF9029050483C3001593846FEF7FFF86F
:102010000299FEF7ABF84C4A03993C321151114634
:10202000303908511746410060374908E019514AD4
:10203000FFF7B9FE4549C869401CC8610C2801DB9F
:102040000020C86100244048A7009C30C059019975
:10205000FEF798F904D23C4825469C30C0590190BF
:10206000641C0C2CEFDB394C6D1C2069002800D05F
:102070003E484149FEF77AF807462846FEF756F9EA
:102080003A49FEF7CCF805460099FEF7C8F82168F2
:10209000FEF76CF83946FEF775F903D33749206827
:1020A000884201DA012000E00020206128460099E2
:1020B000FEF7B5F82168FEF759F8A06020690028FE
:1020C00001D0082108E02E480068002806D02D48DD
:1020D0000068002804D00F212B4816E00C2113E0E3
:1020E0006069002814D0A069002802D1FFF7DEFB48
:1020F000A061FFF7DBFBA169411A2348814202D9A5
:1021000000206061A06108210E48FFF701FE0AE08F
:102110000D48807A002803D0FF20FFF71FFE02E061
:10212000FF20FFF709FEFEF76BFF7D24E40002E0CD
:102130000A20FFF783FAFFF7B9FB801BA04200D308
:10214000F5E6F5E7A0860100D00100201000002090
:1021500000F8FF1F1803002058010020BD37863506
:102160000AD7A33C492E7F3F0C000020CDCCCC3DAC
:1021700091ED7C3F5BB17F3F00006040CDCC2C40B7
:10218000540000206000002020A10700F3B58C005F
:10219000104E012183B03059C943FEF7BBF83746D2
:1021A000103F01903D590021C9432846FEF7B2F87F
:1021B00001210090C9430398FEF7ACF80099FDF7A0
:1021C000D5FF0199FDF7D2FF35510399395105B07B
:1021D000F0BD0000B001002070B504467F20C005AE
:1021E000844201DD044604E00120C007844200D996
:1021F000002409492046FEF712F805462146084604
:10220000FEF70DF80549FEF70AF82946FDF7AEFF7F
:102210000349FDF7ABFF70BD7593583F7593183EAA
:102220000AD7A33B10B50649087A401C8007800FE7
:1022300088602831095C252000F06CFD10BD00008D
:102240005000002010B5416800788007800DFF38ED
:10225000FF3802380818FEF769F80821C943FEF76D
:1022600059F810BDF1B5574884B001680498564F2D
:10227000564E8400002904D038595549FDF7CFFF48
:1022800038515448002501594F480C300059FEF789
:1022900079F803D13059002800DD01254D4801218E
:1022A0000059C907484048490C310959FEF76AF8F6
:1022B00004D131590120C007814226D8002D24D1F4
:1022C00041480221183005592846FEF723F83E49B7
:1022D0003C310959FDF74AFF31590091FDF746FF9E
:1022E0003D49FDF79CFF3D490959FDF798FF3C49E1
:1022F0000968FDF794FF3959FDF738FF3851324826
:102300003C30055124380099015132480C300159B4
:102310002D482018FFF734FD2B480C3805597F2035
:102320002946C005FDF773FF3159FDF778FF2B49AA
:102330000C390F593946FDF772FF0190224E0120EA
:10234000C0070C3668403946FDF769FF2549095931
:102350000091FDF764FF0199FDF708FF1A4909593B
:10236000FDF704FF039004983746C5001837E819B5
:10237000019000214068C943FDF7CCFF0021029085
:10238000C9430098FDF7C6FF0299FDF740FF1349C6
:102390000C310959FDF743FF104910390968FDF761
:1023A0003EFF0399FDF737FF30510198795941609D
:1023B0000099084879510159A019FFF7E1FC3059FB
:1023C00005B0F0BD0000002088030020840100203B
:1023D000CDCC4C3F542D00087EAA2A3E3801002067
:1023E000300000200C03002010B5044801680448A8
:1023F000FDF752FF0349086010BD000030000020C7
:1024000017B7513B28010020FEB5022569460D7122
:102410000320487100248C71CC7101212846FEF7FD
:1024200011FA314F31483946FFF726FC01210E02DF
:102430003046FEF707FA39462D4F3846FFF71CFCA9
:102440002C486021018001214180848106828460C2
:1024500010200924E406009069462046FEF76DF935
:10246000042211462046FEF7A0F922493846FEF71D
:1024700079FA4020009069462046FEF75EF9012275
:1024800006212046FEF791F91A491848FEF76AFA24
:102490008020009069462046FEF74FF9012207216F
:1024A0002046FEF782F913491048FEF799FA124CBC
:1024B000694620460095FEF740F901221146204664
:1024C000FEF773F90B490948FEF7D2FA01210748D4
:1024D000FEF732FA01210548FEF738FA01213846A5
:1024E000FEF72AFAFEBD0000CF07000000040040FE
:1024F00000200040D00300200004004810B50A4628
:10250000044612491046FDF78AFEFDF721FF002818
:1025100001DA002003E00E49884200DD0846002C65
:1025200009D0012C0CD00B49022C0CD0032C01D16A
:1025300080B2886310BD074980B24031086010BD89
:1025400080B2054900E080B2486310BD00E0F94464
:10255000CF07000000040040002000400104FF22DB
:10256000090ED2431143C0B2C943884200D07F2034
:102570007047704710B52648012181720022C2724F
:1025800001710221234800F072FB6420FFF756F826
:1025900020480621483000F06AFB0021012000F0AD
:1025A000B9FB0121022000F0B5FB0721062000F055
:1025B000B1FB0F21112000F0ADFB0021042000F041
:1025C000A9FB0321084600F0A5FBE22000F060FB18
:1025D0000021052000F09EFB38211D2000F09AFB11
:1025E00000F002FAFD2000F053FA002000F050FA4B
:1025F00000F0F4F98F21002000F08CFB0F2000F098
:1026000066FBC62802D00320FFF722F810BD0000A9
:10261000D001002050000020012040020921C906FD
:102620008861024901208860704700005C01002039
:10263000012040020921C906886103490881034934
:102640000020886070470000200000485C010020E6
:102650000120034940020881024900208860704738
:10266000200000485C01002010B5074C20680028BD
:1026700001D100F077F8012080020921C9068861A4
:102680000120606010BD00005C01002010B5064C08
:102690002068002801D100F065F80120034980027C
:1026A00008810020606010BD5C010020200000480F
:1026B00070B590B000206C4681006050401C0F281F
:1026C000FADB852000902248224D066822480196B8
:1026D00029460068FDF7A3FDFDF73AFE0104C0B2EC
:1026E000090E049003911D4829460068FDF797FDE7
:1026F000FDF72EFE0104090EC0B2194D059106909A
:10270000286BC10F08184010FF2800DDFF2007903C
:10271000002E03D0039808210843039000210846A7
:102720008200A258401C51180E28F9DBE1200E91BE
:1027300000F0AEFA8221002000F0ECFA0F2168468A
:1027400000F0D4FAFFF7B2F8686310B070BD000073
:10275000200000200000C8421000002018000020C7
:102760005000002010B50549012008600C310871A7
:102770000920C006FDF7E1FF10BD00005C0100204C
:1027800010B57520FFF78DF9682807D0982805D077
:102790007D2803D0722801D0002010BD012010BD7B
:1027A00010B580216B20FFF782F91148FEF746FF34
:1027B00001216B20FFF77BF97520FFF772F968287C
:1027C00001D0012400E0002418211C20FFF76FF93C
:1027D000002C03D005211D20FFF769F918211B20CB
:1027E000FFF765F903211A20FFF761F910BD00001A
:1027F000409C0000F0B593B00E2269463B20FFF7E5
:1028000047F9009801990002401800B24042FDF7D4
:102810008DFD0446029803990002401800B22D4D28
:102820004042FDF783FD06460498059900024018D2
:1028300000B2FDF77BFD6C600124E407A8606640F0
:102840002E60089809990002401800B2FDF76EFD4D
:1028500011900A980B990002401800B2FDF766FD2E
:1028600010900C980D990002401800B2FDF75EFD23
:102870001290243529681098FDF7C9FC10906968FA
:102880001198FDF7C4FC1190A9681298FDF7BFFCE0
:102890001290109911986140109008466040119074
:1028A00012982F466040002410AE183F1290A500E9
:1028B00070590949FDF7B3FC0849FDF7B0FC7051A8
:1028C0002146FFF799FA641C7851032CEFDB13B013
:1028D000F0BD00000003002000007A3D35FA8E3C78
:1028E000FEB5012040020090012468460471847105
:1028F000C471032509274571FF0669463846FDF76F
:102900001CFFA602694638460096FDF716FF0848E8
:102910000021066001718471C47145710C384160F9
:1029200004608160FFF7A0FEFFF776FEFEBD0000A9
:102930006801002070B50D460446FEF7A7F9600057
:102940000446FEF77FF92846FEF77CF9FEF76CF99E
:10295000601CFEF777F90120FEF72CF9C4B2FEF7F0
:10296000A7F9204670BDFFB581B01D461646074643
:102970000024FEF78BF978000746FEF763F902980A
:10298000FEF760F9FEF750F9781CFEF75BF96D1E53
:1029900005E00020FEF70EF9A1007050641CAC4267
:1029A000F7DB0120FEF706F9A1007050FEF780F971
:1029B00005B0F0BD70B515460E460446FEF766F943
:1029C0006000FEF73FF93046FEF73CF92846FEF777
:1029D00039F9C4B2FEF76CF9204670BD01490120F7
:1029E0008861704700140048014901200881704740
:1029F00020140048FEB50124684604710025857145
:102A0000C4710326467102200B4F00906946384678
:102A1000FDF793FE694638460094FDF78EFE0748A1
:102A2000046005718571C471467101460920C006B4
:102A3000FDF783FEBC61FEBD001400487401002058
:102A4000F8B50F49092508680024ED06002806D0CE
:102A5000002008600B4908712846FDF76EFE07202C
:102A6000094B0126094F022264009A61298AC9078D
:102A700000D034433A81401EF6D52046F8BD000010
:102A80007001002074010020001400482014004848
:102A9000F8B504460F4809260168F6060125002905
:102AA00006D105600C48057101463046FDF745FE2C
:102AB00007210A4B0A4F022022460A41D20701D0C1
:102AC000B56100E01D81B861064A1081491EF3D549
:102AD000F8BD0000700100207401002020000048B3
:102AE0000014004820140048F8B53E4E3E4C706873
:102AF0002146FDF794FB3D4D2946FDF790FB074627
:102B000021463068FDF78BFB2946FDF788FB04461C
:102B1000FEF7CAFD05463846FEF7C6FD06463846AE
:102B2000FEF7B8FD07462046FEF7B4FD3946FDF72F
:102B300076FB044631463046FDF771FB07462946D1
:102B40002846FDF76CFB3946FDF710FB2849074680
:102B500088420FDD21462046FDF761FB7F21C90534
:102B6000FDF759FB01463846FDF796FBFDF734FEAD
:102B7000074600E01F4F28463946FDF750FB0090FE
:102B800030463946FDF74BFB1B4E0146B7683846C9
:102B9000FDF745FB054621467068FDF740FB2946D9
:102BA000FDF735FB154D214628603068FDF737FBF2
:102BB000044638460099FDF732FB2146FDF727FB16
:102BC0007F24E405686021462846FFF7D9F82146AE
:102BD000281DFFF7D5F803CD083D296021024840A4
:102BE0006860F8BD9001002000008C4235FA8E3CF0
:102BF0006F12833AF4FD343FC00000203003002000
:102C000010B50848064941610749CA690323120201
:102C1000120A44042243CA6100218161036110BD8C
:102C20007F8D5B0000E000E004ED00E010B5094896
:102C300042698169084C2068814201D2401A01E052
:102C4000521A101821600621FDF76AFA61684018CF
:102C5000606010BD00E000E07C01002010B50022A3
:102C60009300CC58521CC450032AF9DB10BD70B538
:102C70000D460646FFF7B8FE002404E0305DFFF77E
:102C800007FF641CE4B2AC42F8D3FFF7A7FE70BDA7
:102C900010B50446FFF7A8FE2046FFF7F9FEFFF740
:102CA0009DFE002010BD70B50D4606460024FFF7BE
:102CB0009BFE6120FFF7ECFE04E0FFF7C1FEA100E0
:102CC0007050641CAC42F8DBFFF788FE70BD10B595
:102CD000C406E40EFFF788FE2046FFF7D9FEFFF793
:102CE000AFFE0446FFF77AFE204610BD70B50D46D4
:102CF00006460024FFF778FEA020FFF7C9FE04E097
:102D0000A0003058FFF7C4FE641CAC42F8DBFFF7AC
:102D100065FE70BD70B58406A40E20200D460443E8
:102D2000FFF762FE2046FFF7B3FE2846FFF7B0FE2E
:102D3000FFF754FE70BD0C0100010003000C0200FF
:102D4000020003000C030003000300002A0000003F
:102D500000000000CDCC4C3FCDCC4C3F0000003FEC
:102D6000CDCC4C3FCDCC4C3F0000003F902D000817
:102D7000000000208401000054040008E02D000839
:102D80008401002064060000820B000805DEFFFFBE
:102D900032012904C12D666686400421EB803F1C68
:102DA00001200A1D39310326B80B02312A032C8079
:102DB0003F2D5C8FC23D04812D0AD7233D04011CA9
:102DC0002D8FC2F53D0438089A99193F666666044E
:102DD0002D9A99993E10290431092B848100000015
:04000005080000C926
:00000001FF
