:020000040800F2
:1000000040090020C9000008EF0000087B07000835
:1000100000000000000000000000000000000000E0
:10002000000000000000000000000000F3000008D5
:100030000000000000000000F50000087D08000836
:10004000F9000008F9000008F9000008F9000008AC
:10005000F9000008F9000008F9000008F90000089C
:1000600000000000F9000008F9000008F90000088D
:10007000F9000008F9000008F9000008F90000087C
:10008000F90000080000000000000000F90000086E
:1000900000000000F9000008F9000008F90000085D
:1000A00000000000F900000800000000F90000084E
:1000B0000448854600F0C6F900F052F800480047B1
:1000C000C1270008400900200C4880F308880C482C
:1000D0000168090E0B4A914205D10B480B4901609A
:1000E0000B480C4901600C4880470C480047FEE76C
:1000F000FEE7FEE7FEE7FEE7FEE70000400900201E
:10010000040000001F000000181002400100000061
:10011000000001400000000081080008B100000854
:1001200030B50B46014600202022012409E00D468F
:10013000D5409D4205D31D469540491B2546954017
:1001400040191546521E002DF1DC30BD0321001D63
:10015000401E037812021A43491EF9D51046704713
:1001600070B5054C054D03E0206800198047241D3B
:10017000AC42F9D170BD00005C3A0008603A00085A
:10018000F8B502464A40D40F42004B0052085B08C3
:100190009A4202D20246084611464A0023D0C30DB5
:1001A0004A00DDB2120EAD1A202D35DA49020126C1
:1001B000490AF6058A19002C00D0524220214F1B13
:1001C0001146B9402A411018C20D9A4221D0002C84
:1001D00017D0012D08DCDA05801AD20F8019D2075A
:1001E000DBB200F0F5F8F8BDDA05801A0123400013
:1001F0001B06C01880185A428018CA0F10434900C5
:1002000007E04908C2071143DA05801A801940083F
:10021000801800F0D5F8F8BD61000122511A001BCA
:10022000F7E70122D2075140AAE70122D207504046
:10023000A6E7024670B54A40D30FDB0740002DD039
:100240004A002AD0010E140E000212020919400AB7
:10025000520A8418E50104465443000A120A2E0487
:100260005043A4194219200CC543AA18120C0125A9
:10027000AD03521C521912047F39240400D0521CC1
:10028000104301D44000491EC2B20C06C009201818
:10029000401C4008802A02D003E0002070BD4008C6
:1002A0004000002900DA0020184370BD70B50246F6
:1002B0004A40D50F40004A00ED0740085208002888
:1002C00014D0002A12D0C40DD30D41020120C00564
:1002D0005202490A520AE41A091812187D3491424E
:1002E00001D3641C00E04900002C01DA002070BD3D
:1002F0000023914201D3891A034340084900002892
:10030000F7D100290AD0914202D10121C90705E0A5
:10031000914201D2012101E00121C943E005C01849
:10032000401900F04DF870BD420005D04200120E99
:1003300052428A4201DB00207047C9050818704705
:10034000C217C10F504010B54018CA0796230021AC
:1003500000F03EF810BD10B500229623114600F0C3
:1003600037F810BDC20F410040020123400ADB05EF
:10037000D207090EC0187F2901DA0020704796299C
:1003800003DC9623591AC84001E096398840002AB8
:10039000F4D04042704700000122D207002800DB61
:1003A000101A002900DB511A814270470122D2073E
:1003B000002800DB101A002900DB511A8842704720
:1003C000002904DA401C490001D140084000704770
:1003D00070B40024050C05D11024000402D10029BA
:1003E00021D01124050E01D100020834050F01D1DE
:1003F0000001241D850F01D18000A41C002801DB11
:100400004000641C002908D020252E1B0D46F54015
:10041000A14000D001212943084301061B1B000A0B
:10042000DB1D02D5002070BC7047DB051818801852
:100430000029F8DA401C4900F5D170BC40084000A2
:1004400070470000064C0125064E05E0E36807CC26
:100450002B430C3C98471034B442F7D3FFF72CFEE3
:100460003C3A00085C3A000870B58C180578401CCE
:100470006B075B0F01D10378401C2A1106D102786B
:10048000401C03E006780E70401C491C5B1EF9D12D
:100490002B0705D40023521E0DD40B70491CFAE71C
:1004A0000378401CCB1A921C03E01D780D70491C88
:1004B0005B1C521EF9D5A142D8D3002070BD836ABF
:1004C0000B438362426170470029816801D0012299
:1004D00000E002221143816070470029C16802D008
:1004E0000122114301E049084900C1607047C26818
:1004F00002239A43C260C2680A43C260704782689E
:1005000000210123DB071A4382600F231B0382684B
:10051000491CD20FD207994201D0002AF7D1816835
:10052000002901DB006C70470020704730B5C268BD
:10053000084B8C681A400B680D792343CC686D0317
:100540002C4323430C69496923430B431343C36082
:1005500030BD000003D2FFFF816804221143816097
:1005600070470021016001718160C16001614161DA
:10057000704700000122054992050028886801D0D3
:10058000104300E09043886070470000002701405E
:100590000029016802D00122114301E0014A114003
:1005A00001607047FEFF000030B503680C4A0C6A1A
:1005B00013408A684D6922430C692C4322438C699D
:1005C0002243CC6922434C6A22438C6A22431A4359
:1005D0000260CA6842600A6882604968C16030BDD2
:1005E0000F80FFFFF0B50B2706463F04384600F0AA
:1005F00067F804280FD1084C2069022528432061A0
:1006000066612069402108432061384600F058F8AF
:100610002169A9432161F0BD00200240084904205E
:10062000CA68D20701D001207047CA68D20601D536
:1006300002207047C9684907FBD5032070470000B6
:100640000020024002480169802211430161704785
:1006500000200240F8B5064600200B273F0400901A
:100660000D46384600F02CF8042815D10B4C2069B3
:100670000121084320613580384600F021F8042824
:1006800006D1B61C290C00963180384600F018F8C7
:100690002169490849002161F8BD0000002002409D
:1006A00004480169090603D50349416003494160D3
:1006B000704700000020024023016745AB89EFCD61
:1006C00000B50346FFF7AAFF02E0FFF7A7FF5B1E96
:1006D000012803D0002B00D1052000BD002BF4D150
:1006E000FAE7F0B50022032501230C6893401C4073
:1006F0009C422AD10C79012C01D0022C12D187689E
:1007000054002E46A640B74387604E79A6408468C1
:100710002643866084889C43848084888B799340B8
:100720001C438480066853002C469C40A643066008
:100730000E7907689E403E430660C668A643C660C1
:10074000CC799C40C3681C43C460521C102ACBD394
:10075000F0BD4B07DB0E9A40C90810B58900081898
:10076000016A0F249C40A1430162016A11430162A6
:1007700010BD0185704781617047052001F02AFA9C
:1007800070B5FF2500210446AD05C943FFF7CCFD38
:1007900006460F4960100C1A21463046FFF749FD06
:1007A0002146FFF746FD2946FFF73FFD2146FFF7AB
:1007B00040FD044601463046FFF73BFD2146FFF76A
:1007C00038FD2946FFF731FD2146FFF732FD70BDA8
:1007D000DF59375F044A0029516901D0014300E025
:1007E000814351617047000000100240044A002913
:1007F000D16901D0014300E08143D161704700001D
:1008000000100240044A0029916901D0014300E030
:100810008143916170470000001002400CB5002038
:10082000009001901349112008601348416841600D
:100830004168416041687B22D20391434160416835
:100840000522D204114341600168012212061143BE
:10085000016001688901FCD541688908890041600F
:10086000416802221143416041680907890F02294A
:10087000FAD10CBD00200240001002407047000079
:1008800010B5144801680122114301604168124A01
:10089000114041600168114A114001600168012264
:1008A00092049143016041683F22120491434160E8
:1008B000C16A09090901C162016BFF2254329143E7
:1008C0000163416B49084900416300218160FFF7E2
:1008D000A5FF10BD001002400CB8FF08FFFFF6FE98
:1008E0000029018802D00122114301E04908490092
:1008F0000180704740300029818803D00122D20353
:10090000114301E04904490C8180704770B5028CA5
:10091000520852000284048C8288038B7025AB43FA
:100920009B080D889B001D4302239C438E894B88A6
:100930002643104C3343A04208D00F4CA04205D0B0
:100940000E4CA04202D00E4CA0420DD10824A3436D
:10095000CC891C4304239C438B882343094C2240AD
:100960000C8A14434A8A2243828005838968416342
:10097000038470BD002C0140004001400044014050
:1009800000480140FFFC000070B5028C10239A4320
:100990000284048C8288038B1A4D2B400D782D061F
:1009A0002D0C1D4320239C438B891B051E0C4B885B
:1009B00026431B051B0C144C3343A04202D0134E9C
:1009C000B04219D1124E32400E8AB604360C324370
:1009D000A04211D18024A343CC892405240C1C43BC
:1009E00040239C438B881B051B0C2343094C22404E
:1009F0004C8AA404240C2243828005838968816385
:100A0000038470BDFF8C0000002C014000400140B9
:100A1000FFFB0000FFF7000030B5028C124B1A40BC
:100A20000284058C8288838B104C23400C7824062A
:100A3000240C1C430E4B1D400B7B1B071B0C2B4334
:100A40008D782D072D0C1D430A4B984205D10A4B7A
:100A500013400A8A9205120C1A43828084838968A3
:100A60000164058430BD0000FFEF0000FF8C000032
:100A7000FFDF0000002C0140FFBF000010B502881E
:100A8000144B984206D00124A407A04202D0124C75
:100A9000A04203D17024A2434C8822430F4CA042B1
:100AA00003D00F4C22400C89224302804A68C26264
:100AB0000A880285984208D00A4A904205D00A4A1C
:100AC000904202D0094A904201D1897A01860121DF
:100AD000818210BD002C0140000400400010004045
:100AE000FFFC00000040014000440140004801407C
:100AF0000146034888600348C86008467047000004
:100B00000AD7A33C5073A43DFFB581B01C461746DD
:100B10000E0007D0019D02E02846B047ED1920469F
:100B2000641EF9D2019805B0F0BD02E008C8121F9A
:100B300008C1002AFAD170477047002001E001C1C6
:100B4000121F002AFBD1704710B50323102204495D
:100B50000448FFF7D9FF04480021016010BD0000E0
:100B6000F10A000848040020F000002070B5174D7D
:100B7000064668680024002801D102F09FFB28681F
:100B8000002801D102F018FC0722012302F06EFBBD
:100B900000F01EF8002803D0184690402043C4B24D
:100BA00002F080FB521EF1D5002E02D002F086FB2F
:100BB00001E002F095FB02F059FB02F073FB68685C
:100BC000002801D002F08CFB204670BD08020020F6
:100BD0000920C006008A01218902084070470000F0
:100BE00010B505484068002801D102F067FB02F00B
:100BF0003DFB02F075FB10BD0802002070B5104EE1
:100C00000546B068012801D102F04CFB07242846B4
:100C10002041C00702D002F051FB01E002F060FB6E
:100C200002F030FB641EF2D57068002801D102F09A
:100C300045FB02F01BFB02F035FB384670BD00009F
:100C40000802002010B5074A9068002801D102F080
:100C50000DFB5068012803D1FFF7BAFF02F040FBFB
:100C600010BD00000802002010B5084C6068012883
:100C700004D1A068002806D102F032FBA068002849
:100C800001D102F0F3FA02F019FB10BD08020020B6
:100C9000F8B5154E4520000637460025183FB060D0
:100CA00002F0D4FB0024A000395880190F4A01F04B
:100CB000F6FC641C032CF6DB01F084FAFF20F5300F
:100CC0006D1C8542ECDB45210906B068FFF7A9FAE7
:100CD000074D0024B060A0008019294601F0CCFC2B
:100CE000641C032CF7DBF8BD080400201F856B3F54
:100CF0000000FA4370B592B020250320694606959E
:100D000008770024CC77092006A9C006FFF7E9FC84
:100D100001214802FFF776FD01210846FFF75AFD41
:100D20002A4806902A4807900220099080200B90BC
:100D300040000C90089480000E950D900A94C0001D
:100D4000244D0F9006A910942846FFF72DFC1F4E46
:100D50000221403E3046FFF7CAFB01213046FFF733
:100D6000BCFB6846FFF7FDFB012069460094087153
:100D700004200590029404943046FFF7D7FB01212C
:100D8000072249043046FFF79AFB0722202130460C
:100D9000FFF795FB0120FFF7EDFB3046FFF7AFFBB8
:100DA00001213046FFF790FB3046FFF7D5FB0121CC
:100DB0002846FFF7EDFB08480088FFF7CCFA074903
:100DC000FFF737FA0249486012B070BD4024014075
:100DD000FC01002008000240BAF7FF1F62DB963FCB
:100DE00010B50B49002803D0012808D0002010BD01
:100DF0000888FFF7B0FA0749FFF71BFA10BD4888CB
:100E0000FFF7A9FA014602484068FFF74FFA10BD04
:100E1000FC010020D4F5AE3AF8B58400134813491C
:100E20001830075909683846FFF703FA0F4D064690
:100E300010352846103001593846FFF7F2F9294697
:100E400008390968FFF7F5F909490968FFF7F1F969
:100E50003146FFF795F9285128461030075160199F
:100E6000044901F009FC2859F8BD0000F8000020F1
:100E70003C01002000006643F8B505460C464800DA
:100E800000D1294C01210026C9078D4203D94C40CD
:100E90004D408126F605002C09DC204648402C46B2
:100EA0000546012189073046FFF76AF906462146C3
:100EB0002846FFF77BFA10D821462846FFF7B1F9FC
:100EC000074621462846FFF75BF904467F213D4649
:100ED000C9053046FFF754F9064621462846FFF774
:100EE000E5F904461149FFF7A4F91149FFF748F95C
:100EF0002146FFF79EF90F49FFF742F92146FFF718
:100F000098F904460C493046FFF793F92146FFF75C
:100F100037F90A49884202DD0949FFF782F9094990
:100F2000FFF787F9F8BD0000567C0A2A4BC887BD39
:100F30007EAE36BE42DA833FDB0F493FDB0F4940CE
:100F4000DB0FC940E12E654270B5184CA06B00283C
:100F500004D00025012809D0A56370BD012060627E
:100F600002F0D0F9A06B401CA06370BD172002F006
:100F7000FEFCC00608D58F21002002F01DFDA563F0
:100F8000656201F09BFE70BD01F01CF9A16C401A76
:100F900007498842F7D9E12002F0C8FC8F210020E0
:100FA00002F00AFDA563656270BD00007C010020AF
:100FB0001027000070B5002506462C46A0003058CA
:100FC0000146FFF736F92946FFF7DAF8641CE4B268
:100FD0000546032CF2D3FFF7D3FB01467F20C00563
:100FE000FFF764F970BD0000F8B5164F0C22796860
:100FF000134E5143144A8A1839688C00115900283D
:1010000002D0124E491C00E0491E1151BD68314604
:101010002859FFF70EF928513C68002C04D13146BD
:101020006868FFF706F9686078680C21484306494C
:101030004018A1004058002800DA4042F8BD0000E6
:101040002EBA683F2001002078040020CDCC8C3FD0
:1010500030B5002207239C1A6418203C855CE47F8D
:10106000A54201D0002030BD521C072AF3DB01202D
:1010700030BD0000FEB5072002F079FC0007400FEC
:101080000026072801D0022000E0304601246A4DE6
:10109000002862D0E86800281DD001F093F80746C8
:1010A0000F21664802F04DFC00F0E2FC002853D00E
:1010B000286C401C28646868002801D0FFF744FFB2
:1010C000EE622E632869EF642F65AE62A865686AD8
:1010D00000283FD040E00F21584802F032FC574B27
:1010E0001868A42801D0A32837D1A32802D15448D6
:1010F0006C6028625048197E3C300170197F417045
:10110000198C8170998CC1704E494B4F8868C968A1
:101110000090012001915C378100595C6A461154AE
:101120003A18203A401CD1770628F5DB062168469C
:1011300002F0DAFB3020694608700621684602F0AA
:10114000D3FB3D4829693C30415C252002F034FC4A
:10115000EC6002E001F0B2FD6C61686A002801D029
:10116000FFF7F2FE01F02EF80746E86C391A286AFC
:1011700082007D20C000101881420BD9E868002849
:1011800008D0EF64286B002801D1A86D286101F018
:1011900095FD2C63696A286B084319D1E86A0090B1
:1011A000052815D2E868002812D0E86C7D21381A8D
:1011B000C90088420CD9296AFEF7B2FF014600989F
:1011C000401C814204D301F079FDE86A401CE862CA
:1011D000286D391A1C48814206D91C48AC62066049
:1011E00046608660C66002E0A86A002803D0E8690D
:1011F000002802D011E0EC610FE0A8691449381A08
:1012000088420AD90C48EE6006216D30EC6102F08C
:101210006BFB0021052002F0CFFB00F0D3FF696DCE
:10122000411A0948814205D9286C2E64686400F08F
:10123000C9FF6865FEBD00007C010020F0040020AD
:10124000881300002C3A000840420F00C003002021
:10125000C0E1E400F0B5FE487F27C079FF0589B002
:10126000002800D1FB4FFC4E0024A50070593946E0
:10127000FEF7DFFFF949641C4851032CF5DB01F050
:101280000FFEF348F64F007A002803D0F5480068B7
:10129000002823D0F14CF4492068FEF7CAFFF34937
:1012A000FEF7C7FF3968FEF7BCFF25460C3D2860F6
:1012B000ED496068FEF7BDFFEC49FEF7BAFF7968BB
:1012C000FEF7AFFF6860EA49A068FEF7B2FFE749A2
:1012D000FEF7AFFFB968FEF7A4FFA86001F0E2FED9
:1012E000002001F00BFD012001F008FD022001F0BB
:1012F00005FDD748DF4B0278DF48E0490024002A8B
:101300002AD0DF4AF568954202DD0A68002A2ED00D
:101310001A68012A2BD0012202600A60CC4AD94DFA
:10132000D278002A28D00122EA610068002825D05E
:10133000E869002827D0F668D3493046FEF779FFE0
:10134000D249FEF71DFFA861CD4886422FDDD04867
:101350000168002929D02AE0CE4A04601268012AD7
:10136000DCD1CD4A1268012AD8D11C60D6E7CB4B1C
:10137000012204601A60D1E7EC61D6E7C448AC6191
:1013800004600C6013E0C649F068884203DAC04884
:10139000AC6104600BE0FEF744FFC249FEF749FF71
:1013A000A861BB490120086001E001210160BE483D
:1013B0000068002803D1BD48A969814223DA686822
:1013C000002807D000F0FEFE6968401AB84988423C
:1013D00000D96C600026F0B2002101F005FE761CF9
:1013E000032EF8DDB34EA74832460021083001F045
:1013F00056F9A448324600210C3001F050F9012082
:101400002C62286097E10020286000F0DBFE686015
:10141000A86902F017FA0221FEF786FFA969FEF714
:10142000AFFE0121C907A861884202D90020A86146
:1014300004E07F21C905884200DDA9619E4800685B
:10144000002802D09D48C068A8619D48002401681A
:101450009C489D4E814205DAFEF7E3FE3146FEF7D9
:10146000E8FE0446994801689948814205DAFEF78A
:10147000D8FE3146FEF7DDFE04467F20C0058442DB
:1014800001DD044601E0002C07DD92492046FEF70D
:10149000D0FE6969FEF774FE03E084496869FEF7CF
:1014A000C0FE3F2109066861884201DD084604E06C
:1014B0000121C907884201D900206861714D204689
:1014C0006969FEF75DFEA969FEF7AFFEA861824C6F
:1014D000049026683146FEF7A4FE0590656829460B
:1014E000FEF79FFEA4682146FEF74AFE03903146B0
:1014F0000498FEF745FE06462946FEF792FE214671
:10150000FEF78FFE019029460598FEF739FE214629
:10151000FEF787FE029030462946FEF731FE21464F
:10152000FEF72EFE00246E460090A500705921465D
:1015300001F088FB7051214601F04AFB641C705198
:10154000032CF2DD00200490584800240590A500EB
:1015500070590499FEF72AFF01D27059049070590E
:101560000599FEF719FF01D270590590641C042CEF
:10157000EDDB7F21C9050498FEF753FE3F210906E4
:10158000884200DD08463F4CA168FEF70FFF04D2F9
:101590005249A068FEF7F4FD03E05149A068FEF748
:1015A00040FE3F21414D0906A060884202DC4D49C2
:1015B000884200D9A160334801218068C907884268
:1015C00000D949482E49FEF734FE00280DDD294692
:1015D000FEF7D6FD00240490A50070590499FEF78B
:1015E00020FE641C7051042CF6DB29480068012899
:1015F00022D100252C46A000049030582946FEF741
:10160000CBFE01D204983558641C042CF3DB374818
:10161000854201D9054603E00120C00785420BD968
:101620000024A100049170582946FEF7FAFD0499A0
:10163000641C7050042CF4DB002112480D4601623A
:10164000AC0031591148814252DB084651E000009C
:10165000F00200209A99193FC00300208002002068
:10166000FC030020CC0000200000964435FA8E3C9C
:1016700000007A4460000020680000206C00002018
:10168000CDCCCC3D0000002048E17A3F0AD7A33CF6
:101690006400002038000020900100203C00002061
:1016A000CDCC4C3D9932873FA40100206F12833A84
:1016B00040420F00EC51383FD40000203804002095
:1016C00024000020CDCC2C40000040402800002009
:1016D0003333534017B7D138B40400200AD7A33BA3
:1016E0000AD7233CCDCCCCBD17B7D1B89A9919BF36
:1016F000305101F0B7FA0146E8B201F075FC3059FB
:101700000121C907884202D90020305104E07F211D
:10171000C905884200DD31513159C54C206AFEF7B8
:101720002FFD6D1C2062032D8ADD0121C943206A33
:10173000FEF7FAFD2062BF48007A00287ED0BE483E
:10174000006800287AD10021BC4801F0DDFFBB4EC3
:10175000BB49B068FEF76DFDBA49FEF76AFD054664
:10176000B94C29466068FEF764FD009001212068AD
:10177000C90748402946FEF75CFD0190A06829464C
:101780000446FEF756FD0290B0480490B04806901B
:10179000B0480590A748B0498278807B002A7DD068
:1017A000002815D003C940004C00640840080546D5
:1017B0002146FEF7FBFD00D82C4620460699FEF791
:1017C000EBFD2BD820460699FEF770FD044627E076
:1017D0000120C007844213D9A0493068FEF729FDD3
:1017E000984D2946FEF725FD3968FEF71AFD934C02
:1017F0009A490C3C20607068FEF71BFD294664E0A6
:1018000097480168974801600020FFF705FB0099A1
:10181000FEF7B6FC3968FEF704FD4EE07F24E405D0
:101820003068059945006D082846FEF7B5FD06D8D5
:1018300028460599FEF73AFD054602E0D9E07F25E6
:10184000ED0521460498FEF7F4FC04468648294637
:10185000FEF7EFFC2146FEF793FC05467A488168C7
:101860000120C0078142B7D87D4801687D480160EA
:101870007A493068FEF7DDFC7249FEF7DAFC396818
:10188000FEF7CFFC2946FEF7D4FC04467F2029460C
:10189000C005FEF7C6FC0546002000E01DE0FFF78E
:1018A000BBFA0099FEF76CFC3968FEF7BAFC2946D2
:1018B000FEF7BFFC2146FEF763FC604C67490C3C19
:1018C00020607068FEF7B5FC5E49FEF7B2FC7968EF
:1018D000FEF7A7FC6060B96885E000287ED07F2015
:1018E0000025C0050499FEF79CFC07905A4903C9DE
:1018F00040004900490840080C460646FEF756FDE0
:1019000000D8344620460699FEF746FD04D8204606
:101910000699FEF7CBFC01E07F20C005474FAC00E5
:10192000039038590599460076083046FEF734FD95
:1019300005D830460599FEF7B9FC064601E07F263A
:10194000F60503990498FEF774FC03903146079856
:10195000FEF76FFC0399FEF713FC03903A48816889
:101960000120C00781420BD938593C49FEF761FC80
:101970003449FEF75EFC3D490959FEF752FC28E068
:10198000374801593748015138593449FEF751FC5D
:101990002C49FEF74EFC354F3959FEF742FC0399AE
:1019A000FEF747FC06467F20C0050399FEF739FC89
:1019B00003902846FFF730FA69460959FEF7E0FB25
:1019C0003959FEF72EFC0399FEF733FC3146FEF73A
:1019D000D7FB1A490C3908516D1C00E00BE0012DB2
:1019E00084DD224881680298FEF71BFC13490C39FC
:1019F000886009B0F0BD114E00250C3E1848AC00BF
:101A00000159184801512846FFF706FA6946095955
:101A1000FEF7B6FB3959FEF704FC6D1C3051012D61
:101A2000ECDDB9680298FEF7FCFBB060E1E700006E
:101A300000000020F0020020CC00002080020020E6
:101A400000007A4435FA8E3CC00000209A99993EF5
:101A500000005C423333733F2C04002000009644A6
:101A600020040020100100203333333FFC0300200A
:101A7000F8B5484E3068A5287AD100210846820082
:101A8000B258401C51180E28F9DBC8B2B16B88421D
:101A90007ED14048103001F021F93F4D28603D488B
:101AA000183001F01BF968603A48283001F016F947
:101AB000A860308C716A8007800D4018FEF740FCEA
:101AC0003649FEF7B6FB364CE860207AFD27BF05A5
:101AD00000284ED0A0783349002828680AD001F0A9
:101AE000B3FA28603946686801F0AEFA68602D499B
:101AF000A8680AE00F4601F0A7FA2860002168688C
:101B000001F0A2FA68603946A86801F09DFAA86061
:101B1000317B0806C00FA071B068C206D20FE27117
:101B20008206D20F22728A06D20F4907E272C90FCB
:101B3000A1720107C90F21707168FA2926D000210E
:101B400061708107C90FC007A170C00FE07000204D
:101B5000154B164D074601261F542A5C215C8A420C
:101B600000D01E542954401C0E28F5DB0120F8BD7E
:101B70000EE03946286801F067FA2860394668683F
:101B800001F062FA68600A49A868BEE70121D7E758
:101B90000020ECE7F0040020C0030020F7FF7F3AAC
:101BA000F0020020CDCC0C3FE0030020D003002049
:101BB0006666263F10B50020FFF716FA10BD08B57F
:101BC000810040180090411E009101D30846FAE7B9
:101BD00008BD000006460024E0B2002101F004FA2E
:101BE000641C032CF8DD0B4DAF0000240CE0FF203B
:101BF00000F030FD2846FFF7E2FFFF2000F018FD5F
:101C00002846FFF7DCFF641CB442F0DB3846FFF7E0
:101C1000D6FFEAE7400D030010B50349FEF7B0FA1E
:101C200000F004F810BD0000DB0FC93F70B504469A
:101C3000134E144D03E03146FEF7A2FA0446AC42BF
:101C4000F9D8114DAC4204DD3146FEF7EAFA0446FC
:101C5000F8E70120C0070D490D4D8442204605D903
:101C6000FEF7E7FA2946FEF78BFA04E0FEF7E1FA01
:101C70002946FEF7DAFA2146FEF7DBFA70BD0000CE
:101C8000DB0FC940DB0F49C0DB0F49407B81CF3EF2
:101C900083F9A23FFEB500273D460024681CFEF7ED
:101CA0004FFB01900E49A8000E58601CFEF748FB40
:101CB0000090A10071580198FEF7BBFA0099FEF759
:101CC000B8FA0849FEF7B5FA3946FEF759FA641C26
:101CD0000746032CE9DB6D1C032DDEDBFEBD000097
:101CE000700100208D976E3F10B5FFF7D3FF0149BB
:101CF000086010BD70000020F8B50020012400F03D
:101D000001F9384DA8426BD1FF2000F0FBF8A84242
:101D100066D12046022500F0FDF833494860096885
:101D2000FEF73AFB11D100260024B70028466D1CAF
:101D300000F0F0F82D49A200C959641C8850032C0A
:101D4000F4DB761C032EEFDB00E00B2528466D1C30
:101D500000F0E0F8264C206028466D1C00F0DAF810
:101D60006060284600F0D6F8A060342000F0CAF881
:101D7000002203461146CC0018462041C0B27F28FD
:101D800000D90122491C0429F5DB002A28D1194970
:101D90000120086018490860322000F0B3F8174CA1
:101DA0002071322000F0AEF81549000A0860332097
:101DB00000F0A8F802460021CB00104618416054FC
:101DC000491C0429F8DB342000F09CF80D4A034636
:101DD0000021CC00184620415054491C0429F8DB4E
:101DE000F8BD00000100AA12700000207001002060
:101DF00008040020F801002084010020D801002000
:101E000080010020B8010020F8B500F087F800F04C
:101E100067F8002001242A4901F078FD294920466D
:101E20000225096800F07EF800260024B700264845
:101E3000A100C059415828466D1C00F073F8641C7D
:101E4000032CF4DB761C032EEFDB204C28466D1CA4
:101E5000216800F067F86E1C2846616800F062F89F
:101E60003046A16800F05EF81948006800281FD0CD
:101E70001948184C0068217900020143322001F012
:101E800045FD2046FEF762F90102E078090A0006E6
:101E90000143332001F03AFD1048FEF757F90102E3
:101EA0000E48090AC07800060143342001F02EFDD7
:101EB0000349FF2001F02AFD00F020F8F8BD0000E2
:101EC0000100AA1270000020700100200804002008
:101ED000F8010020D801002080010020B801002076
:101EE00010B50548FEF77EFB042803D0FEF7AAFBD9
:101EF000012010BD002010BD007C000810B5FEF7C9
:101F0000A1FB10BD02498000401800687047000026
:101F1000007C000800B5FFF7F5FF00BD10B5FEF727
:101F2000BFFB10BD10B501F0F1FC10BD30B52F4C5A
:101F30002178814258D007216218203AD27F62541A
:101F4000491E0129F8DA207029492848FFF780F84E
:101F50007F25002802D06570032030BD2449234826
:101F6000C91DFFF775F8002802D06570042030BD48
:101F70001F491E480E31FFF76BF8002802D065702C
:101F8000012030BD1A4919481531FFF761F80028C2
:101F900002D06570022030BD154914481C31FFF78E
:101FA00057F8002802D06570052030BD10490F4851
:101FB0002331FFF74DF8002802D06570062030BDB0
:101FC0000B490A482A31FFF743F8002802D0657010
:101FD000072030BD064905483131FFF739F80028A0
:101FE00002D06570082030BD002030BD8C0000207C
:101FF000DA390008F8B500F063F800284CD0002169
:10200000294F0124294E2A4D012812D0022823D01D
:10201000284A04282DD003282ED0072800DB34605E
:1020200005282CD006282DD0072836D0082837D0F0
:102030002BE0306800280AD03C603160FFF7E4FEF6
:10204000FFF75AFE00F0BEF81B4908601DE000F0E3
:10205000D9F8FEF71DFEF1E718490868002806D0F8
:10206000002008600221081A2860346010E0012076
:10207000F7E714713C6008E03C60117105E000F086
:1020800001FE01E000F0F0FD28603068002803D078
:102090002868002800D13C60F8BD00F063FAF3E73F
:1020A000FFF788FDF0E700003C00002078000020EA
:1020B00040000020F00200205C000020F801002019
:1020C00070B53748374C0068002864D0364B374825
:1020D0001A685100490881420BDA9D686D006D084D
:1020E000854206DA5D686D006D08854201DA0020E0
:1020F0002FE02F4DAA4202D89E68AE4206D95E68F4
:1021000076007608864201DA012022E0294EB242AA
:1021100002DC9A68B24206DD5A68520052088242D6
:1021200001DA022015E05A68AA4208D9814206DA8B
:102130009D686D006D08854201DA032009E0B24216
:1021400008DD814206DA996849004908814201DACE
:102150000420206000F036F806CC083C914200D004
:10216000E060E268801A144A90420FD9002904D135
:10217000124A904201D90C2005E0114A904204D93C
:102180007F2903D0FF20A06000E0A1606160A0680B
:10219000FFF7CCFE70BD7F20A0606060002070BDA6
:1021A000000000207C000020C0030020CDCC4C3E6D
:1021B000333333BF3333333FA086010060AE0A00B0
:1021C00020A1070000B501F06FFB00BD1CB5232066
:1021D00001214004FEF7FEFA012069460871002043
:1021E0008871C8710320487104200924E406009016
:1021F0002046FEF776FA0821009169462046FEF750
:1022000070FA1CBDF0B591B0FFF7DCFF0F900546EA
:102210000B900A9000208100574B0CAA5B58401C81
:1022200053500328F7DB8CE00A980A95281A099086
:1022300001D10120099006226946432000F0B4F83C
:10224000009801990002401800B2FEF779F8079053
:10225000029803990002401800B2FEF771F8069048
:10226000049805990002401800B2FEF769F8434E41
:102270000890307800F088F920464149FDF750FF7A
:102280004048814201D9012100E000213068C207A5
:10229000D20F914201D0401C3060384801780907C4
:1022A000090F00260160B4000CAF06A83959005987
:1022B000FEF77CF804D238593349FDF761FF3851F5
:1022C00006A839590059FEF767F804D238592E4943
:1022D000FDF7A7FF3851E0192C4900F0CDF9385926
:1022E0002B4940004008FDF74BFF014606AF385927
:1022F00040004008FEF75AF806D2FFF763FF0B9044
:102300001E48012101600BE00998FEF724F82149DD
:1023100000F002FA024618483959201800F0BFF9B7
:10232000761C032EBFDB7D24E400FFF74BFF401B30
:10233000A04203D20A20FFF742FCF6E7FFF742FF74
:1023400005460B982C1A1448844205D20F9813495D
:10235000281A884200D267E70B98291A0E48814252
:1023600007D20020044A01468300401CD1500328B4
:10237000FADB11B0F0BD000014040020A80000201A
:1023800024F40000127A0000CDCCCC3D000048447B
:102390000000C8420024F44880841E00C0E1E4002C
:1023A00010B501F0C5F810BD13460A4610B5014638
:1023B000682001F000F9012010BD10B50146682029
:1023C00001F0E0F810BD0A4610B50146682001F0A2
:1023D00019F910BDF0B5494C494D87B021682868FE
:1023E000FDF71FFF286061686868FDF71AFF002489
:1023F0000A27FF436860A600A8593946FDF794FFF5
:10240000641CA851032CF6DB3E480024006804AF8E
:1024100000903D48A60080590099FDF70AFF641C12
:10242000B851032CF5DB394E049834682146FDF78A
:1024300000FFB168FDF7F9FE019001990498FDF7DE
:10244000F8FE2146FDF79CFE074601990598FDF729
:10245000F0FE7168FDF794FE044621460598FDF7ED
:10246000E8FE0199FDF7E1FEB06021460698FDF710
:10247000E0FE3946FDF7D9FE3060069A0146104667
:10248000FDF7D7FE2146FDF77BFE70601C48FEF786
:1024900091FD1F491F4A4118914222D27F22D20545
:1024A000014600241046FDF701FF0090A700E959FE
:1024B000FDF7BFFE641CE851032C01DA0098F5E734
:1024C00010483F210906006800F038F9074600244B
:1024D000A000295880193A4600F0E1F8641C032C4A
:1024E000F6DBB1683068FEF7C7FC0B4C2060B168C2
:1024F0007068FEF7C1FC606007B0F0BD0804002002
:10250000F003002058000020FC030020C000002041
:10251000CCCCCCC0323373002C040020F8B500259D
:102520000D4F00F093FF0024A6000A21B859C943BB
:10253000FDF7FAFE01460948094A301800F0AFF8E5
:10254000641C032CF0DB7D20C000FFF738FB6D1C02
:10255000642DE6DBF8BD0000F0030020C000002081
:102560009A99593F10B50120FEF73EFD10BD0EB5FA
:1025700000226B461A805A8001911A819A7269462C
:10258000FEF77CFA0EBD000070B50646FFF71AFE96
:10259000194C21692061451A3046FDF7DCFE1749C8
:1025A000FDF747FE06460121204689070C3000F062
:1025B00063F82846FDF7CFFE054630466168FDF713
:1025C00030FE2946FDF735FE0D49FDF732FEE16884
:1025D000FDF7D6FD0B49E060884205DDFF2000F0E5
:1025E00039F87F20C00503E0FF2000F021F800202B
:1025F0006060002070BD0000940000208988883D44
:102600006F12833A48E1FA3E70B50D460446FFF773
:10261000D9FD2146FDF784FD6C432009814203D991
:102620000F2000F017F870BD0F2000F001F870BD0A
:1026300070B50446064DC00703D004212846FEF7B6
:102640009AF8A00703D508212846FEF794F870BD34
:102650000000004870B50446064DC00703D00421B1
:102660002846FEF786F8A00703D508212846FEF77E
:1026700080F870BD0000004870B504460120C00716
:102680000D4645400E462068FDF790FE00D22660BC
:1026900028462168FDF78AFE00D2256070BD70B51E
:1026A00005460C467F2016461146C005FDF7B9FDCC
:1026B0002146FDF7BEFD044631462868FDF7B9FD09
:1026C0002146FDF75DFD286070BD0000F3B5104E9A
:1026D000104F8C0083B031597869FDF7AAFD019045
:1026E00030460C38055938692946FDF7A2FD00909F
:1026F000B9690398FDF79DFD0099FDF741FD01992A
:10270000FDF78FFD314635510C39085105B0F0BD4C
:10271000E40400202001002010B5FDF7C7FD7F2450
:10272000E4052146FDF781FDA04201DD204610BDF4
:102730000121C9078842FAD9002010BD10B5FDF764
:1027400078FD7F24E4052146FDF76FFDA04201DD01
:10275000204610BD0121C9078842FAD9002010BDCA
:10276000F8B5164A09018C1805462768A168606803
:10277000FDF706FD0090E168FDF702FD01467F20B0
:10278000C005FDF793FD0099FDF753FD0646394658
:102790002846FDF746FD3146FDF74BFD3946FDF76E
:1027A000EFFC05467F203146C005FDF73AFD009954
:1027B000FDF73FFD256060602846F8BD4804002015
:1027C0001CB57D20C000FFF7FAF9FFF7FFFCFF20E2
:1027D000FFF740FF00F036FF01F050F8CF48FFF759
:1027E000EEF9FFF7DDFD00F085FB0021084600F063
:1027F000FBFB0021012000F0F7FB0021032000F08B
:10280000F3FB0021022000F0EFFB00F0F3FD00F0ED
:10281000E1FD002826D0FEF76DFAC149012088733A
:102820000871FFF761FAFFF767FA00F08DFCBD4D04
:1028300000240020FEF7D4FA2968FDF7A1FC2860E7
:102840007D20C000FFF7BBF9641C402CF1DB0521A3
:10285000C9432868FDF768FDB3492860884203DA58
:1028600002202DE004202BE0FFF7CCFC00F018FC48
:10287000FFF754FEAD480068002801D007201FE094
:10288000FFF7A0FCA863FFF79DFCA64C0546A06BD4
:10289000281AFDF760FD6063002802DC7F20C00578
:1028A0006063A349FDF7C5FCA2496063884201DD6E
:1028B000062005E09D48A5630068142802DD082075
:1028C000FFF788F900F0C2FDFEF7C4FCFFF782FDB8
:1028D0000020FEF785FA934CA168FDF7AAFC064696
:1028E0000120FEF77DFA0146934F20463A46083014
:1028F000FFF7D5FE91483A46016820460C30FFF7B5
:10290000CEFE20468E4A24302168FFF7C8FE3A46A4
:1029100031462046FFF7C3FE0121C943606AFDF737
:1029200003FD064687492068FDF783FC3146FDF725
:1029300078FC0090E4688448844255DD794FB86A99
:102940000646FDF7FDFC8049FDF773FC2146FDF7C7
:1029500070FC0099FDF714FC7149B4007031085106
:102960000646386B002808D0002030398200401C11
:102970008E500C28FADB0020386369487349103008
:102980000059FDF756FC019065484030015930462A
:10299000FDF747FC0199FDF7F3FB614940310E510A
:1029A000303908510146FDF744FC5D4E0146A03622
:1029B000A019674AFFF773FEB86A401CB8620C287A
:1029C00012DB0020B862306800240190A700F059A3
:1029D0000199FDF7E1FC04D2F05901905148611CC6
:1029E000C162641C0C2CF1DB4E4F3869002800D00A
:1029F00055485849FDF7C4FB0646F86AFDF7A0FCA8
:102A0000514C2146FDF715FCF968FDF712FC0099C1
:102A1000FDF7B6FB3146FDF7BFFC03D34E493868DE
:102A2000884201DA012000E000203861F86AFDF7F1
:102A300087FC2146FDF7FDFBF968FDF7FAFB0099DD
:102A4000FDF79EFB786045480068002801D0FFF73D
:102A5000D1FA3869002801D0082108E04048006810
:102A6000002806D03F480068002804D00F213E48C7
:102A70001AE00C2117E0012078612948867BB869AB
:102A8000002814D0386A002802D1FFF79BFB386277
:102A9000FFF798FB396A411A3348814202D9002076
:102AA000B861386208211D48FFF7AEFD2BE0F869D8
:102AB00000281FD0FFF786FB0446386A002809D19A
:102AC0003C62002E03D0FF20FFF7B2FD02E0FF20A2
:102AD000FFF7C0FD386A211A2348814201D8386ABD
:102AE00004E0F869401EF861002038621F49201A8E
:102AF000884208D9002E03D0FF20FFF7ABFD02E08B
:102B0000FF20FFF795FDFEF7B5FA7D24E400FFF7FF
:102B100059FB401BA042FAD3B5E60000A086010095
:102B2000F002002024000020333353400402002030
:102B3000BD3786350AD7A33C492E7F3F20000020B1
:102B400029EA7F3F0000A03FCDCCCC3D42F27C3F44
:102B500067B17F3F00006040CDCC2C4000000020DA
:102B600088010020A401002020A10700E0930400B8
:102B7000FFB581B007460E4610460A9DFDF751FB92
:102B8000044628460499FDF74CFB05463146384675
:102B9000FDF747FB2946FDF74CFB2146FDF786FB79
:102BA0000499FDF7EDFA05B0F0BD000010B5064937
:102BB0000868002806D000200860091D0871034835
:102BC000FDF78FFD10BD00001C020020001400481E
:102BD000F3B50D011A4E0221AC1983B0C943E06868
:102BE000FDF7A2FB0290A7680121C9433846FDF713
:102BF0009BFB019001217059C943FDF795FB022110
:102C00000090C9430398FDF78FFB0099FDF7B8FAD0
:102C10000199FDF706FB0299FDF703FB01218907E6
:102C2000FDF707FB0146E7606068A06070596060CF
:102C3000039870510398FDF7A3FA05B0F0BD0000AA
:102C40003402002070B503468C00044D044A60191C
:102C50001946FFF724FD285970BD0000900200209E
:102C6000BA30223F7047000005490868022804D0A6
:102C700001DA02200860401C70470020FAE70000DB
:102C8000200100200C494868002804D0012807D002
:102C900002280AD10BE008482C308860012003E0AC
:102CA00005483830886002204860401C7047024860
:102CB000203088600020F7E72001002010B5064989
:102CC000087C401C8007800F08613C31095C25208E
:102CD00000F072FE10BD00007C01002010B54168BC
:102CE00000788007800DFF38FF3802380818FDF79C
:102CF00027FB0821C943FDF717FB10BDF1B582B0D2
:102D00005C4B5E48029C1A7A5B4900685C4E5D4FE2
:102D1000A400002A02D09A78002A25D0002803D0E7
:102D20003059FDF786FA305157480025015954486B
:102D300018300059FDF730FB03D13859002800DD69
:102D40000125514801210059C90748404C49183113
:102D50000959FDF721FB04D139590120C0078142EF
:102D60002FD8002D07D02CE00028D9D14748006883
:102D70000028D5D0D8E742480221243000590090DD
:102D8000FDF7D2FA3E4930310959FDF7F9F93D59BD
:102D90002946FDF7F5F93E49FDF74BFA3D4909593A
:102DA000FDF747FA3C490968FDF743FA3159FDF749
:102DB000E7F93349305130310098085108460C3852
:102DC000055131480C3001592D482018FFF754FCAB
:102DD000304818300559385929460746FDF729FA71
:102DE0002C490C3909590091FDF723FA244E7F2113
:102DF00001901836C9052846FDF713FA0099FDF72A
:102E000018FA26490959FDF714FA0199FDF7B8F99E
:102E10001B490959FDF7B4F930511E480C300559CA
:102E2000002D01DC305918E015480C3001593846A6
:102E3000FDF7F7F92946FDF7FCF916492C39C96960
:102E4000FDF7F7F90E490C310F510299FFF73EFCDF
:102E500001463059FDF794F930510E492C39C968B3
:102E6000FDF7E7F9305108480159A019FFF704FCB4
:102E70003059FEBDF002002048E17A3F00000020FA
:102E80009C04002074020020143A00086400002012
:102E90007EAA2A3E4C01002058000020FC0300209E
:102EA000F8B50E4801680E48FDF700FA0D4C7F2575
:102EB000E061ED050C4E0E48812200953346D205A7
:102EC0000A490068FFF754FEE060B04201DDE660A9
:102ED000F8BDA842FCDAE560F8BD0000580000200B
:102EE00017B7513B20010020713DAA3F0000404030
:102EF00024000020FEB5022569460D7103204871AB
:102F000000248C71CC7101212846FDF76FFC314FF4
:102F100031483946FFF72BFB01210E023046FDF701
:102F200065FC39462D4F3846FFF721FB2C486021C0
:102F3000018001214180848106828460102009245F
:102F4000E406009069462046FDF7CBFB04221146BB
:102F50002046FDF7FEFB22493846FDF7D7FC40200E
:102F6000009069462046FDF7BCFB01220621204661
:102F7000FDF7EFFB1A491848FDF7C8FC80200090C8
:102F800069462046FDF7ADFB012207212046FDF7EB
:102F9000E0FB13491048FDF7F7FC124C6946204648
:102FA0000095FDF79EFB012211462046FDF7D1FB5F
:102FB0000B490948FDF730FD01210748FDF790FC5A
:102FC00001210548FDF796FC01213846FDF788FCF4
:102FD000FEBD0000DB0500000004004000200040B2
:102FE0002C0500200004004810B50A46044612498A
:102FF0001046FDF71EF9FDF7B5F9002801DA0020AB
:1030000003E00E49884200DD08460D49002C08D037
:10301000012C08D0022C0AD0032C01D180B2886385
:1030200010BD80B201E0074980B2486310BD044979
:1030300080B24031086010BD0060BB44DB05000079
:103040000004004000200040F8B506467F20C0057F
:103050000C46814201DD044603E010498C4200D950
:103060000C4621460746FDF7DCF83146FDF7E1F84E
:10307000054631460846FDF7DCF83146FDF7D9F83C
:103080002146FDF7D6F82946FDF77AF80090394633
:103090006846FFF7F1FA0098F8BD0000000080BF15
:1030A00070470000FEB5254D254C2F68A6683946AF
:1030B0003046FDF7BEF8234909680091FDF7B9F8DD
:1030C0006168FDF7B2F839460190FDF7B2F8009952
:1030D000FDF7AFF83146FDF753F8074668680290F0
:1030E000266801463046FDF7A4F80099FDF7A1F8DF
:1030F0003946FDF79AF8A0600299FDF79AF8009911
:10310000FDF797F83146FDF73BF8AD6806462946CE
:103110000198FDF78EF80099FDF78BF83146FDF721
:1031200084F829462060FDF784F80099FDF781F8BE
:103130000199FDF725F86060FEBD0000FC0300204A
:103140009C040020580000207CB54448012585736C
:103150000021C17305710221414800F0C5FB4048C0
:103160000721733000F0C0FB3D480621613000F0BC
:10317000BBFB3B480421343000F0B6FB6420FEF773
:103180001EFD37480621673000F0AEFB002101200C
:1031900000F012FC0121022000F00EFC3921062073
:1031A00000F00AFC0F21112000F006FC0021042091
:1031B00000F002FC0321084600F0FEFBE22000F0D4
:1031C000B5FB0021052000F0F7FB38211D2000F0A1
:1031D000F3FB00F031FAFD2000F070FA002000F05F
:1031E0006DFA00F023FA8F21002000F0E5FB0F209C
:1031F00000F0BDFBC62802D00320FEF7EBFC184C04
:10320000A068002827D017486A4603C8019100909B
:10321000012021465C310B18203BDB7F1354401CFE
:103220000628F8DB0621104600F05EFB30206946D8
:1032300008700621684600F057FB094821693C30B8
:10324000415C252000F0B8FBE5606068002801D0F3
:10325000054820627CBDE5617CBD0000F0020020D5
:103260007C0100202C3A0008881300000120400255
:103270000921C90688610249012088607047000061
:1032800008020020012040020921C9068861034983
:103290000881034900208860704700002000004832
:1032A0000802002001200349400208810249002051
:1032B00088607047200000480802002010B5074CC5
:1032C0002068002801D100F077F801208002092150
:1032D000C90688610120606010BD0000080200205E
:1032E00010B5064C2068002801D100F065F80120D7
:1032F0000349800208810020606010BD08020020A0
:103300002000004870B590B000206C4681006050ED
:10331000401C0F28FADB852000902248224D0668C9
:103320002248019629460068FCF783FFFDF71AF84A
:103330000104C0B2090E049003911D48294600689B
:10334000FCF777FFFDF70EF80104090EC0B2194D26
:1033500005910690686CC10F08184010FF2800DD29
:10336000FF200790002E03D0039808210843039004
:10337000002108468200A258401C51180E28F9DB93
:10338000E1200E9100F0D2FA8221002000F014FB1F
:103390000F21684600F0FCFAFEF714FFA86410B095
:1033A00070BD0000340000200000C842240000204E
:1033B000280000207C01002010B50549012008608C
:1033C0000C3108710920C006FDF78BF910BD000013
:1033D0000802002010B57520FEF7EFFF682807D01F
:1033E000982805D07D2803D0722801D0002010BD78
:1033F000012010BD10B580216B20FEF7E4FF1248BC
:10340000FEF7DDFB01216B20FEF7DDFF7520FEF7E7
:10341000D4FF682801D0012400E000246420FEF7D6
:10342000CEFB18211C20FEF7CEFF002C03D0052177
:103430001D20FEF7C8FF18211B20FEF7C4FF002146
:103440001A20FEF7C0FF10BD409C0000F0B593B0FD
:103450000E2269463B20FEF7A7FF0298039900025F
:10346000401800B2FCF76CFF2E4C206000980199C8
:103470000002401800B24042FCF762FF606004980E
:1034800005990002401800B2FCF75AFFA0600898A6
:1034900009990002401800B2FCF752FF11900A98F7
:1034A0000B990002401800B2FCF74AFF10900C98EC
:1034B0000D990002401800B2FCF742FF129024342C
:1034C00021681098FCF7ADFE109061681198FCF728
:1034D000A8FE1190A1681298FCF7A3FE129001209B
:1034E000109AC00711994240109111464140119124
:1034F00012990C4F4140002410AE0C371291A500D8
:1035000070590949FCF795FE0849FCF792FE705185
:103510002146FFF725F9641C7851032CEFDB13B02B
:10352000F0BD0000F003002000007A3D35FA8E3C2B
:10353000FEB50126B6020124684600960471847126
:10354000C4710327477109206946C006FDF7C9F811
:103550000025684685716002009009206946C00612
:10356000FDF7BFF80648066005718471C4714771A4
:103570000C3830C00560FFF7A1FEFFF777FEFEBDF7
:103580001402002070B50D460446FDF75BFB600099
:103590000446FDF733FB2846FDF730FBFDF720FB23
:1035A000601CFDF72BFB0120FDF7E0FAC4B2FDF72C
:1035B0005BFB204670BDFFB581B01D461646074631
:1035C0000024FDF73FFB78000746FDF717FB029844
:1035D000FDF714FBFDF704FB781CFDF70FFB6D1ED8
:1035E00005E00020FDF7C2FAA1007050641CAC4257
:1035F000F7DB0120FDF7BAFAA1007050FDF734FBAC
:1036000005B0F0BD70B515460E460446FDF71AFB31
:103610006000FDF7F3FA3046FDF7F0FA2846FDF7B3
:10362000EDFAC4B2FDF720FB204670BD0120092150
:10363000C906886170470000014901200881704770
:1036400020000048FEB501246846047100258571FC
:10365000C471032646710220009069460A48FDF7AE
:1036600040F80927FF06694638460094FDF739F807
:103670000648046005718571C471467101460248AF
:10368000FDF72FF8BC61FEBD0014004820020020A9
:1036900030B400200721074C074D0223A3614200EC
:1036A000208A2B81C007C00F1043491EF6D530BCBD
:1036B00070470000001400482014004870B504460C
:1036C0000D48012501680D4E002906D105600C4802
:1036D000057101463046FDF704F80721094A02202A
:1036E00023460B41DB0701D0B56100E01581B061D5
:1036F0001081491EF4D570BD1C0200200014004842
:103700002002002020140048F8B5474D0446016807
:103710002868FCF741FE04D161686868FCF73CFE4C
:1037200055D0206828606068404E68603146606807
:10373000FCF77FFD3E4F3946FCF77BFD05463146E1
:103740002068FCF776FD3946FCF773FD0646FEF768
:103750006DFA354C083420602846FEF767FA606041
:103760002846FEF759FA05463046FEF755FA29462F
:10377000FCF75FFD0646A06060680146FCF759FD56
:10378000054620680146FCF754FD2946FCF7F8FC85
:103790002849054688420FDD31460846FCF749FDB9
:1037A0007F21C905FCF741FD01462846FCF77EFD57
:1037B000FCF7E6FF054600E01F4D20682946FCF7B0
:1037C00038FD206029466068FCF733FD6060164CC8
:1037D0001A4E0834A068009070680099FCF729FD23
:1037E000B768054661683846FCF723FD2946FCF7B3
:1037F00018FD134D686030680099FCF71AFD064605
:1038000038462168FCF715FD3146FCF70AFD7F2498
:10381000E405286021462846FEF72EFF2146281D94
:10382000FEF72AFFF8BD0000AC0000200000824235
:1038300035FA8E3C6F12833AF4FD343FC00000200D
:1038400020040020F8B50A4C064660680949054680
:103850002060FCF7EEFC074607493046FCF7E9FC20
:103860003946FCF78DFC29466060FCF7DAFCF8BDB0
:10387000F0000020E379673FF2BC733F10B50848C1
:10388000064941610749CA6903231202120A440426
:103890002243CA6100218161036110BD7F8D5B00FD
:1038A00000E000E004ED00E00C48436980690C4949
:1038B0004A68904201D2121A01E01B1A9A18486015
:1038C00008680623121807485043800C4343D21A55
:1038D0000A608A68101888607047000000E000E005
:1038E00028020020ABAA000070B50D460646FFF77F
:1038F000A3FE002404E0305DFFF7E0FE641CE4B2A8
:10390000AC42F8D3FFF792FE70BD0000064A10B536
:1039100080008018FCF79EFE042804D0FCF792FE7D
:103920000520FEF757F910BD007C000810B50446CD
:10393000FFF782FE2046FFF7C1FEFFF777FE00206B
:1039400010BD70B50D4606460024FFF775FE6120D8
:10395000FFF7B4FEFFF72AF904E0FFF799FEA10094
:103960007050641CAC42F8DBFFF760FE70BD10B510
:10397000C406E40EFFF760FE2046FFF79FFEFFF748
:1039800015F9FFF785FE0446FFF750FE204610BDEF
:1039900070B50D4606460024FFF74EFEA020FFF747
:1039A0008DFE04E0A0003058FFF788FE641CAC4296
:1039B000F8DBFFF73BFE70BD70B58406A40E202037
:1039C0000D460443FFF738FE2046FFF777FE2846F2
:1039D000FFF774FEFFF72AFE70BD0C010001000323
:1039E000000C0200020003000C0300030003000CA3
:1039F0000400040004000C0400030004000C040094
:103A0000030003000C0400030002000C0400030088
:103A1000010000009A99D93F9A99D93F0000003FD0
:103A20009A99D93F9A99D93F0000003F2A00000097
:103A3000000000002A00000000000000603A0008BA
:103A4000000000203402000068040008FC3A00086E
:103A5000340200200C0700003A0B0008EDD0FFFFF5
:103A600032012904810514CDCCCC3D256666864003
:103A700043803FA930C92061A92009102C033820B8
:103A8000C1A0097B14524185EB4141499009100CBA
:103A900001247AA0B001241340012A2064400D4C77
:103AA00026933F022AA93EA421393E2DB072683EDA
:103AB0000438083333733F9A9999043808CDCC4CB5
:103AC0003FA4703D04411CA4707D0C2B7D3F242934
:103AD000481A4C041A5804031E39010312B80B0586
:103AE000293EF6375D50083F0A6D679C462A490615
:0C3AF00000083E3A4521EF2C5A5000001F
:04000005080000C926
:00000001FF
