:020000040800F2
:10000000600A0020C9000008EF000008470E000841
:1000100000000000000000000000000000000000E0
:10002000000000000000000000000000F3000008D5
:100030000000000000000000F50000086D0F00083F
:10004000F9000008F9000008F9000008F9000008AC
:10005000F9000008F9000008F90000084D0C00083C
:1000600000000000F9000008F9000008F90000088D
:10007000F9000008F9000008F9000008F90000087C
:10008000F90000080000000000000000F90000086E
:1000900000000000F9000008F9000008F90000085D
:1000A00000000000F900000800000000F90000084E
:1000B0000448854600F0B0FA00F076F800480047A2
:1000C000692E0008600A00200C4880F308880C485C
:1000D0000168090E0B4A914205D10B480B4901609A
:1000E0000B480C4901600C4880470C480047FEE76C
:1000F000FEE7FEE7FEE7FEE7FEE70000600A0020FD
:10010000040000001F000000181002400100000061
:100110000000014000000000710F0008B10000085D
:1001200030B50B46014600202022012409E00D468F
:10013000D5409D4205D31D469540491B2546954017
:1001400040191546521E002DF1DC30BD03460B430D
:100150009B0703D009E008C9121F08C0042AFAD27D
:1001600003E00B780370401C491C521EF9D2704703
:10017000D2B201E00270401C491EFBD2704700223F
:10018000F6E710B513460A4604461946FFF7F0FF96
:10019000204610BD0321001D401E037812021A43A1
:1001A000491EF9D51046704770B5054C054D03E062
:1001B000206800198047241DAC42F9D170BD0000B1
:1001C000184200081C420008F8B502464A40D40F05
:1001D00042004B0052085B089A4202D2024608468F
:1001E00011464A0023D0C30D4A00DDB2120EAD1AEB
:1001F000202D35DA49020126490AF6058A19002C14
:1002000000D0524220214F1B1146B9402A411018FC
:10021000C20D9A4221D0002C17D0012D08DCDA053E
:10022000801AD20F8019D207DBB200F05CF9F8BD5A
:10023000DA05801A012340001B06C01880185A42B4
:100240008018CA0F1043490007E04908C20711434C
:10025000DA05801A80194008801800F03CF9F8BDD2
:1002600061000122511A001BF7E70122D207514019
:10027000AAE70122D2075040A6E7024670B54A40DD
:10028000D30FDB0740002DD04A002AD0010E140EF8
:10029000000212020919400A520A8418E5010446B4
:1002A0005443000A120A2E045043A4194219200C88
:1002B000C543AA18120C0125AD03521C5219120491
:1002C0007F39240400D0521C104301D44000491E41
:1002D000C2B20C06C0092018401C4008802A02D077
:1002E00003E0002070BD40084000002900DA002033
:1002F000184370BD70B502464A40D50F40004A0011
:10030000ED0740085208002814D0002A12D0C40D6E
:10031000D30D41020120C0055202490A520AE41AD3
:10032000091812187D34914201D3641C00E0490081
:10033000002C01DA002070BD0023914201D3891AFC
:100340000343400849000028F7D100290AD0914210
:1003500002D10121C90705E0914201D2012101E04A
:100360000121C943E005C018401900F0B4F870BD80
:10037000420005D04200120E52428A4201DB0020A8
:100380007047C9050818704770B54B005B080343F8
:100390000BD04B005C0D002633466542B341D417A9
:1003A000AD1AA34102DB0020014670BD12053018D2
:1003B000514170BDC217C10F504010B54018CA0757
:1003C0009623002100F08FF810BD10B5002296236F
:1003D000114600F088F810BD0EB5054902910021C4
:1003E00000910A460B46019100F0C3F803B000BD2E
:1003F00033040000C20F410040020123400ADB0524
:10040000D207090EC0187F2901DA0020704796290B
:1004100003DC9623591AC84001E096398840002A27
:10042000F4D040427047410040020122400AD20508
:10043000090E80187F2901DA00207047962903DC15
:100440009622511AC840704796398840704700007C
:100450004A0009030123090B1B051943094B10B579
:10046000520D9A4201DA002010BD064B34339A42F5
:1004700003DC9A1A00F01EF810BD03495118884099
:1004800010BD0000FF030000CDFBFFFF0122D207DB
:10049000002800DB101A002900DB511A8142704746
:1004A0000122D207002800DB101A002900DB511AB4
:1004B0008842704710B5202A04DB0846203AD04015
:1004C000002110BD0B46D340D0402024A21A9140F9
:1004D0000843194610BD002904DA401C490001D127
:1004E00040084000704770B40024050C05D110246A
:1004F000000402D1002921D01124050E01D10002EF
:100500000834050F01D10001241D850F01D18000A1
:10051000A41C002801DB4000641C002908D0202511
:100520002E1B0D46F540A14000D001212943084370
:1005300001061B1B000ADB1D02D5002070BC7047A2
:10054000DB05181880180029F8DA401C4900F5D19D
:1005500070BC40084000704710B5002B08DA00243A
:10056000401C614192185B411A4301D14008400090
:1005700010BDF0B51FB482B005460C0003D008468C
:1005800000F044FD02E000F041FD20300246009002
:100590002146284600F052F8049B059A04460F466F
:1005A00018431143084314D0184610431BD0009839
:1005B00040210A1A18460599FFF77CFF05460E46AA
:1005C000009A0599049800F039F8084305D00120F5
:1005D00004E02046394607B0F0BD0020C1170543AE
:1005E0000E432C43374300990E986305401A790552
:1005F000E40A00220C43FD0A0A3002D5002001461D
:10060000E9E70105101969410C9C0D9D001969412C
:10061000FFF7A2FFDFE70000064C0125064E05E0CC
:10062000E36807CC2B430C3C98471034B442F7D313
:10063000FFF742FDF84100081842000810B5202AD3
:1006400004DB0146203A9140002010BD9140202358
:100650009C1A0346E3401943904010BD70B58C18B6
:100660000578401C6B075B0F01D10378401C2A11F1
:1006700006D10278401C03E006780E70401C491C2D
:100680005B1EF9D12B0705D40023521E0DD40B702D
:10069000491CFAE70378401CCB1A921C03E01D7832
:1006A0000D70491C5B1C521EF9D5A142D8D3002005
:1006B00070BD836A0B438362426170470029816881
:1006C00001D0012200E0022211438160704700291D
:1006D000C16802D00122114301E049084900C1600C
:1006E0007047C26802239A43C260C2680A43C2606C
:1006F0007047826800210123DB071A4382600F23C1
:100700001B038268491CD20FD207994201D0002AEC
:10071000F7D18168002901DB006C70470020704729
:1007200030B5C268084B8C681A400B680D792343BA
:10073000CC686D032C4323430C69496923430B4365
:100740001343C36030BD000003D2FFFF8168042261
:100750001143816070470021016001718160C160B7
:10076000016141617047000001220549920500289E
:10077000886801D0104300E0904388607047000013
:100780000027014030B5044618481C21007889B084
:1007900048431749401803F0C7FA16A000680890AC
:1007A000142215A103A8FFF7D1FC112103A800F022
:1007B000C7F80821684600F069F8002807D0002132
:1007C0006A4608A8535C455CAB4202D0002009B0E1
:1007D00030BD491CC9B20329F4D3D078A070107978
:1007E0006070507920700120F1E70000C9010020FD
:1007F0003005002034373100000000000000000008
:100800000D424C48656C69F47D00000038B5044623
:10081000FF206946087000E0641E684603F0ECFBA8
:10082000002801D1002CF7D16846007838BD0000BF
:1008300008B500F0D5F800280DD008A00068009099
:100840000221684600F07CF8AF208000FFF7DEFF51
:10085000302801D0002008BD012008BD02010000A1
:1008600038B505460C46084600F0BAF800280BD00B
:1008700069460D70207848700221684600F060F8E3
:100880002178606800F002F838BD0000F8B5234F09
:100890000546002038707870BE1C30700C467070B1
:1008A000FF2069460870284603F0A6FB00282CD0DC
:1008B000284600F025F9641E6D1C2406240EF2D192
:1008C00002F0BEF900281DD01448801C03F094FBF0
:1008D00000281AD0701C03F08FFB002815D0684642
:1008E00003F08AFB002810D078783978000208439A
:1008F0007178327809021143884206D0C2206946D5
:10090000087006E0684603F077FB684600783028F8
:1009100001D00020F8BD0120F8BD0000D301002067
:1009200010B501460420FFF79BFF10BD10B502284B
:1009300003D00320FFF794FF10BD0720FAE7000063
:10094000F8B5154F05460C4638781C214843134925
:10095000401803F0F9F9124E0020307070702846EC
:1009600003F05AFB284600F0CBF8641E6D1C2406E9
:10097000240EF4D102F064F9002805D0084803F0F1
:100980004BFB701C03F048FB38781C21484303499B
:10099000401803F0C9F9F8BDC90100203005002056
:1009A000D301002008B508A0006800900221684625
:1009B000FFF7C6FF0120FFF729FFC12801D0002063
:1009C00008BD012008BD0000FD00000008B50021A1
:1009D00000910121017002216846FFF7B1FF08BDB7
:1009E00008B54178FF2902D18178FF2912D00AA1E8
:1009F0000968009141786A4691708078D07004212E
:100A00006846FFF79DFF0220FFF700FF302801D066
:100A1000002008BD012008BDFF00000038B50446D5
:100A200010A00068009020786946C87020780028DF
:100A300001D10120887004216846FFF781FF022060
:100A4000FFF7E4FEFF2808D121786068FFF778FF00
:100A50002820FFF7DBFE302801D0002038BD012020
:100A600038BD0000FE00000038B50446FFF7B8FFAF
:100A700000280ED02046FFF7D1FF002809D005A09E
:100A80000068009002216846FFF75AFF1420FFF724
:100A9000BDFE38BD04010000F8B5044615460E46FB
:100AA0000846FFF79DFF002812D03046FFF7B6FF3B
:100AB00000280DD008A0006800906846047002214C
:100AC000FFF73EFF2846FFF7A1FE302801D00020A7
:100AD000F8BD0120F8BD00000001000010B501467E
:100AE000024A0520FFF7D8FF10BD0000DC0500001A
:100AF00010B50146FA220120FFF7CEFF10BD00001D
:100B000070B501780C4C0D4B00205A781E781202FB
:100B10003243CD07D607ED0FF60FB54202D052088B
:100B2000624000E052081A70120A401C4908C0B224
:100B30005A700828E9D370BD01A00000D30100203D
:100B400070B5234D064600243046FFF71BFE0028F3
:100B500037D07078327801021E481143814213D099
:100B60001C48203081420FD01B4881420CD01948CC
:100B70008030814208D01948814205D0184881420E
:100B800002D0401C814201D1012017E0154881426A
:100B900008D0C01C814205D0401D814202D01248BD
:100BA000814201D1022009E01048814205D010485D
:100BB000814202D00F48814203D10420A870012055
:100BC00070BD641CE4B2032CBED3002070BD0000D5
:100BD000C801002010F3000010F4000050F80000DD
:100BE000B1E80000079300000B940000061F00000E
:100BF00006330000063400000029016802D00122FB
:100C0000114301E0014A114001607047FEFF0000FE
:100C100030B503680C4A0C6A13408A684D69224358
:100C20000C692C4322438C692243CC6922434C6AD1
:100C300022438C6A22431A430260CA6842600A68EF
:100C400082604968C16030BD0F80FFFFF8B51E4863
:100C50000168490437D54069400434D52F201A274C
:100C60000024009001F01CFE05460D35ED192E46BE
:100C700001F016FEB042FBD30920C006008A009A9C
:100C80004004C1170120A040491C104201D101209D
:100C900000E00020814210D1641C082CE6D30CD166
:100CA000EC1901F0FDFDA042FBD30920C006008A2B
:100CB000400402D505490120086203484169012228
:100CC000920311434161F8BD000401401800002067
:100CD000F0B50B2706463F04384600F067F80428B5
:100CE0000FD1084C206902252843206166612069E4
:100CF000402108432061384600F058F82169A94393
:100D00002161F0BD0020024008490420CA68D207D2
:100D100001D001207047CA68D20601D50220704771
:100D2000C9684907FBD50320704700000020024036
:100D3000024801698022114301617047002002408E
:100D4000F8B5064600200B273F0400900D463846B4
:100D500000F02CF8042815D10B4C20690121084320
:100D600020613580384600F021F8042806D1B61CF1
:100D7000290C00963180384600F018F8216949089E
:100D800049002161F8BD00000020024004480169CB
:100D9000090603D5034941600349416070470000DB
:100DA0000020024023016745AB89EFCD00B5034623
:100DB000FFF7AAFF02E0FFF7A7FF5B1E012803D0A1
:100DC000002B00D1052000BD002BF4D1FAE7F0B5CF
:100DD0000022032501230C6893401C409C422AD129
:100DE0000C79012C01D0022C12D1876854002E46B8
:100DF000A640B74387604E79A64084682643866044
:100E000084889C43848084888B7993401C438480AD
:100E1000066853002C469C40A64306600E7907687E
:100E20009E403E430660C668A643C660CC799C409F
:100E3000C3681C43C460521C102ACBD3F0BD01858B
:100E4000704781617047052001F036FA70B5FF25C3
:100E500000210446AD05C943FFF78AFA06460F494B
:100E600060100C1A21463046FFF707FA2146FFF7BB
:100E700004FA2946FFF7FDF92146FFF7FEF904467B
:100E800001463046FFF7F9F92146FFF7F6F9294602
:100E9000FFF7EFF92146FFF7F0F970BDDF59375F33
:100EA000044A0029516901D0014300E081435161A6
:100EB0007047000000100240044A0029916901D0E7
:100EC000014300E08143916170470000001002403F
:100ED00008B5002069460870684602F0CFFE6946F2
:100EE000087808BD70B5FFF7F3FF074C054660783A
:100EF000217800020843294600F0DEF82070000A3D
:100F00006070284670BD0000CB0100200CB50020A9
:100F10000090019013491120086013484168416016
:100F20004168416041687B22D2039143416041683E
:100F30000522D204114341600168012212061143C7
:100F4000016001688901FCD5416889088900416018
:100F5000416802221143416041680907890F022953
:100F6000FAD10CBD00200240001002407047000082
:100F700010B5144801680122114301604168124A0A
:100F8000114041600168114A11400160016801226D
:100F900092049143016041683F22120491434160F1
:100FA000C16A09090901C162016BFF2254329143F0
:100FB0000163416B49084900416300218160FFF7EB
:100FC000A5FF10BD001002400CB8FF08FFFFF6FEA1
:100FD00070B5054602F0CCFE054C60782178000221
:100FE0000843294600F068F82070000A607070BD60
:100FF000CD0100200146034888600348C8600846C8
:10100000704700000AD7A33C249A843D2021020C9B
:1010100001D010211046020A01D0104608390209F9
:1010200001D01046091F820801D01046891E4208CF
:1010300001D0881E7047081A704730B47446641E89
:101040002578641CAB4200D21D46635D5B00E3184B
:1010500030BC1847FFB581B01C4617460E0007D0BC
:10106000019D02E02846B047ED192046641EF9D2E2
:10107000019805B0F0BD02E008C8121F08C1002A9F
:10108000FAD170477047002001E001C1121F002A09
:10109000FBD1704710B50323102204490448FFF721
:1010A000D9FF04480021016010BD0000F50F0008C1
:1010B0006C0400204001002009024840064A00213B
:1010C000030402D54000504000E04000491C80B2BB
:1010D0000829F5DB704700002110000070B5174D9E
:1010E000064668680024002801D102F07DFB2868CC
:1010F000002801D102F0F6FB0722012302F04CFB8D
:1011000000F01EF8002803D0184690402043C4B2D7
:1011100002F05EFB521EF1D5002E02D002F064FBFD
:1011200001E002F073FB02F037FB02F051FB68684C
:10113000002801D002F06AFB204670BDF0010020BB
:101140000920C006008A012189020840704700007A
:1011500010B505484068002801D102F045FB02F0B7
:101160001BFB02F053FB10BDF001002070B5104EC8
:101170000546B068012801D102F02AFB0724284661
:101180002041C00702D002F02FFB01E002F03EFB3D
:1011900002F00EFB641EF2D57068002801D102F047
:1011A00023FB02F0F9FA02F013FB384670BD000091
:1011B000F001002010B5074A9068002801D102F024
:1011C000EBFA5068012803D1FFF7BAFF02F01EFBCB
:1011D00010BD0000F001002010B5084C6068012827
:1011E00004D1A068002806D102F010FBA0680028F6
:1011F00001D102F0D1FA02F0F7FA10BDF00100209F
:10120000F8B5154E4520000637460025183FB0605A
:1012100002F0CEFB0024A000395880190F4A01F0DB
:1012200092FD641C032CF6DB01F03AFBFF20F53045
:101230006D1C8542ECDB45210906B068FFF715F807
:10124000074D0024B060A0008019294601F068FD18
:10125000641C032CF7DBF8BD2C0400201F856B3FBA
:101260000000FA4370B592B0202503206946069528
:1012700008770024CC77092006A9C006FFF7A7FD50
:1012800001214802FFF718FE01210846FFF708FE7A
:101290002A4806902A4807900220099080200B9047
:1012A00040000C90089480000E950D900A94C000A8
:1012B000244D0F9006A910942846FFF7A9FC1F4E55
:1012C0000221403E3046FFF70CFA01213046FFF77D
:1012D000FEF96846FFF73FFA01206946009408715D
:1012E00004200590029404943046FFF719FA012176
:1012F000072249043046FFF7DCF907222021304657
:10130000FFF7D7F90120FFF72FFA3046FFF7F1F981
:1013100001213046FFF7D2F93046FFF717FA0121D5
:101320002846FFF769FC08480088FFF74EF8074990
:10133000FEF7A3FF0249486012B070BD402401408F
:10134000D801002008000240BAF7FF1F62DB963F79
:1013500010B50B49002803D0012808D0002010BD8B
:101360000888FFF732F80749FEF787FF10BD488865
:10137000FFF72BF8014602484068FEF7BBFF10BD9F
:10138000D80100203FC8B23AF8B584001348134989
:101390001830075909683846FEF76FFF0F4D0646AB
:1013A00010352846103001593846FEF75EFF2946B1
:1013B00008390968FEF761FF09490968FEF75DFF12
:1013C0003146FEF701FF28512846103007516019B9
:1013D000044901F0A5FC2859F8BD0000480100208F
:1013E000880100200000B443F8B505460C464800CB
:1013F00000D1294C01210026C9078D4203D94C4058
:101400004D408126F605002C09DC204648402C463C
:101410000546012189073046FEF7D6FE06462146DD
:101420002846FFF73DF810D821462846FEF71DFF55
:10143000074621462846FEF7C7FE04467F213D4663
:10144000C9053046FEF7C0FE064621462846FEF78F
:1014500051FF04461149FEF710FF1149FEF7B4FE93
:101460002146FEF70AFF0F49FEF7AEFE2146FEF7C2
:1014700004FF04460C493046FEF7FFFE2146FEF706
:10148000A3FE0A49884202DD0949FEF7EEFE09493A
:10149000FEF7F3FEF8BD0000567C0A2A4BC887BD54
:1014A0007EAE36BE42DA833FDB0F493FDB0F494059
:1014B000DB0FC940E12E654270B5184C206B002847
:1014C00004D00025012809D0256370BD01202062C9
:1014D00002F0AEF9206B401C206370BD172002F0B3
:1014E00024FEC00608D58F21002002F043FE2563AC
:1014F000256201F053FF70BD01F0D2F9216C401A52
:1015000007498842F7D9E12002F0EEFD8F21002043
:1015100002F030FE2563256270BD000078000020D7
:1015200010270000F0B500204024102502260922D3
:10153000324BD20632498700C959CF0701D0946196
:1015400001E000BF1C818F0701D5956101E000BF5C
:101550001D814F0702D52B4FBE6103E000BF294F0D
:1015600020373E81090702D58021916102E000BF4A
:101570008021198100BF00BF00BF00BF00BF00BFB6
:1015800000BF00BF00BF00BF00BF00BF00BF00BF63
:1015900000BF00BF00BF00BF00BF00BF00BF00BF53
:1015A00000BF00BF00BF00BF00BF00BF00BF00BF43
:1015B00000BF00BF00BF00BF00BF00BF00BF00BF33
:1015C00000BF00BF00BF00BF00BF00BF00BF00BF23
:1015D00000BF00BF00BF00BF00BF00BF00BF00BF13
:1015E00000BF00BF00BF00BF00BF00BF00BF00BF03
:1015F00000BF401CC0B230289CD3F0BD2000004882
:10160000A00500200004004870B5002506462C46C1
:10161000A00030580146FEF730FE2946FEF7D4FD03
:10162000641CE4B20546032CF2D3FFF70FFC01461D
:101630007F20C005FEF75EFE70BD0000F8B5164FB6
:101640000C227968134E5143144A8A1839688C0069
:101650001159002802D0124E491C00E0491E1151B8
:10166000BD6831462859FEF708FE28513C68002C19
:1016700004D131466868FEF700FE686078680C2186
:10168000484306494018A1004058002800DA40426B
:10169000F8BD00002EBA683F700100209C040020B5
:1016A000CDCC8C3F30B5002207239C1A6418203C17
:1016B000855CE47FA54201D0002030BD521C072A82
:1016C000F3DB012030BD0000FEB5072002F02DFD48
:1016D0000007400F0025072801D0022000E028461F
:1016E0000124694E002861D0F06800281DD001F067
:1016F000D7F807460F21654802F001FD00F07EFB98
:10170000002853D0B06B401CB0637068002801D033
:10171000FFF7D2FEB562F56230697764B76475622F
:101720003065306A00283FD043E00F21574802F06F
:10173000E6FC564B1868A42801D0A32836D1A3286C
:1017400002D153487460F0614F48197E3430017003
:10175000197F4170198C8170998CC1704D494A4F25
:101760008868C96800900120019154378100595C54
:101770006A4611543A18203A401CD1770628F5DB06
:101780000621684602F08EFC30206946087006216A
:10179000684602F087FC3C4831693430415C2520C2
:1017A00002F0E8FCF46001E001F0F8FD306A002886
:1017B00001D0FFF781FE01F073F80746706C391A0B
:1017C000F06982007D20C000101881420BD9F068BA
:1017D000002808D07764F06A002801D1306D3061AC
:1017E00001F0DCFDF462316AF06A084319D1B06A95
:1017F0000090052815D2F068002812D0706C7D2169
:10180000381AC90088420CD9F169FEF789FC0146F3
:101810000098401C814204D301F0C0FDB06A401C16
:10182000B062B06C391A1C48814206D91B487462F8
:10183000056045608560C56002E0706A002803D0DD
:10184000B069002802D011E0B4610FE0706914495A
:10185000381A88420AD90C48F56006215F30B46115
:1018600002F020FC0021052002F084FC01F018F8B1
:10187000F16C411A0848814205D9B06BB563F06339
:1018800001F00EF8F064FEBD78000020D8030020BF
:1018900088130000D041000840420F00A803002038
:1018A000C0E1E400F0B57F2787B0FF05FE4801974F
:1018B000807B002802D13F200006019000242646AC
:1018C000FA48A50040590199FEF7D7FCF84B4200B1
:1018D000F849520858518A4201DC5E510FE001225A
:1018E000D207904203D83A460023009703E0F24A19
:1018F0000023F249009201F0E7FCED494851641CD5
:10190000032CDDDB01F022FEE7480078002803D03D
:10191000EB480068002826D0E54CEA492068FEF72D
:10192000ACFCE949FEF7A9FCE8490968FEF79DFC13
:1019300025460C3D2860E3496068FEF79EFCE249BD
:10194000FEF79BFCE1494968FEF78FFC6860E049BF
:10195000A068FEF792FCDC49FEF78FFCDB49896842
:10196000FEF783FCA860002001F038FD012001F0A3
:1019700035FD022001F032FDCC48D649C0688842CE
:1019800001DA002406E0D349FEF76FFCD249FEF7E6
:1019900074FC0446D148D24D0068002802D1D148D9
:1019A000844223DA6868002807D000F079FF69686C
:1019B000401ACD49884200D96E600024E0B200216F
:1019C00001F004FE641C032CF8DDC84CC448224618
:1019D0000021083001F0B7F9C148224600210C303F
:1019E00001F0B1F901206E612860DFE0BC4D0020FC
:1019F000286000F055FF6860BD480068002801D0ED
:101A0000BC48C468BC4D20462E683146FEF72DFC0C
:101A1000059069680491FEF728FCAD682946FEF739
:101A2000D3FB039031462046FEF7CEFB04460499D3
:101A3000FEF71BFC2946FEF718FC01900499059857
:101A4000FEF7C2FB2946FEF710FC029020460499DF
:101A5000FEF7BAFB2946FEF7B7FB00246E4600905E
:101A6000A5007059214601F05DFC641C7051032CE7
:101A7000F6DD002004909B4800240590A5007059D5
:101A80000499FEF70DFD01D2705904907059059923
:101A9000FEF7FCFC01D270590590641C042CEDDBB0
:101AA00039460498FEF7E1FB3F210906884200DD34
:101AB00008468B4CA168FEF7F3FC04D28F49A0685E
:101AC000FEF782FB03E07B49A068FEF7CEFB3F21D7
:101AD000844D0906A060884202DC8949884200D909
:101AE000A1607F4801218068C907884200D98548E4
:101AF0007849FEF7C2FB00280DDD2946FEF764FB9E
:101B000000240490A50070590499FEF7AEFB641CF4
:101B10007051042CF6DB00252C46A00004903058B0
:101B20002946FEF7B3FC01D204983558641C042CF6
:101B3000F3DB7548854201D9054603E00120C00763
:101B400085420CD90024A000049030582946FEF7A5
:101B50008CFB01460498641C3150042CF3DB0021FB
:101B60005F480C464161A500705901F0EBFB01464E
:101B7000E0B201F02BFD70590121C907884202D95A
:101B80000020705102E0B84200DD77517159544D88
:101B90006869FEF719FB641C6861032CE3DD012111
:101BA0002C46C9436069FEF7E3FB60613E4E307826
:101BB000002877D042480068002873D100213C48B3
:101BC00002F07CF93A4842498068FEF756FB3E49EC
:101BD000FEF753FB05464D4C29466068FEF74DFB6A
:101BE000009001212068C90748402946FEF745FBBF
:101BF00001902946A068FEF740FB029044480490FB
:101C000045480390F07B434D00284CD0434903C91D
:101C100040004C006408400806462146FEF740FCA0
:101C200000D8344629462046FEF730FC05D8294620
:101C30002046FEF75FFB064600E03E461C4D03993A
:101C40002868440064082046FEF720FC05D820469A
:101C50000399FEF74FFB044600E03C4631460498EA
:101C6000FEF70BFB06462E482146FEF706FB3146E3
:101C7000FEF7AAFA0646254881680120C00781427E
:101C800055D910492868FEF7F8FA0F4F3946FEF784
:101C9000F4FA0E4C2168FEF7E8FA054E09490C3EAD
:101CA00030603FE07FE080E0D8020020A803002001
:101CB000680200200AD7233C000080BF0AD723BC5B
:101CC0001C0100200000574435FA8E3C20040020FF
:101CD0000000FA43CDCCCC3DE4388E3F9C00002080
:101CE000000000206F12833A40420F00EC51383F51
:101CF000240100205C040020D80400200AD7A33B64
:101D0000CDCCCCBD17B7D1B8CDCC4CBE1001002086
:101D10009A99993E00005C423333733F500400208F
:101D20003333333F6868FEF7A8FA39462EE02D4872
:101D300001682D4801602D492868FEF79EFA2C495C
:101D4000FEF79BFA2B4C2168FEF78FFA3146FEF71F
:101D500094FA07467F203146C005FEF786FA06460C
:101D60000020FFF711FB0099FEF72EFA2168FEF71D
:101D70007CFA3146FEF781FA3946FEF725FA1E4E07
:101D80001A4930606868FEF778FA1949FEF775FA63
:101D90006168FEF76AFA7060164881680298FEF77B
:101DA00064FA1549886007B0F0BD124E124F002545
:101DB0000C48AC0001590C4801512846FFF7E4FAE1
:101DC00069460959FEF700FA3159FEF74EFA6D1CC3
:101DD0003851012DECDDB1680298FEF746FAB86083
:101DE000E1E70000440400206001002000005744A7
:101DF00035FA8E3C200400205C020020F8B5304CFF
:101E00002068A52859D1002108468200A258401C0C
:101E100051180E28F9DBC8B2A16B88424DD1284871
:101E2000103001F0CBFA274D28602548183001F01A
:101E3000C5FA68602248283001F0C0FAA860208CFA
:101E4000616A8007800D4018FEF7B4FA1E49FEF75C
:101E500014FAE860217B1D4D0806C00FA871A06828
:101E6000C206D20FEA718206D20F2A728A06D20FF8
:101E70004907EA72C90FA9720107C90F2970616881
:101E8000FA2918D0002169708107C90FC007A9700D
:101E9000C00FE87000200E4B0E4C074601261F5461
:101EA000225C295C8A4200D01E542154401C0E281A
:101EB000F5DB0120F8BD0121E5E70020F8BD0000B9
:101EC000D8030020A8030020F7FF7F3AD8020020A3
:101ED000C8030020B803002010B50020FFF7AEFBB8
:101EE00010BD08B5810040180090411E009101D33B
:101EF0000846FAE708BD000070B5304D8AB00420EE
:101F000028700021084601F061FB0021012001F04A
:101F10005DFB0021032001F059FB0021022001F0AC
:101F200055FB402009264B24F60624023346024680
:101F300000901946019402A801F030FE1C2202A96B
:101F40001F48FEF703F91020334602460090194659
:101F5000019402A801F022FE19481C2202A91C309B
:101F6000FEF7F4F802201749024600900B46019450
:101F700002A801F013FE12481C2202A93830FEF715
:101F8000E5F880203346024600901946019402A8E5
:101F900001F004FE0A481C2202A95430FEF7D6F8CC
:101FA00001208003610033464210019100901946E0
:101FB00002A801F0F3FD28780AB070BDC801002026
:101FC0003005002000040048F0B5C7B0002045905F
:101FD000AA48022585610024A948210A047041709D
:101FE000FEF780FF2F28F7D1A4482030058100207C
:101FF0006946088102AD0126FEF774FF4690FEF7A0
:1020000071FF69464870FEF76DFF69468870FEF7FC
:1020100069FF03AF04464390FEF764FF641E387007
:102020007F1C2406240EF7D1FEF752FF40A9487406
:10203000FEF74EFF40A908749148098A4278037858
:1020400010021843814210D103A8019046983038FD
:102050000300FEF7F2FF110C1F23262D3FAD58ADF4
:10206000758BAFAD9EC130D3AD000324D6E000F038
:10207000E7FD0028FAD08248C01E8078012803D0EE
:10208000022801D0042803D1FEF78CFC0028EDD1F2
:102090000F2432E06B2069460872BFE0092679A55B
:1020A000BCE0C82069460226087201204872B5E0EB
:1020B00001204590B2E06846007B022802D904283E
:1020C00002D005E0002803D06D49C91E8870A5E044
:1020D0000924A3E06A496846C91E007B0A78904239
:1020E00028D248708878012803D0022801D004281B
:1020F00003D16348001DFEF769FC61490020091DFA
:10210000087048708AE05E4F00203F1D387078707C
:102110006846F91F007B0A7890420BD2487004266B
:10212000CD1DC81DFEF70CFD002805D0E81F8078E6
:10213000F87073E0082471E000203870787035E0A2
:102140004F48C01E8078012801D0042830D16A464B
:10215000117B1172042807D0480050700020907045
:102160001046FEF765FB34E08800F6E76946087B19
:1021700008704348C01E8078012803D0022801D08F
:10218000042815D1FEF7D2FB0EE06846067803ADB1
:1021900044E06946087B08703948C01E80780228F0
:1021A00006D10846FEF7BCFB0028EED10F2435E02F
:1021B000022433E06946439808703148C01E807895
:1021C000012803D0022801D0042827D10846FEF7B1
:1021D0008FFC0028EAD021E069464398087028481F
:1021E0000F24C01E80780128E2D0022816D10846AC
:1021F000FEF774FC002811D000240FE02048C01E18
:1022000080780428D4D16946439808706846FEF760
:102210002BFC3028F0D0C028C8D10424184F00204F
:10222000BF1C387078702E20FEF7D2FE4698FEF75D
:10223000CFFE68464078FEF7CBFE68468078FEF712
:10224000C7FE3046FEF7C4FE2878FEF7C1FE6D1CBF
:10225000761E3606360EF7D12046FEF7B9FE7878A0
:1022600001F086FD387801F083FD4598002800D103
:10227000AEE600F00DF847B0F0BD000000140048D5
:10228000CB0100206D34774643496E746600000030
:1022900010B501F06BF90021084601F097F9002113
:1022A000012001F093F90021032001F08FF90021B2
:1022B000022001F08BF910BD06460024E0B2002197
:1022C00001F084F9641C032CF8DD0B4DAF000024F1
:1022D0000CE0FF2000F01AFD2846FFF702FEFF2069
:1022E00000F00AFD2846FFF7FCFD641CB442F0DB59
:1022F0003846FFF7F6FDEAE7400D030010B5034945
:10230000FDF762FF00F004F810BD0000DB0FC93FCD
:1023100070B50446134E144D03E03146FDF754FFEB
:102320000446AC42F9D8114DAC4204DD3146FDF70C
:102330009CFF0446F8E70120C0070D490D4D84427B
:10234000204605D9FDF799FF2946FDF73DFF04E03A
:10235000FDF793FF2946FDF78CFF2146FDF78DFF22
:1023600070BD0000DB0FC940DB0F49C0DB0F4940E7
:102370007B81CF3E83F9A23FFEB500273D46002476
:10238000681CFEF717F801900E49A8000E58601C53
:10239000FEF710F80090A10071580198FDF76DFF4D
:1023A0000099FDF76AFF0849FDF767FF3946FDF719
:1023B0000BFF641C0746032CE9DB6D1C032DDEDBE1
:1023C000FEBD0000BC0100208D976E3F10B5FFF7E9
:1023D000D3FF0149086010BD54000020F8B500206B
:1023E000012400F0FFF8374DA8426AD1FF2000F029
:1023F000F9F8A84265D12046022500F0FBF83249E1
:1024000048600968FEF742F811D100260024B700A1
:1024100028466D1C00F0EEF82C49A200C959641C36
:102420008850032CF4DB761C032EEFDB00E00B2539
:1024300028466D1C00F0DEF8254C206028466D1CF7
:1024400000F0D8F86060284600F0D4F8A06034208E
:1024500000F0C8F8002203461146CC00184620417F
:10246000C00700D00122491C0429F6DB002A28D12C
:1024700018490120086018490860322000F0B2F8BD
:10248000164C2071322000F0ADF81549000A0860A2
:10249000332000F0A7F802460021CB001046184177
:1024A0006054491C0429F8DB342000F09BF80D4AE5
:1024B00003460021CC00184620415054491C0429F1
:1024C000F8DBF8BD0100AA1254000020BC01002076
:1024D0002C040020E000002080000020CC00002020
:1024E0007C000020AC000020F8B500F087F800F078
:1024F00067F8002001242A4901F0E6FD2949204619
:102500000225096800F07EF800260024B70026485E
:10251000A100C059415828466D1C00F073F8641C96
:10252000032CF4DB761C032EEFDB204C28466D1CBD
:10253000216800F067F86E1C2846616800F062F8B8
:102540003046A16800F05EF81948006800281FD0E6
:102550001948184C0068217900020143322001F02B
:10256000B3FD2046FDF716FE0102E078090A0006D9
:102570000143332001F0A8FD1048FDF70BFE0102D6
:102580000E48090AC07800060143342001F09CFD82
:102590000349FF2001F098FD00F020F8F8BD00008D
:1025A0000100AA1254000020BC0100202C040020CD
:1025B000E0000020CC0000207C000020AC000020C7
:1025C00010B50548FEF784FB042803D0FEF7B0FBE6
:1025D000012010BD002010BD007C000810B5FEF7E2
:1025E000A7FB10BD0249800040180068704700003A
:1025F000007C000800B5FFF7F5FF00BD10B5FEF741
:10260000C5FB10BD10B501F05FFD10BD30B52F4CFE
:102610002178814258D007216218203AD27F625433
:10262000491E0129F8DA207029492848FFF73AF8AD
:102630007F25002802D06570032030BD244923483F
:10264000C91DFFF72FF8002802D06570042030BDA7
:102650001F491E480E31FFF725F8002802D065708B
:10266000012030BD1A4919481531FFF71BF8002821
:1026700002D06570022030BD154914481C31FFF7A7
:1026800011F8002802D06570052030BD10490F48B0
:102690002331FFF707F8002802D06570062030BD0F
:1026A0000B490A482A31FEF7FDFF002802D0657069
:1026B000072030BD064905483131FEF7F3FF0028F9
:1026C00002D06570082030BD002030BD70000020B1
:1026D00096410008F8B500F061F800284AD00021C2
:1026E000284E0125284F294C012812D0022823D03A
:1026F000274A04282BD003282CD0072800DB3D6074
:1027000005282AD006282BD0072834D0082835D011
:1027100029E0386800280AD035603960FFF7E4FE08
:10272000FFF75CFE00F0BCF81A4908601BE000F0FF
:10273000D1F8FEF765FDF1E717490868002804D0D5
:10274000002008600221081A0CE00120F9E7157149
:10275000356008E03560117105E000F003FE01E02E
:1027600000F0F2FD20603868002803D020680028BF
:1027700000D13560F8BD00F05DFAF3E7FFF7ACFB80
:10278000F0E700002C0000205C000020300000205A
:10279000D802002050000020E000002070B537482B
:1027A000374C0068002864D0364B37481A6851000F
:1027B000490881420BDA9D686D006D08854206DA92
:1027C0005D686D006D08854201DA00202FE02F4D15
:1027D000AA4202D89E68AE4206D95E6876007608A4
:1027E000864201DA012022E0294EB24202DC9A68D8
:1027F000B24206DD5A6852005208824201DA0220D3
:1028000015E05A68AA4208D9814206DA9D686D002F
:102810006D08854201DA032009E0B24208DD8142F9
:1028200006DA996849004908814201DA04202060EB
:1028300000F036F806CC083C914200D0E060E26837
:10284000801A144A90420FD9002904D1124A9042AA
:1028500001D90C2005E0114A904204D97F2903D008
:10286000FF20A06000E0A1606160A068FFF7CEFEDD
:1028700070BD7F20A0606060002070BD000000205F
:1028800060000020A8030020CDCC4C3E333333BF82
:102890003333333FA086010060AE0A0020A1070059
:1028A00000B501F0DFFB00BD1CB523200121400471
:1028B000FEF7F6FA01206946087100208871C87198
:1028C00003204871022000900148FEF780FA1CBDE9
:1028D00000140048F0B591B0FFF7E2FF0F900546F5
:1028E0000B900A9000208100574B0CAA5B58401CAB
:1028F00053500328F7DB8CE00A980A95281A0990B0
:1029000001D10120099006226946432000F0B4F865
:10291000009801990002401800B2FDF74BFD0790A6
:10292000029803990002401800B2FDF743FD06909B
:10293000049805990002401800B2FDF73BFD434E94
:102940000890307800F084F920464149FDF7E8FB13
:102950004048814201D9012100E000213068C207CE
:10296000D20F914201D0401C3060384801780907ED
:10297000090F00260160B4000CAF06A839590059B0
:10298000FDF78EFD04D238593349FDF71DFC38514F
:1029900006A839590059FDF779FD04D238592E4956
:1029A000FDF763FC3851E0192C4900F0B9F93859AA
:1029B0002B4940004008FDF707FC014606AF385997
:1029C00040004008FDF76CFD06D2FFF769FF0B9051
:1029D0001E48012101600BE00998FDF7F6FC214932
:1029E00000F0EEF9024618483959201800F0ABF90A
:1029F000761C032EBFDB7D24E400FFF751FF401B54
:102A0000A04203D20A20FFF76CFAF6E7FFF748FF6F
:102A100005460B982C1A1448844205D20F98134986
:102A2000281A884200D267E70B98291A0E4881427B
:102A300007D20020044A01468300401CD1500328DD
:102A4000FADB11B0F0BD000038040020F8000020CF
:102A500024F40000127A0000CDCCCC3D00004844A4
:102A60000000C8420024F44880841E00C0E1E40055
:102A700010B501F015F810BD13460A4610B5014611
:102A8000682001F050F8012010BD10B50146682003
:102A900001F030F810BD0A4610B50146682001F07B
:102AA00069F810BDF0B5494C494D87B021682868D8
:102AB000FDF7DBFB286061686868FDF7D6FB002442
:102AC0000A27FF436860A600A8593946FDF750FC65
:102AD000641CA851032CF6DB3E480024006804AFB8
:102AE00000903D48A60080590099FDF7C6FB641C84
:102AF000B851032CF5DB394E049834682146FDF7B4
:102B0000BCFBB168FDF7B5FB019001990498FDF796
:102B1000B4FB2146FDF758FB074601990598FDF7E0
:102B2000ACFB7168FDF750FB044621460598FDF7A4
:102B3000A4FB0199FDF79DFBB06021460698FDF7C7
:102B40009CFB3946FDF795FB3060069A014610461E
:102B5000FDF793FB2146FDF737FB70601C48FEF73D
:102B600053FD1F491F4A4118914222D27F22D205AC
:102B7000014600241046FDF7BDFB0090A700E9596F
:102B8000FDF77BFB641CE851032C01DA0098F5E7A4
:102B900010483F210906006800F024F90746002488
:102BA000A000295880193A4600F0CDF8641C032C87
:102BB000F6DBB1683068FEF717FC0B4C2060B1689B
:102BC0007068FEF711FC606007B0F0BD2C040020B7
:102BD000140400204C0000202004002010010020DC
:102BE000CCCCCCC03233730050040020F8B50025A3
:102BF0000D4F00F0DDFE0024A6000A21B859C9439C
:102C0000FDF7B6FB01460948094A301800F09BF869
:102C1000641C032CF0DB7D20C000FFF762F96D1C03
:102C2000642DE6DBF8BD0000140400201001002034
:102C30009A99593F10B50120FEF700FD10BD000024
:102C400002480078002800D001207047CF01002002
:102C500070B50646FFF724FE194C21692061451A1C
:102C60003046FDF7B2FB1749FDF707FB0646012189
:102C7000204689070C3000F053F82846FDF7A5FBE5
:102C8000054630466168FDF7F0FA2946FDF7F5FA8A
:102C90000D49FDF7F2FAE168FDF796FA0B49E0609D
:102CA000884205DDFF2000F031F87F20C00503E0F9
:102CB000FF2000F021F800206060002070BD0000BF
:102CC000E40000208988883D6F12833A48E1FA3E8B
:102CD00070B50D460446FFF7E3FD2146FDF720FAE7
:102CE0006C432009814203D90F2000F00FF870BD1A
:102CF0000F2000F001F870BD10B5C00703D002210D
:102D00000148FEF79CF810BD0014004810B5C0073C
:102D100003D002210148FEF794F810BD00140048CA
:102D200070B504460120C0070D4645400E46206898
:102D3000FDF7B6FB00D2266028462168FDF7B0FB00
:102D400000D2256070BD70B505460C467F20164642
:102D50001146C005FDF789FA2146FDF78EFA0446B3
:102D600031462868FDF789FA2146FDF72DFA2860DB
:102D700070BD0000F3B5104E104F8C0083B0315978
:102D80003869FDF77AFA019030460C380559F86831
:102D90002946FDF772FA009079690398FDF76DFAFC
:102DA0000099FDF711FA0199FDF75FFA31463551A7
:102DB0000C39085105B0F0BD080500207001002055
:102DC00010B5FDF797FA7F24E4052146FDF751FA87
:102DD000A04201DD204610BD0121C9078842FAD971
:102DE000002010BD10B5FDF748FA7F24E405214608
:102DF000FDF73FFAA04201DD204610BD0121C907C1
:102E00008842FAD9002010BDF8B5164A09018C187D
:102E100005462768A1686068FDF7D6F90090E1686B
:102E2000FDF7D2F901467F20C005FDF763FA00994E
:102E3000FDF723FA064639462846FDF716FA3146CD
:102E4000FDF71BFA3946FDF7BFF905467F203146ED
:102E5000C005FDF70AFA0099FDF70FFA25606060DA
:102E60002846F8BD6C0400201CB57D20C000FFF78B
:102E700038F8FFF719FD00F0BDFF01F0DDF8E2487A
:102E8000FFF72FF8FFF7F4FD00F070FB0021084674
:102E900000F09CFB0021012000F098FB00210320A2
:102EA00000F094FB0021022000F090FB00F054FDA4
:102EB00000F042FD00282CD0FEF7D4F9D3480121C0
:102EC0008173FFF783FAFFF789FA00F0E3FBD04D37
:102ED00000240020FEF73CFA2968FDF775F9286008
:102EE0007D20C000FEF7FDFF641C402CF1DB0521B6
:102EF000C9432868FDF73CFA2860FFF7EBFC00F0B7
:102F0000C7FBFFF773FEC3480068002803D0072003
:102F100024E0042022E0FFF7C3FCA86300F0F0FCEB
:102F20000027FFF7BDFCBA4C0546A06B281AFDF739
:102F30004CFA6063002802DC7F20C0056063B6495C
:102F4000FDF79BF9B5496063884201DD062005E085
:102F5000B048A5630068142802DD0820FFF7ACF92B
:102F600000F026FDFEF79EFCFFF79CFD0020FEF71B
:102F7000EFF9A74CA168FDF780F906460120FEF79E
:102F8000E7F901462046A64A0830FFF7DCFEA548CF
:102F9000A34A016820460C30FFF7D5FE2046A24A1E
:102FA00024302168FFF7CFFE9D4A31462046FFF7C7
:102FB000CAFE0121C943606AFDF7DAF906469B495A
:102FC0002068FDF75AF93146FDF74FF9009098480F
:102FD000E66886425BDD2046806A0446FDF7EAF932
:102FE0009349FDF74AF93146FDF747F90099FDF796
:102FF000EBF88649A4007031085106468448006BFE
:10300000002808D00020824B30398200401C8E50AE
:103010000C28FADB1F637D48864910300059FDF704
:103020002CF901907948403001593046FDF71DF9DF
:103030000199FDF7C9F8754940310E5130390851F1
:103040000146FDF71AF9714E0146A036A0197A4AD9
:10305000FFF779FE6E486E49806A401C88620C2832
:1030600015DB8F623068002401906848A600A0300C
:1030700080590199FDF70AFA06D26448A0308059B8
:1030800001906348611CC162641C0C2CEDDB604C38
:103090002069002800D066486849FDF795F8064683
:1030A000E06AFDF787F96249FDF7E7F8E168FDF7A7
:1030B000E4F80099FDF788F83146FDF7E7F903D306
:1030C0005F492068884202DA0120206100E0276120
:1030D000E06AFDF76FF95649FDF7CFF8E168FDF7B3
:1030E000CCF80099FDF770F8606056480068002839
:1030F00001D0FFF7EFFA46480069002801D0082107
:1031000008E051480068002806D0504800680028B0
:1031100004D00F214E4818E00C2115E03B483C4CF0
:10312000867B6069002813D0E069002802D1FFF790
:10313000B7FBE061FFF7B4FBE169411A4448814203
:1031400001D96761E76108212F48FFF7C1FD2DE034
:103150002F488069002820D0FFF7A2FB04462C48A6
:10316000C06900280AD12A48002EC46103D0FF207C
:10317000FFF7C2FD02E0FF20FFF7C8FD2448C16948
:10318000621A33498A4203D98169C761491E816144
:10319000C0693049201A884208D9002E03D0FF2088
:1031A000FFF7B4FD02E0FF20FFF7A6FD2548006809
:1031B00000281AD0284880260660154C206A00286E
:1031C00017D027622448803006600220FFF79EFD5A
:1031D000FEF792FEFEF7F8FE1F4806600220FFF79A
:1031E0008BFDFFF75DFBA06303E01B49802080316E
:1031F0000860FEF769FA7D24E400FFF751FB401BED
:10320000A042FAD38DE60000A0860100D80200207B
:1032100018000020E0010020BD3786350AD7A33C06
:10322000492E7F3F1400002029EA7F3F0000A03F85
:10323000CDCCCC3D42F27C3F67B17F3F0000604087
:10324000CDCC2C4000000020840000209C000020F9
:1032500020A10700E093040000E100E030B54B003E
:10326000002A01D0012100E000210B4399B2002384
:103270000C461A464B40521C0909D2B2032AF9D314
:103280001907090F22010A4393B2002101220D4CB4
:1032900082401804084609D50C2568432558154373
:1032A0002550001945681543456004E00C25684326
:1032B0002558154325505804491C030CC9B2102940
:1032C000E7D330BDA0050020FFB581B007460E460C
:1032D00010460A9DFCF7C9FF044628460499FCF7EE
:1032E000C4FF054631463846FCF7BFFF2946FCF7C8
:1032F000C4FF2146FCF7FEFF0499FCF765FF05B00B
:10330000F0BD000010B506490868002807D000206D
:103310000860091D08710920C006FDF758FD10BDA1
:103320000402002070B503468C00044D044A601965
:103330001946FFF708FD285970BD000078020020EB
:103340004E09183F7047000005490868022804D05C
:1033500001DA02200860401C70470020FAE70000F4
:10336000700100200C494868002804D0012807D0CB
:1033700002280AD10BE0084828308860012003E0C9
:1033800005483430886002204860401C704702487D
:103390001C3088600020F7E77001002010B5064956
:1033A000087C401C8007800F08613431095C2520AF
:1033B00000F0E0FE10BD00007800002010B541686C
:1033C00000788007800DFF38FF3802380818FCF7B6
:1033D000F1FF0821C943FCF7CBFF10BDF1B55248FE
:1033E00082B001680298514E514F8400002904D0E8
:1033F00030595049FCF741FF30514F4800250159E1
:103400004A4818300059FDF741F803D138590028CF
:1034100000DD0125484801210059C90748404349BA
:1034200018310959FDF732F804D139590120C00784
:10343000814227D8002D25D13C4802212430005953
:103440000090FCF795FF394930310959FCF7BCFE73
:103450003D592946FCF7B8FE3849FCF70EFF3849BC
:103460000959FCF70AFF37490968FCF706FF31598B
:10347000FCF7AAFE2D49305130310098085108461A
:103480000C3805512C480C30015928482018FFF7FA
:1034900047FC2B481830065938593146FCF7EDFEE9
:1034A00027490C3909590091FCF7E7FE1F4D0746E3
:1034B0007F211835C9053046FCF7D7FE0099FCF787
:1034C000DCFE21490E593146FCF7D7FE3946FCF7A0
:1034D0007BFE16490959FCF777FE285118480C3035
:1034E0000759002F18DD28460C3800593146FCF7E3
:1034F000BCFE3946FCF7C1FE114928398969FCF741
:10350000BCFE29460C390E510299FFF733FC0146E7
:103510002859FCF759FE2851074801596019FFF74F
:10352000FFFB2859FEBD000000000020C004002061
:103530005C02002048E17A3FE04100087EAA2A3E72
:10354000980100204C0000202004002010B5044801
:1035500001680448FCF7CEFE0349886110BD0000F5
:103560004C00002017B7513B700100207CB50120B2
:103570006946087100248C71CC7103204871402089
:103580000925ED0600902846FDF721FC1021009149
:1035900069462846FDF71BFC022100916946084850
:1035A000FDF715FC8020009069462846FDF70FFCCA
:1035B000FFF776F9034941180348046041607CBD78
:1035C000000400486079FEFFE4010020F8B50A46D7
:1035D0000646032830D80120C007824201D90022C4
:1035E00003E02248824200DD024621491046FCF7F2
:1035F00044FEFCF718FF803087B21E4800680028A0
:1036000000D000271C481D4D00680024002818D059
:103610006868002811D0FFF743F96968401A184913
:1036200088420FD917484021018110210181164A93
:103630000221118180210181F8BDFFF731F9686015
:1036400000E06C60002239463046FFF707FE032E8B
:10365000F2D172B6FDF766FF62B600200B49820018
:10366000401CC0B28C503028F9D3F8BD77BE7F3FE4
:103670000020F044000000209C000020E401002015
:1036800040420F002000004820040048A005002010
:10369000704700007CB53C48012585730021C1734B
:1036A00002213A4800F0FEFC6420FEF71AFC37487D
:1036B0000621593000F0F6FC0021012000F05AFDEF
:1036C0000121022000F056FD3921062000F052FDB4
:1036D0000F21112000F04EFD0021042000F04AFDD2
:1036E0000321084600F046FDE22000F0FDFC002129
:1036F000052000F03FFD38211D2000F03BFD00F0CB
:1037000073FBFD2000F0B4FB002000F0B1FB00F0E3
:1037100066FB8F21002000F02DFD0F2000F005FD3D
:10372000C62802D00320FEF7C7FD184CA068002869
:1037300027D017486A4603C801910090012021460E
:1037400054310B18203BDB7F1354401C0628F8DB58
:103750000621104600F0A6FC3020694608700621BC
:10376000684600F09FFC094821693430415C2520FF
:1037700000F000FDE5606068002801D00548E061C8
:103780007CBDA5617CBD0000D8020020780000202F
:10379000D041000888130000012040020921C90619
:1037A000886102490120886070470000F001002014
:1037B000012040020921C9068861034908810349A3
:1037C000002088607047000020000048F0010020C1
:1037D00001200349400208810249002088607047A7
:1037E00020000048F001002010B5074C2068002898
:1037F00001D100F077F8012080020921C906886113
:103800000120606010BD0000F001002010B5064CE2
:103810002068002801D100F065F8012003498002EA
:1038200008810020606010BDF001002020000048E9
:1038300070B590B000206C4681006050401C0F288D
:10384000FADB852000902248224D06682248019626
:1038500029460068FCF711FDFCF7CCFD0104C0B25D
:10386000090E049003911D4829460068FCF705FDE8
:10387000FCF7C0FD0104090EC0B2194D0591069078
:10388000E86BC10F08184010FF2800DDFF200790EB
:10389000002E03D003980821084303900021084616
:1038A0008200A258401C51180E28F9DBE1200E912D
:1038B00000F01AFC8221002000F05CFC0F21684619
:1038C00000F044FCFEF7ECFF286410B070BD00006F
:1038D000280000200000C842180000201C00002022
:1038E0007800002010B50549012008600C310871EE
:1038F0000920C006FDF76BFA10BD0000F0010020A2
:103900000A4841690909090141610948C268012160
:1039100089030A43C26002680A43026005480168DD
:103920000902090A42071143016070470000014083
:103930000004014004E400E010B57520FFF7A5F88D
:10394000682807D0782805D07D2803D0722801D0B8
:10395000002010BD012010BD10B580216B20FFF7A5
:103960009AF81248FEF7BDFA01216B20FFF793F891
:103970007520FFF78AF8682801D0012400E00024B0
:103980006420FEF7AEFA18211C20FFF784F8002C03
:1039900003D005211D20FFF77EF818211B20FFF71B
:1039A0007AF800211A20FFF776F810BD409C00003D
:1039B000F0B593B00E2269463B20FFF75DF8009802
:1039C00001990002401800B24042FCF7F3FC0646A1
:1039D000029803990002401800B22E4D4042FCF7B5
:1039E000E9FC0746049805990002401800B2FCF76C
:1039F000E1FC0124E40767406640A860C0C5089860
:103A000009990002401800B2FCF7D4FC11900A9802
:103A10000B990002401800B2FCF7CCFC10900C98F7
:103A20000D990002401800B2FCF7C4FC12901C353E
:103A300029681098FCF719FC109069681198FCF738
:103A400014FC1190A9681298FCF70FFC12901198C1
:103A50002F4660401190109810AE60401090119861
:103A600060401190129860400024183F1290A50009
:103A700070590949FCF701FC0849FCF7FEFB70513D
:103A80002146FFF7C1F9641C7851032CEFDB13B01A
:103A9000F0BD00001404002000007A3D35FA8E3C91
:103AA000FEB50126B60201246846009604718471B1
:103AB000C4710327477109206946C006FDF787F9DD
:103AC0000025684685716002009009206946C0069D
:103AD000FDF77DF90648066005718471C471477170
:103AE0000C3830C00560FFF77FFEFFF755FEFEBDC6
:103AF000FC01002070B50D460446FDF75BFB60003D
:103B00000446FDF733FB2846FDF730FBFDF720FBAD
:103B1000601CFDF72BFB0120FDF7E0FAC4B2FDF7B6
:103B20005BFB204670BDFFB581B01D4616460746BB
:103B30000024FDF73FFB78000746FDF717FB0298CE
:103B4000FDF714FBFDF704FB781CFDF70FFB6D1E62
:103B500005E00020FDF7C2FAA1007050641CAC42E1
:103B6000F7DB0120FDF7BAFAA1007050FDF734FB36
:103B700005B0F0BD70B515460E460446FDF71AFBBC
:103B80006000FDF7F3FA3046FDF7F0FA2846FDF73E
:103B9000EDFAC4B2FDF720FB204670BD70B588B0C9
:103BA00005460C460D9E0C981C4320D0134C2160FA
:103BB000A280A360A081204600F03BF8204600F0E0
:103BC00021F831460E482661FCF7AAFA6061FCF73D
:103BD00003FC0022D243FCF7D7FBFCF739FC1C2284
:103BE0002146A0612846FCF7B1FA08B070BD1C213F
:103BF0006846FCF7C4FA1C226946F3E71405002066
:103C000040420F001CB504468068002810D00020F8
:103C1000694601900871A089009001208871C871DF
:103C200003204871A068FDF7D2F8A168A0898861D7
:103C30001CBD1CB504460068002812D0002000906E
:103C400001216A4601901171A18800919071D07193
:103C50000320507169462068FDF7B9F82168A088F3
:103C600088611CBD82680168914205D18188808984
:103C7000814201D1012070470020704710B50146F4
:103C8000014800F003F810BD14050020F3B500262C
:103C900081B004463546FEF703FE074605E0FEF711
:103CA000FFFD2049C21B8A420BD8A168098AA2895C
:103CB0001142F4D007E0FEF7F3FD1A49C21B8A4215
:103CC00001D90020FEBDA168098AA2891142F2D162
:103CD000A1690F1810E0C7190097FEF7E1FD014632
:103CE00000988142F9D3A0686D08008AA189084232
:103CF00001D080200543761C6069082EEBDBC619D5
:103D0000FEF7CEFDB042FBD3A068008AA18908422D
:103D100003D1029800210170D3E7029805700120B9
:103D2000FEBD00001027000010B504460820092140
:103D3000C90688612046FFF795FF002802D020467B
:103D4000FFF760FF10BD000010B5044607490820CA
:103D500008812046FFF786FF002802D02046FFF7A3
:103D600068FF1420FEF7BDF810BD000020000048D9
:103D700010B50146014800F003F810BD14050020FD
:103D8000F8B50F4604462168808800260885FEF7AE
:103D900087FD0546606945190095FEF781FD0146DE
:103DA00000988142F9D3F807A088216801D0886182
:103DB00000E008857F08761C082EEBDB6069461959
:103DC0003546FEF76DFDA842FBD32168A0888861C7
:103DD00060698419FEF764FDA042FBD3F8BD08209A
:103DE0000921C90688617047014908200881704788
:103DF00020000048FEB50124684604710025857145
:103E0000C471032646710420009009206946C0064B
:103E1000FCF7DDFF082709206946C0060097FCF77C
:103E2000D6FF08480221016005718571C471467191
:103E300001460920C006FCF7CAFF0920C0068761B9
:103E4000FEBD00000802002030B40020072104233A
:103E50000924064DE406A3614200208A2B818007D5
:103E6000C00F1043491EF6D530BC704720000048F3
:103E700070B504460E4809250168ED06002907D1F2
:103E8000012101600B48017101462846FCF79FFFA4
:103E900007210220084B042226460E41F60701D0D6
:103EA000A86100E01881AA611A81491EF4D570BD8D
:103EB000040200200802002020000048F8B5474D09
:103EC000044601682868FCF7E1FA04D16168686873
:103ED000FCF7DCFA55D0206828606068404E6860C6
:103EE00031466068FCF7C9F93E4F3946FCF7C5F921
:103EF000054631462068FCF7C0F93946FCF7BDF9A4
:103F00000646FEF705FA354C083420602846FEF7D1
:103F1000FFF960602846FEF7F1F905463046FEF7E6
:103F2000EDF92946FCF7A9F90646A060606801464C
:103F3000FCF7A3F9054620680146FCF79EF92946DF
:103F4000FCF742F92849054688420FDD314608460C
:103F5000FCF793F97F21C905FCF78BF90146284648
:103F6000FCF7C8F9FCF772FF054600E01F4D20681A
:103F70002946FCF782F9206029466068FCF77DF944
:103F80006060164C1A4E0834A06800907068009962
:103F9000FCF773F9B768054661683846FCF76DF9B8
:103FA0002946FCF762F9134D686030680099FCF708
:103FB00064F9064638462168FCF75FF93146FCF79C
:103FC00054F97F24E405286021462846FEF7A8FE20
:103FD0002146281DFEF7A4FEF8BD0000FC000020CD
:103FE00000008C4235FA8E3C6F12833AF4FD343F68
:103FF0001001002044040020014610B504481C2292
:1040000000785043034A8018FFF740FEC0B210BD4D
:10401000C90100203005002010B5017804481C2299
:1040200000785043034A8018FFF7AAFE10BD000035
:10403000C90100203005002010B50848064941613B
:104040000749CA6903231202120A44042243CA61BF
:1040500000218161036110BD7F8D5B0000E000E005
:1040600004ED00E00C48436980690C494A689042BD
:1040700001D2121A01E01B1A9A1848600868062338
:10408000121807485043800C4343D21A0A608A68CA
:10409000101888607047000000E000E01002002067
:1040A000ABAA000070B50D460646FFF79DFE002442
:1040B00004E0305DFFF7DCFE641CE4B2AC42F8D3F0
:1040C000FFF78DFE70BD0000064A10B58000801815
:1040D000FCF736FE042804D0FCF72AFE0520FEF784
:1040E000EBF810BD007C000810B50446FFF77CFE1D
:1040F0002046FFF7BDFEFFF772FE002010BD70B531
:104100000D4606460024FFF76FFE6120FFF7B0FE64
:10411000FFF7F8F804E0FFF797FEA1007050641C69
:10412000AC42F8DBFFF75BFE70BD10B5C406E40ED1
:10413000FFF75AFE2046FFF79BFEFFF7E3F8FFF775
:1041400083FE0446FFF74BFE204610BD70B50D46BA
:1041500006460024FFF748FEA020FFF789FE04E092
:10416000A0003058FFF784FE641CAC42F8DBFFF778
:1041700036FE70BD70B58406A40E20200D460443A3
:10418000FFF732FE2046FFF773FE2846FFF770FE6A
:10419000FFF725FE70BD0C0100010003000C0200BA
:1041A000020003000C0300030003000C04000400E1
:1041B00004000C0400030004000C040003000300CE
:1041C0000C0400030002000C0400030001000000C6
:1041D0002A000000000000002A000000000000008B
:1041E0009A99D93F9A99D93F0000003F9A99D93FAF
:1041F0009A99D93F0000003F1C42000800000020AF
:104200001C0200005C060008A84200081C020020F6
:1042100044080000861000087DCEFFFF320129040B
:104220008185CDCCCC3D256666864043803FA92460
:10423000C92061C920032020C10A12395171033BF2
:10424000B80B9A2A06011FA0097B14524185EB4145
:104250004149EC09100C0124032CE040138C01406F
:104260000E209ED8893F2173943E52215A3E2D1430
:10427000AE873E0438089A99593FCDCCCC04380813
:104280006666A63F7B148E04180C48E1FA3E7B1448
:104290006E3F333373182B663F441A98041AA404F4
:0842A0000120023301000000BF
:04000005080000C926
:00000001FF
